{
	"contracts/Staking.sol": {
		"Staking": {
			"abi": [
				{
					"inputs": [],
					"name": "InvalidInitialization",
					"type": "error"
				},
				{
					"inputs": [],
					"name": "NotInitializing",
					"type": "error"
				},
				{
					"inputs": [
						{
							"internalType": "address",
							"name": "owner",
							"type": "address"
						}
					],
					"name": "OwnableInvalidOwner",
					"type": "error"
				},
				{
					"inputs": [
						{
							"internalType": "address",
							"name": "account",
							"type": "address"
						}
					],
					"name": "OwnableUnauthorizedAccount",
					"type": "error"
				},
				{
					"anonymous": false,
					"inputs": [
						{
							"indexed": false,
							"internalType": "uint64",
							"name": "version",
							"type": "uint64"
						}
					],
					"name": "Initialized",
					"type": "event"
				},
				{
					"anonymous": false,
					"inputs": [
						{
							"indexed": true,
							"internalType": "address",
							"name": "previousOwner",
							"type": "address"
						},
						{
							"indexed": true,
							"internalType": "address",
							"name": "newOwner",
							"type": "address"
						}
					],
					"name": "OwnershipTransferred",
					"type": "event"
				},
				{
					"anonymous": false,
					"inputs": [
						{
							"indexed": true,
							"internalType": "address",
							"name": "user",
							"type": "address"
						},
						{
							"indexed": false,
							"internalType": "uint256",
							"name": "amount",
							"type": "uint256"
						}
					],
					"name": "RewardsClaimed",
					"type": "event"
				},
				{
					"anonymous": false,
					"inputs": [
						{
							"indexed": true,
							"internalType": "address",
							"name": "user",
							"type": "address"
						},
						{
							"indexed": false,
							"internalType": "uint256",
							"name": "amount",
							"type": "uint256"
						}
					],
					"name": "Staked",
					"type": "event"
				},
				{
					"anonymous": false,
					"inputs": [
						{
							"indexed": true,
							"internalType": "address",
							"name": "user",
							"type": "address"
						},
						{
							"indexed": false,
							"internalType": "uint256",
							"name": "amount",
							"type": "uint256"
						}
					],
					"name": "Withdraw",
					"type": "event"
				},
				{
					"inputs": [],
					"name": "calculateTotalRewards",
					"outputs": [],
					"stateMutability": "nonpayable",
					"type": "function"
				},
				{
					"inputs": [],
					"name": "claimRewards",
					"outputs": [],
					"stateMutability": "nonpayable",
					"type": "function"
				},
				{
					"inputs": [
						{
							"internalType": "address",
							"name": "_StakeToken",
							"type": "address"
						},
						{
							"internalType": "address",
							"name": "_RewardToken",
							"type": "address"
						}
					],
					"name": "initialize",
					"outputs": [],
					"stateMutability": "nonpayable",
					"type": "function"
				},
				{
					"inputs": [],
					"name": "owner",
					"outputs": [
						{
							"internalType": "address",
							"name": "",
							"type": "address"
						}
					],
					"stateMutability": "view",
					"type": "function"
				},
				{
					"inputs": [],
					"name": "renounceOwnership",
					"outputs": [],
					"stateMutability": "nonpayable",
					"type": "function"
				},
				{
					"inputs": [],
					"name": "rewardToken",
					"outputs": [
						{
							"internalType": "contract RewardToken",
							"name": "",
							"type": "address"
						}
					],
					"stateMutability": "view",
					"type": "function"
				},
				{
					"inputs": [
						{
							"internalType": "uint256",
							"name": "amount",
							"type": "uint256"
						}
					],
					"name": "stake",
					"outputs": [],
					"stateMutability": "nonpayable",
					"type": "function"
				},
				{
					"inputs": [],
					"name": "stakeToken",
					"outputs": [
						{
							"internalType": "contract StakeToken",
							"name": "",
							"type": "address"
						}
					],
					"stateMutability": "view",
					"type": "function"
				},
				{
					"inputs": [
						{
							"internalType": "address",
							"name": "newOwner",
							"type": "address"
						}
					],
					"name": "transferOwnership",
					"outputs": [],
					"stateMutability": "nonpayable",
					"type": "function"
				},
				{
					"inputs": [
						{
							"internalType": "address",
							"name": "",
							"type": "address"
						}
					],
					"name": "userRewards",
					"outputs": [
						{
							"internalType": "uint256",
							"name": "",
							"type": "uint256"
						}
					],
					"stateMutability": "view",
					"type": "function"
				},
				{
					"inputs": [
						{
							"internalType": "address",
							"name": "",
							"type": "address"
						}
					],
					"name": "userStaked",
					"outputs": [
						{
							"internalType": "uint256",
							"name": "",
							"type": "uint256"
						}
					],
					"stateMutability": "view",
					"type": "function"
				},
				{
					"inputs": [
						{
							"internalType": "uint256",
							"name": "amount",
							"type": "uint256"
						}
					],
					"name": "withdraw",
					"outputs": [],
					"stateMutability": "nonpayable",
					"type": "function"
				}
			],
			"devdoc": {
				"errors": {
					"InvalidInitialization()": [
						{
							"details": "The contract is already initialized."
						}
					],
					"NotInitializing()": [
						{
							"details": "The contract is not initializing."
						}
					],
					"OwnableInvalidOwner(address)": [
						{
							"details": "The owner is not a valid owner account. (eg. `address(0)`)"
						}
					],
					"OwnableUnauthorizedAccount(address)": [
						{
							"details": "The caller account is not authorized to perform an operation."
						}
					]
				},
				"events": {
					"Initialized(uint64)": {
						"details": "Triggered when the contract has been initialized or reinitialized."
					}
				},
				"kind": "dev",
				"methods": {
					"owner()": {
						"details": "Returns the address of the current owner."
					},
					"renounceOwnership()": {
						"details": "Leaves the contract without owner. It will not be possible to call `onlyOwner` functions. Can only be called by the current owner. NOTE: Renouncing ownership will leave the contract without an owner, thereby disabling any functionality that is only available to the owner."
					},
					"transferOwnership(address)": {
						"details": "Transfers ownership of the contract to a new account (`newOwner`). Can only be called by the current owner."
					}
				},
				"version": 1
			},
			"evm": {
				"assembly": "    /* \"contracts/Staking.sol\":272:3320  contract Staking is Initializable,OwnableUpgradeable{... */\n  mstore(0x40, 0x80)\n  callvalue\n  dup1\n  iszero\n  tag_1\n  jumpi\n  0x00\n  dup1\n  revert\ntag_1:\n  pop\n  dataSize(sub_0)\n  dup1\n  dataOffset(sub_0)\n  0x00\n  codecopy\n  0x00\n  return\nstop\n\nsub_0: assembly {\n        /* \"contracts/Staking.sol\":272:3320  contract Staking is Initializable,OwnableUpgradeable{... */\n      mstore(0x40, 0x80)\n      callvalue\n      dup1\n      iszero\n      tag_1\n      jumpi\n      0x00\n      dup1\n      revert\n    tag_1:\n      pop\n      jumpi(tag_2, lt(calldatasize, 0x04))\n      shr(0xe0, calldataload(0x00))\n      dup1\n      0x8da5cb5b\n      gt\n      tag_15\n      jumpi\n      dup1\n      0x8da5cb5b\n      eq\n      tag_9\n      jumpi\n      dup1\n      0xa694fc3a\n      eq\n      tag_10\n      jumpi\n      dup1\n      0xacc3a939\n      eq\n      tag_11\n      jumpi\n      dup1\n      0xba5a5319\n      eq\n      tag_12\n      jumpi\n      dup1\n      0xf2fde38b\n      eq\n      tag_13\n      jumpi\n      dup1\n      0xf7c618c1\n      eq\n      tag_14\n      jumpi\n      jump(tag_2)\n    tag_15:\n      dup1\n      0x0660f1e8\n      eq\n      tag_3\n      jumpi\n      dup1\n      0x2e1a7d4d\n      eq\n      tag_4\n      jumpi\n      dup1\n      0x372500ab\n      eq\n      tag_5\n      jumpi\n      dup1\n      0x485cc955\n      eq\n      tag_6\n      jumpi\n      dup1\n      0x51ed6a30\n      eq\n      tag_7\n      jumpi\n      dup1\n      0x715018a6\n      eq\n      tag_8\n      jumpi\n    tag_2:\n      0x00\n      dup1\n      revert\n        /* \"contracts/Staking.sol\":991:1032  mapping(address=>uint) public userRewards */\n    tag_3:\n      tag_16\n      0x04\n      dup1\n      calldatasize\n      sub\n      dup2\n      add\n      swap1\n      tag_17\n      swap2\n      swap1\n      tag_18\n      jump\t// in\n    tag_17:\n      tag_19\n      jump\t// in\n    tag_16:\n      mload(0x40)\n      tag_20\n      swap2\n      swap1\n      tag_21\n      jump\t// in\n    tag_20:\n      mload(0x40)\n      dup1\n      swap2\n      sub\n      swap1\n      return\n        /* \"contracts/Staking.sol\":2065:2462  function withdraw(uint amount) public{... */\n    tag_4:\n      tag_22\n      0x04\n      dup1\n      calldatasize\n      sub\n      dup2\n      add\n      swap1\n      tag_23\n      swap2\n      swap1\n      tag_24\n      jump\t// in\n    tag_23:\n      tag_25\n      jump\t// in\n    tag_22:\n      stop\n        /* \"contracts/Staking.sol\":2999:3317  function claimRewards() public{... */\n    tag_5:\n      tag_26\n      tag_27\n      jump\t// in\n    tag_26:\n      stop\n        /* \"contracts/Staking.sol\":717:936  function initialize(address _StakeToken, address _RewardToken) public initializer{... */\n    tag_6:\n      tag_28\n      0x04\n      dup1\n      calldatasize\n      sub\n      dup2\n      add\n      swap1\n      tag_29\n      swap2\n      swap1\n      tag_30\n      jump\t// in\n    tag_29:\n      tag_31\n      jump\t// in\n    tag_28:\n      stop\n        /* \"contracts/Staking.sol\":331:359  StakeToken public stakeToken */\n    tag_7:\n      tag_32\n      tag_33\n      jump\t// in\n    tag_32:\n      mload(0x40)\n      tag_34\n      swap2\n      swap1\n      tag_35\n      jump\t// in\n    tag_34:\n      mload(0x40)\n      dup1\n      swap2\n      sub\n      swap1\n      return\n        /* \"@openzeppelin/contracts-upgradeable/access/OwnableUpgradeable.sol\":3155:3256  function renounceOwnership() public virtual onlyOwner {... */\n    tag_8:\n      tag_36\n      tag_37\n      jump\t// in\n    tag_36:\n      stop\n        /* \"@openzeppelin/contracts-upgradeable/access/OwnableUpgradeable.sol\":2441:2585  function owner() public view virtual returns (address) {... */\n    tag_9:\n      tag_38\n      tag_39\n      jump\t// in\n    tag_38:\n      mload(0x40)\n      tag_40\n      swap2\n      swap1\n      tag_41\n      jump\t// in\n    tag_40:\n      mload(0x40)\n      dup1\n      swap2\n      sub\n      swap1\n      return\n        /* \"contracts/Staking.sol\":1283:2018  function stake(uint amount) public{... */\n    tag_10:\n      tag_42\n      0x04\n      dup1\n      calldatasize\n      sub\n      dup2\n      add\n      swap1\n      tag_43\n      swap2\n      swap1\n      tag_24\n      jump\t// in\n    tag_43:\n      tag_44\n      jump\t// in\n    tag_42:\n      stop\n        /* \"contracts/Staking.sol\":944:984  mapping(address=>uint) public userStaked */\n    tag_11:\n      tag_45\n      0x04\n      dup1\n      calldatasize\n      sub\n      dup2\n      add\n      swap1\n      tag_46\n      swap2\n      swap1\n      tag_18\n      jump\t// in\n    tag_46:\n      tag_47\n      jump\t// in\n    tag_45:\n      mload(0x40)\n      tag_48\n      swap2\n      swap1\n      tag_21\n      jump\t// in\n    tag_48:\n      mload(0x40)\n      dup1\n      swap2\n      sub\n      swap1\n      return\n        /* \"contracts/Staking.sol\":2558:2952  function calculateTotalRewards() public{... */\n    tag_12:\n      tag_49\n      tag_50\n      jump\t// in\n    tag_49:\n      stop\n        /* \"@openzeppelin/contracts-upgradeable/access/OwnableUpgradeable.sol\":3405:3620  function transferOwnership(address newOwner) public virtual onlyOwner {... */\n    tag_13:\n      tag_51\n      0x04\n      dup1\n      calldatasize\n      sub\n      dup2\n      add\n      swap1\n      tag_52\n      swap2\n      swap1\n      tag_18\n      jump\t// in\n    tag_52:\n      tag_53\n      jump\t// in\n    tag_51:\n      stop\n        /* \"contracts/Staking.sol\":366:396  RewardToken public rewardToken */\n    tag_14:\n      tag_54\n      tag_55\n      jump\t// in\n    tag_54:\n      mload(0x40)\n      tag_56\n      swap2\n      swap1\n      tag_57\n      jump\t// in\n    tag_56:\n      mload(0x40)\n      dup1\n      swap2\n      sub\n      swap1\n      return\n        /* \"contracts/Staking.sol\":991:1032  mapping(address=>uint) public userRewards */\n    tag_19:\n      mstore(0x20, 0x04)\n      dup1\n      0x00\n      mstore\n      keccak256(0x00, 0x40)\n      0x00\n      swap2\n      pop\n      swap1\n      pop\n      sload\n      dup2\n      jump\t// out\n        /* \"contracts/Staking.sol\":2065:2462  function withdraw(uint amount) public{... */\n    tag_25:\n        /* \"contracts/Staking.sol\":2144:2145  0 */\n      0x00\n        /* \"contracts/Staking.sol\":2121:2131  userStaked */\n      0x03\n        /* \"contracts/Staking.sol\":2121:2143  userStaked[msg.sender] */\n      0x00\n        /* \"contracts/Staking.sol\":2132:2142  msg.sender */\n      caller\n        /* \"contracts/Staking.sol\":2121:2143  userStaked[msg.sender] */\n      0xffffffffffffffffffffffffffffffffffffffff\n      and\n      0xffffffffffffffffffffffffffffffffffffffff\n      and\n      dup2\n      mstore\n      0x20\n      add\n      swap1\n      dup2\n      mstore\n      0x20\n      add\n      0x00\n      keccak256\n      sload\n        /* \"contracts/Staking.sol\":2121:2145  userStaked[msg.sender]>0 */\n      gt\n        /* \"contracts/Staking.sol\":2113:2176  require(userStaked[msg.sender]>0,\"Insufficient staked balance\") */\n      tag_59\n      jumpi\n      mload(0x40)\n      0x08c379a000000000000000000000000000000000000000000000000000000000\n      dup2\n      mstore\n      0x04\n      add\n      tag_60\n      swap1\n      tag_61\n      jump\t// in\n    tag_60:\n      mload(0x40)\n      dup1\n      swap2\n      sub\n      swap1\n      revert\n    tag_59:\n        /* \"contracts/Staking.sol\":2187:2210  calculateTotalRewards() */\n      tag_62\n        /* \"contracts/Staking.sol\":2187:2208  calculateTotalRewards */\n      tag_50\n        /* \"contracts/Staking.sol\":2187:2210  calculateTotalRewards() */\n      jump\t// in\n    tag_62:\n        /* \"contracts/Staking.sol\":2267:2273  amount */\n      dup1\n        /* \"contracts/Staking.sol\":2244:2254  userStaked */\n      0x03\n        /* \"contracts/Staking.sol\":2244:2266  userStaked[msg.sender] */\n      0x00\n        /* \"contracts/Staking.sol\":2255:2265  msg.sender */\n      caller\n        /* \"contracts/Staking.sol\":2244:2266  userStaked[msg.sender] */\n      0xffffffffffffffffffffffffffffffffffffffff\n      and\n      0xffffffffffffffffffffffffffffffffffffffff\n      and\n      dup2\n      mstore\n      0x20\n      add\n      swap1\n      dup2\n      mstore\n      0x20\n      add\n      0x00\n      keccak256\n      sload\n        /* \"contracts/Staking.sol\":2244:2273  userStaked[msg.sender]-amount */\n      tag_63\n      swap2\n      swap1\n      tag_64\n      jump\t// in\n    tag_63:\n        /* \"contracts/Staking.sol\":2221:2231  userStaked */\n      0x03\n        /* \"contracts/Staking.sol\":2221:2243  userStaked[msg.sender] */\n      0x00\n        /* \"contracts/Staking.sol\":2232:2242  msg.sender */\n      caller\n        /* \"contracts/Staking.sol\":2221:2243  userStaked[msg.sender] */\n      0xffffffffffffffffffffffffffffffffffffffff\n      and\n      0xffffffffffffffffffffffffffffffffffffffff\n      and\n      dup2\n      mstore\n      0x20\n      add\n      swap1\n      dup2\n      mstore\n      0x20\n      add\n      0x00\n      keccak256\n        /* \"contracts/Staking.sol\":2221:2273  userStaked[msg.sender]=userStaked[msg.sender]-amount */\n      dup2\n      swap1\n      sstore\n      pop\n        /* \"contracts/Staking.sol\":2284:2294  stakeToken */\n      0x00\n      dup1\n      sload\n      swap1\n      0x0100\n      exp\n      swap1\n      div\n      0xffffffffffffffffffffffffffffffffffffffff\n      and\n        /* \"contracts/Staking.sol\":2284:2303  stakeToken.transfer */\n      0xffffffffffffffffffffffffffffffffffffffff\n      and\n      0xa9059cbb\n        /* \"contracts/Staking.sol\":2304:2314  msg.sender */\n      caller\n        /* \"contracts/Staking.sol\":2315:2321  amount */\n      dup4\n        /* \"contracts/Staking.sol\":2284:2322  stakeToken.transfer(msg.sender,amount) */\n      mload(0x40)\n      dup4\n      0xffffffff\n      and\n      0xe0\n      shl\n      dup2\n      mstore\n      0x04\n      add\n      tag_65\n      swap3\n      swap2\n      swap1\n      tag_66\n      jump\t// in\n    tag_65:\n      0x20\n      mload(0x40)\n      dup1\n      dup4\n      sub\n      dup2\n      0x00\n      dup8\n      gas\n      call\n      iszero\n      dup1\n      iszero\n      tag_68\n      jumpi\n      returndatasize\n      0x00\n      dup1\n      returndatacopy\n      revert(0x00, returndatasize)\n    tag_68:\n      pop\n      pop\n      pop\n      pop\n      mload(0x40)\n      returndatasize\n      not(0x1f)\n      0x1f\n      dup3\n      add\n      and\n      dup3\n      add\n      dup1\n      0x40\n      mstore\n      pop\n      dup2\n      add\n      swap1\n      tag_69\n      swap2\n      swap1\n      tag_70\n      jump\t// in\n    tag_69:\n      pop\n        /* \"contracts/Staking.sol\":2349:2364  block.timestamp */\n      timestamp\n        /* \"contracts/Staking.sol\":2333:2348  lastUpdatedTime */\n      0x02\n        /* \"contracts/Staking.sol\":2333:2364  lastUpdatedTime=block.timestamp */\n      dup2\n      swap1\n      sstore\n      pop\n        /* \"contracts/Staking.sol\":2436:2446  msg.sender */\n      caller\n        /* \"contracts/Staking.sol\":2427:2454  Withdraw(msg.sender,amount) */\n      0xffffffffffffffffffffffffffffffffffffffff\n      and\n      0x884edad9ce6fa2440d8a54cc123490eb96d2768479d49ff9c7366125a9424364\n        /* \"contracts/Staking.sol\":2447:2453  amount */\n      dup3\n        /* \"contracts/Staking.sol\":2427:2454  Withdraw(msg.sender,amount) */\n      mload(0x40)\n      tag_71\n      swap2\n      swap1\n      tag_21\n      jump\t// in\n    tag_71:\n      mload(0x40)\n      dup1\n      swap2\n      sub\n      swap1\n      log2\n        /* \"contracts/Staking.sol\":2065:2462  function withdraw(uint amount) public{... */\n      pop\n      jump\t// out\n        /* \"contracts/Staking.sol\":2999:3317  function claimRewards() public{... */\n    tag_27:\n        /* \"contracts/Staking.sol\":3072:3073  0 */\n      0x00\n        /* \"contracts/Staking.sol\":3048:3059  userRewards */\n      0x04\n        /* \"contracts/Staking.sol\":3048:3071  userRewards[msg.sender] */\n      0x00\n        /* \"contracts/Staking.sol\":3060:3070  msg.sender */\n      caller\n        /* \"contracts/Staking.sol\":3048:3071  userRewards[msg.sender] */\n      0xffffffffffffffffffffffffffffffffffffffff\n      and\n      0xffffffffffffffffffffffffffffffffffffffff\n      and\n      dup2\n      mstore\n      0x20\n      add\n      swap1\n      dup2\n      mstore\n      0x20\n      add\n      0x00\n      keccak256\n      sload\n        /* \"contracts/Staking.sol\":3048:3073  userRewards[msg.sender]>0 */\n      gt\n        /* \"contracts/Staking.sol\":3040:3096  require(userRewards[msg.sender]>0,\"No rewards to claim\") */\n      tag_73\n      jumpi\n      mload(0x40)\n      0x08c379a000000000000000000000000000000000000000000000000000000000\n      dup2\n      mstore\n      0x04\n      add\n      tag_74\n      swap1\n      tag_75\n      jump\t// in\n    tag_74:\n      mload(0x40)\n      dup1\n      swap2\n      sub\n      swap1\n      revert\n    tag_73:\n        /* \"contracts/Staking.sol\":3107:3118  rewardToken */\n      0x01\n      0x00\n      swap1\n      sload\n      swap1\n      0x0100\n      exp\n      swap1\n      div\n      0xffffffffffffffffffffffffffffffffffffffff\n      and\n        /* \"contracts/Staking.sol\":3107:3127  rewardToken.transfer */\n      0xffffffffffffffffffffffffffffffffffffffff\n      and\n      0xa9059cbb\n        /* \"contracts/Staking.sol\":3128:3138  msg.sender */\n      caller\n        /* \"contracts/Staking.sol\":3139:3150  userRewards */\n      0x04\n        /* \"contracts/Staking.sol\":3139:3162  userRewards[msg.sender] */\n      0x00\n        /* \"contracts/Staking.sol\":3151:3161  msg.sender */\n      caller\n        /* \"contracts/Staking.sol\":3139:3162  userRewards[msg.sender] */\n      0xffffffffffffffffffffffffffffffffffffffff\n      and\n      0xffffffffffffffffffffffffffffffffffffffff\n      and\n      dup2\n      mstore\n      0x20\n      add\n      swap1\n      dup2\n      mstore\n      0x20\n      add\n      0x00\n      keccak256\n      sload\n        /* \"contracts/Staking.sol\":3107:3163  rewardToken.transfer(msg.sender,userRewards[msg.sender]) */\n      mload(0x40)\n      dup4\n      0xffffffff\n      and\n      0xe0\n      shl\n      dup2\n      mstore\n      0x04\n      add\n      tag_76\n      swap3\n      swap2\n      swap1\n      tag_66\n      jump\t// in\n    tag_76:\n      0x20\n      mload(0x40)\n      dup1\n      dup4\n      sub\n      dup2\n      0x00\n      dup8\n      gas\n      call\n      iszero\n      dup1\n      iszero\n      tag_78\n      jumpi\n      returndatasize\n      0x00\n      dup1\n      returndatacopy\n      revert(0x00, returndatasize)\n    tag_78:\n      pop\n      pop\n      pop\n      pop\n      mload(0x40)\n      returndatasize\n      not(0x1f)\n      0x1f\n      dup3\n      add\n      and\n      dup3\n      add\n      dup1\n      0x40\n      mstore\n      pop\n      dup2\n      add\n      swap1\n      tag_79\n      swap2\n      swap1\n      tag_70\n      jump\t// in\n    tag_79:\n      pop\n        /* \"contracts/Staking.sol\":3238:3248  msg.sender */\n      caller\n        /* \"contracts/Staking.sol\":3223:3273  RewardsClaimed(msg.sender,userRewards[msg.sender]) */\n      0xffffffffffffffffffffffffffffffffffffffff\n      and\n      0xfc30cddea38e2bf4d6ea7d3f9ed3b6ad7f176419f4963bd81318067a4aee73fe\n        /* \"contracts/Staking.sol\":3249:3260  userRewards */\n      0x04\n        /* \"contracts/Staking.sol\":3249:3272  userRewards[msg.sender] */\n      0x00\n        /* \"contracts/Staking.sol\":3261:3271  msg.sender */\n      caller\n        /* \"contracts/Staking.sol\":3249:3272  userRewards[msg.sender] */\n      0xffffffffffffffffffffffffffffffffffffffff\n      and\n      0xffffffffffffffffffffffffffffffffffffffff\n      and\n      dup2\n      mstore\n      0x20\n      add\n      swap1\n      dup2\n      mstore\n      0x20\n      add\n      0x00\n      keccak256\n      sload\n        /* \"contracts/Staking.sol\":3223:3273  RewardsClaimed(msg.sender,userRewards[msg.sender]) */\n      mload(0x40)\n      tag_80\n      swap2\n      swap1\n      tag_21\n      jump\t// in\n    tag_80:\n      mload(0x40)\n      dup1\n      swap2\n      sub\n      swap1\n      log2\n        /* \"contracts/Staking.sol\":3308:3309  0 */\n      0x00\n        /* \"contracts/Staking.sol\":3284:3295  userRewards */\n      0x04\n        /* \"contracts/Staking.sol\":3284:3307  userRewards[msg.sender] */\n      0x00\n        /* \"contracts/Staking.sol\":3296:3306  msg.sender */\n      caller\n        /* \"contracts/Staking.sol\":3284:3307  userRewards[msg.sender] */\n      0xffffffffffffffffffffffffffffffffffffffff\n      and\n      0xffffffffffffffffffffffffffffffffffffffff\n      and\n      dup2\n      mstore\n      0x20\n      add\n      swap1\n      dup2\n      mstore\n      0x20\n      add\n      0x00\n      keccak256\n        /* \"contracts/Staking.sol\":3284:3309  userRewards[msg.sender]=0 */\n      dup2\n      swap1\n      sstore\n      pop\n        /* \"contracts/Staking.sol\":2999:3317  function claimRewards() public{... */\n      jump\t// out\n        /* \"contracts/Staking.sol\":717:936  function initialize(address _StakeToken, address _RewardToken) public initializer{... */\n    tag_31:\n        /* \"@openzeppelin/contracts-upgradeable/proxy/utils/Initializable.sol\":4158:4188  InitializableStorage storage $ */\n      0x00\n        /* \"@openzeppelin/contracts-upgradeable/proxy/utils/Initializable.sol\":4191:4217  _getInitializableStorage() */\n      tag_82\n        /* \"@openzeppelin/contracts-upgradeable/proxy/utils/Initializable.sol\":4191:4215  _getInitializableStorage */\n      tag_83\n        /* \"@openzeppelin/contracts-upgradeable/proxy/utils/Initializable.sol\":4191:4217  _getInitializableStorage() */\n      jump\t// in\n    tag_82:\n        /* \"@openzeppelin/contracts-upgradeable/proxy/utils/Initializable.sol\":4158:4217  InitializableStorage storage $ = _getInitializableStorage() */\n      swap1\n      pop\n        /* \"@openzeppelin/contracts-upgradeable/proxy/utils/Initializable.sol\":4279:4298  bool isTopLevelCall */\n      0x00\n        /* \"@openzeppelin/contracts-upgradeable/proxy/utils/Initializable.sol\":4302:4303  $ */\n      dup2\n        /* \"@openzeppelin/contracts-upgradeable/proxy/utils/Initializable.sol\":4302:4317  $._initializing */\n      0x00\n      add\n      0x08\n      swap1\n      sload\n      swap1\n      0x0100\n      exp\n      swap1\n      div\n      0xff\n      and\n        /* \"@openzeppelin/contracts-upgradeable/proxy/utils/Initializable.sol\":4301:4317  !$._initializing */\n      iszero\n        /* \"@openzeppelin/contracts-upgradeable/proxy/utils/Initializable.sol\":4279:4317  bool isTopLevelCall = !$._initializing */\n      swap1\n      pop\n        /* \"@openzeppelin/contracts-upgradeable/proxy/utils/Initializable.sol\":4327:4345  uint64 initialized */\n      0x00\n        /* \"@openzeppelin/contracts-upgradeable/proxy/utils/Initializable.sol\":4348:4349  $ */\n      dup3\n        /* \"@openzeppelin/contracts-upgradeable/proxy/utils/Initializable.sol\":4348:4362  $._initialized */\n      0x00\n      add\n      0x00\n      swap1\n      sload\n      swap1\n      0x0100\n      exp\n      swap1\n      div\n      0xffffffffffffffff\n      and\n        /* \"@openzeppelin/contracts-upgradeable/proxy/utils/Initializable.sol\":4327:4362  uint64 initialized = $._initialized */\n      swap1\n      pop\n        /* \"@openzeppelin/contracts-upgradeable/proxy/utils/Initializable.sol\":4706:4723  bool initialSetup */\n      0x00\n        /* \"@openzeppelin/contracts-upgradeable/proxy/utils/Initializable.sol\":4741:4742  0 */\n      dup1\n        /* \"@openzeppelin/contracts-upgradeable/proxy/utils/Initializable.sol\":4726:4737  initialized */\n      dup3\n        /* \"@openzeppelin/contracts-upgradeable/proxy/utils/Initializable.sol\":4726:4742  initialized == 0 */\n      0xffffffffffffffff\n      and\n      eq\n        /* \"@openzeppelin/contracts-upgradeable/proxy/utils/Initializable.sol\":4726:4760  initialized == 0 && isTopLevelCall */\n      dup1\n      iszero\n      tag_84\n      jumpi\n      pop\n        /* \"@openzeppelin/contracts-upgradeable/proxy/utils/Initializable.sol\":4746:4760  isTopLevelCall */\n      dup3\n        /* \"@openzeppelin/contracts-upgradeable/proxy/utils/Initializable.sol\":4726:4760  initialized == 0 && isTopLevelCall */\n    tag_84:\n        /* \"@openzeppelin/contracts-upgradeable/proxy/utils/Initializable.sol\":4706:4760  bool initialSetup = initialized == 0 && isTopLevelCall */\n      swap1\n      pop\n        /* \"@openzeppelin/contracts-upgradeable/proxy/utils/Initializable.sol\":4770:4787  bool construction */\n      0x00\n        /* \"@openzeppelin/contracts-upgradeable/proxy/utils/Initializable.sol\":4805:4806  1 */\n      0x01\n        /* \"@openzeppelin/contracts-upgradeable/proxy/utils/Initializable.sol\":4790:4801  initialized */\n      dup4\n        /* \"@openzeppelin/contracts-upgradeable/proxy/utils/Initializable.sol\":4790:4806  initialized == 1 */\n      0xffffffffffffffff\n      and\n      eq\n        /* \"@openzeppelin/contracts-upgradeable/proxy/utils/Initializable.sol\":4790:4840  initialized == 1 && address(this).code.length == 0 */\n      dup1\n      iszero\n      tag_85\n      jumpi\n      pop\n        /* \"@openzeppelin/contracts-upgradeable/proxy/utils/Initializable.sol\":4839:4840  0 */\n      0x00\n        /* \"@openzeppelin/contracts-upgradeable/proxy/utils/Initializable.sol\":4818:4822  this */\n      address\n        /* \"@openzeppelin/contracts-upgradeable/proxy/utils/Initializable.sol\":4810:4835  address(this).code.length */\n      0xffffffffffffffffffffffffffffffffffffffff\n      and\n      extcodesize\n        /* \"@openzeppelin/contracts-upgradeable/proxy/utils/Initializable.sol\":4810:4840  address(this).code.length == 0 */\n      eq\n        /* \"@openzeppelin/contracts-upgradeable/proxy/utils/Initializable.sol\":4790:4840  initialized == 1 && address(this).code.length == 0 */\n    tag_85:\n        /* \"@openzeppelin/contracts-upgradeable/proxy/utils/Initializable.sol\":4770:4840  bool construction = initialized == 1 && address(this).code.length == 0 */\n      swap1\n      pop\n        /* \"@openzeppelin/contracts-upgradeable/proxy/utils/Initializable.sol\":4856:4868  initialSetup */\n      dup2\n        /* \"@openzeppelin/contracts-upgradeable/proxy/utils/Initializable.sol\":4855:4868  !initialSetup */\n      iszero\n        /* \"@openzeppelin/contracts-upgradeable/proxy/utils/Initializable.sol\":4855:4885  !initialSetup && !construction */\n      dup1\n      iszero\n      tag_86\n      jumpi\n      pop\n        /* \"@openzeppelin/contracts-upgradeable/proxy/utils/Initializable.sol\":4873:4885  construction */\n      dup1\n        /* \"@openzeppelin/contracts-upgradeable/proxy/utils/Initializable.sol\":4872:4885  !construction */\n      iszero\n        /* \"@openzeppelin/contracts-upgradeable/proxy/utils/Initializable.sol\":4855:4885  !initialSetup && !construction */\n    tag_86:\n        /* \"@openzeppelin/contracts-upgradeable/proxy/utils/Initializable.sol\":4851:4942  if (!initialSetup && !construction) {... */\n      iszero\n      tag_87\n      jumpi\n        /* \"@openzeppelin/contracts-upgradeable/proxy/utils/Initializable.sol\":4908:4931  InvalidInitialization() */\n      mload(0x40)\n      0xf92ee8a900000000000000000000000000000000000000000000000000000000\n      dup2\n      mstore\n      0x04\n      add\n      mload(0x40)\n      dup1\n      swap2\n      sub\n      swap1\n      revert\n        /* \"@openzeppelin/contracts-upgradeable/proxy/utils/Initializable.sol\":4851:4942  if (!initialSetup && !construction) {... */\n    tag_87:\n        /* \"@openzeppelin/contracts-upgradeable/proxy/utils/Initializable.sol\":4968:4969  1 */\n      0x01\n        /* \"@openzeppelin/contracts-upgradeable/proxy/utils/Initializable.sol\":4951:4952  $ */\n      dup6\n        /* \"@openzeppelin/contracts-upgradeable/proxy/utils/Initializable.sol\":4951:4965  $._initialized */\n      0x00\n      add\n      0x00\n        /* \"@openzeppelin/contracts-upgradeable/proxy/utils/Initializable.sol\":4951:4969  $._initialized = 1 */\n      0x0100\n      exp\n      dup2\n      sload\n      dup2\n      0xffffffffffffffff\n      mul\n      not\n      and\n      swap1\n      dup4\n      0xffffffffffffffff\n      and\n      mul\n      or\n      swap1\n      sstore\n      pop\n        /* \"@openzeppelin/contracts-upgradeable/proxy/utils/Initializable.sol\":4983:4997  isTopLevelCall */\n      dup4\n        /* \"@openzeppelin/contracts-upgradeable/proxy/utils/Initializable.sol\":4979:5046  if (isTopLevelCall) {... */\n      iszero\n      tag_88\n      jumpi\n        /* \"@openzeppelin/contracts-upgradeable/proxy/utils/Initializable.sol\":5031:5035  true */\n      0x01\n        /* \"@openzeppelin/contracts-upgradeable/proxy/utils/Initializable.sol\":5013:5014  $ */\n      dup6\n        /* \"@openzeppelin/contracts-upgradeable/proxy/utils/Initializable.sol\":5013:5028  $._initializing */\n      0x00\n      add\n      0x08\n        /* \"@openzeppelin/contracts-upgradeable/proxy/utils/Initializable.sol\":5013:5035  $._initializing = true */\n      0x0100\n      exp\n      dup2\n      sload\n      dup2\n      0xff\n      mul\n      not\n      and\n      swap1\n      dup4\n      iszero\n      iszero\n      mul\n      or\n      swap1\n      sstore\n      pop\n        /* \"@openzeppelin/contracts-upgradeable/proxy/utils/Initializable.sol\":4979:5046  if (isTopLevelCall) {... */\n    tag_88:\n        /* \"contracts/Staking.sol\":831:842  _StakeToken */\n      dup7\n        /* \"contracts/Staking.sol\":809:819  stakeToken */\n      0x00\n      dup1\n        /* \"contracts/Staking.sol\":809:843  stakeToken=StakeToken(_StakeToken) */\n      0x0100\n      exp\n      dup2\n      sload\n      dup2\n      0xffffffffffffffffffffffffffffffffffffffff\n      mul\n      not\n      and\n      swap1\n      dup4\n      0xffffffffffffffffffffffffffffffffffffffff\n      and\n      mul\n      or\n      swap1\n      sstore\n      pop\n        /* \"contracts/Staking.sol\":878:890  _RewardToken */\n      dup6\n        /* \"contracts/Staking.sol\":854:865  rewardToken */\n      0x01\n      0x00\n        /* \"contracts/Staking.sol\":854:891  rewardToken=RewardToken(_RewardToken) */\n      0x0100\n      exp\n      dup2\n      sload\n      dup2\n      0xffffffffffffffffffffffffffffffffffffffff\n      mul\n      not\n      and\n      swap1\n      dup4\n      0xffffffffffffffffffffffffffffffffffffffff\n      and\n      mul\n      or\n      swap1\n      sstore\n      pop\n        /* \"contracts/Staking.sol\":902:928  __Ownable_init(msg.sender) */\n      tag_90\n        /* \"contracts/Staking.sol\":917:927  msg.sender */\n      caller\n        /* \"contracts/Staking.sol\":902:916  __Ownable_init */\n      tag_91\n        /* \"contracts/Staking.sol\":902:928  __Ownable_init(msg.sender) */\n      jump\t// in\n    tag_90:\n        /* \"@openzeppelin/contracts-upgradeable/proxy/utils/Initializable.sol\":5070:5084  isTopLevelCall */\n      dup4\n        /* \"@openzeppelin/contracts-upgradeable/proxy/utils/Initializable.sol\":5066:5167  if (isTopLevelCall) {... */\n      iszero\n      tag_92\n      jumpi\n        /* \"@openzeppelin/contracts-upgradeable/proxy/utils/Initializable.sol\":5118:5123  false */\n      0x00\n        /* \"@openzeppelin/contracts-upgradeable/proxy/utils/Initializable.sol\":5100:5101  $ */\n      dup6\n        /* \"@openzeppelin/contracts-upgradeable/proxy/utils/Initializable.sol\":5100:5115  $._initializing */\n      0x00\n      add\n      0x08\n        /* \"@openzeppelin/contracts-upgradeable/proxy/utils/Initializable.sol\":5100:5123  $._initializing = false */\n      0x0100\n      exp\n      dup2\n      sload\n      dup2\n      0xff\n      mul\n      not\n      and\n      swap1\n      dup4\n      iszero\n      iszero\n      mul\n      or\n      swap1\n      sstore\n      pop\n        /* \"@openzeppelin/contracts-upgradeable/proxy/utils/Initializable.sol\":5142:5156  Initialized(1) */\n      0xc7f505b2f371ae2175ee4913f4499e1f2633a7b5936321eed1cdaeb6115181d2\n        /* \"@openzeppelin/contracts-upgradeable/proxy/utils/Initializable.sol\":5154:5155  1 */\n      0x01\n        /* \"@openzeppelin/contracts-upgradeable/proxy/utils/Initializable.sol\":5142:5156  Initialized(1) */\n      mload(0x40)\n      tag_93\n      swap2\n      swap1\n      tag_94\n      jump\t// in\n    tag_93:\n      mload(0x40)\n      dup1\n      swap2\n      sub\n      swap1\n      log1\n        /* \"@openzeppelin/contracts-upgradeable/proxy/utils/Initializable.sol\":5066:5167  if (isTopLevelCall) {... */\n    tag_92:\n        /* \"@openzeppelin/contracts-upgradeable/proxy/utils/Initializable.sol\":4092:5173  {... */\n      pop\n      pop\n      pop\n      pop\n      pop\n        /* \"contracts/Staking.sol\":717:936  function initialize(address _StakeToken, address _RewardToken) public initializer{... */\n      pop\n      pop\n      jump\t// out\n        /* \"contracts/Staking.sol\":331:359  StakeToken public stakeToken */\n    tag_33:\n      0x00\n      dup1\n      sload\n      swap1\n      0x0100\n      exp\n      swap1\n      div\n      0xffffffffffffffffffffffffffffffffffffffff\n      and\n      dup2\n      jump\t// out\n        /* \"@openzeppelin/contracts-upgradeable/access/OwnableUpgradeable.sol\":3155:3256  function renounceOwnership() public virtual onlyOwner {... */\n    tag_37:\n        /* \"@openzeppelin/contracts-upgradeable/access/OwnableUpgradeable.sol\":2334:2347  _checkOwner() */\n      tag_96\n        /* \"@openzeppelin/contracts-upgradeable/access/OwnableUpgradeable.sol\":2334:2345  _checkOwner */\n      tag_97\n        /* \"@openzeppelin/contracts-upgradeable/access/OwnableUpgradeable.sol\":2334:2347  _checkOwner() */\n      jump\t// in\n    tag_96:\n        /* \"@openzeppelin/contracts-upgradeable/access/OwnableUpgradeable.sol\":3219:3249  _transferOwnership(address(0)) */\n      tag_99\n        /* \"@openzeppelin/contracts-upgradeable/access/OwnableUpgradeable.sol\":3246:3247  0 */\n      0x00\n        /* \"@openzeppelin/contracts-upgradeable/access/OwnableUpgradeable.sol\":3219:3237  _transferOwnership */\n      tag_100\n        /* \"@openzeppelin/contracts-upgradeable/access/OwnableUpgradeable.sol\":3219:3249  _transferOwnership(address(0)) */\n      jump\t// in\n    tag_99:\n        /* \"@openzeppelin/contracts-upgradeable/access/OwnableUpgradeable.sol\":3155:3256  function renounceOwnership() public virtual onlyOwner {... */\n      jump\t// out\n        /* \"@openzeppelin/contracts-upgradeable/access/OwnableUpgradeable.sol\":2441:2585  function owner() public view virtual returns (address) {... */\n    tag_39:\n        /* \"@openzeppelin/contracts-upgradeable/access/OwnableUpgradeable.sol\":2487:2494  address */\n      0x00\n        /* \"@openzeppelin/contracts-upgradeable/access/OwnableUpgradeable.sol\":2506:2530  OwnableStorage storage $ */\n      dup1\n        /* \"@openzeppelin/contracts-upgradeable/access/OwnableUpgradeable.sol\":2533:2553  _getOwnableStorage() */\n      tag_102\n        /* \"@openzeppelin/contracts-upgradeable/access/OwnableUpgradeable.sol\":2533:2551  _getOwnableStorage */\n      tag_103\n        /* \"@openzeppelin/contracts-upgradeable/access/OwnableUpgradeable.sol\":2533:2553  _getOwnableStorage() */\n      jump\t// in\n    tag_102:\n        /* \"@openzeppelin/contracts-upgradeable/access/OwnableUpgradeable.sol\":2506:2553  OwnableStorage storage $ = _getOwnableStorage() */\n      swap1\n      pop\n        /* \"@openzeppelin/contracts-upgradeable/access/OwnableUpgradeable.sol\":2570:2571  $ */\n      dup1\n        /* \"@openzeppelin/contracts-upgradeable/access/OwnableUpgradeable.sol\":2570:2578  $._owner */\n      0x00\n      add\n      0x00\n      swap1\n      sload\n      swap1\n      0x0100\n      exp\n      swap1\n      div\n      0xffffffffffffffffffffffffffffffffffffffff\n      and\n        /* \"@openzeppelin/contracts-upgradeable/access/OwnableUpgradeable.sol\":2563:2578  return $._owner */\n      swap2\n      pop\n      pop\n        /* \"@openzeppelin/contracts-upgradeable/access/OwnableUpgradeable.sol\":2441:2585  function owner() public view virtual returns (address) {... */\n      swap1\n      jump\t// out\n        /* \"contracts/Staking.sol\":1283:2018  function stake(uint amount) public{... */\n    tag_44:\n        /* \"contracts/Staking.sol\":1343:1344  0 */\n      0x00\n        /* \"contracts/Staking.sol\":1336:1342  amount */\n      dup2\n        /* \"contracts/Staking.sol\":1336:1344  amount>0 */\n      gt\n        /* \"contracts/Staking.sol\":1328:1393  require(amount>0,\"The amount should be always greater than zero\") */\n      tag_105\n      jumpi\n      mload(0x40)\n      0x08c379a000000000000000000000000000000000000000000000000000000000\n      dup2\n      mstore\n      0x04\n      add\n      tag_106\n      swap1\n      tag_107\n      jump\t// in\n    tag_106:\n      mload(0x40)\n      dup1\n      swap2\n      sub\n      swap1\n      revert\n    tag_105:\n        /* \"contracts/Staking.sol\":1503:1509  amount */\n      dup1\n        /* \"contracts/Staking.sol\":1455:1465  stakeToken */\n      0x00\n      dup1\n      sload\n      swap1\n      0x0100\n      exp\n      swap1\n      div\n      0xffffffffffffffffffffffffffffffffffffffff\n      and\n        /* \"contracts/Staking.sol\":1455:1475  stakeToken.allowance */\n      0xffffffffffffffffffffffffffffffffffffffff\n      and\n      0xdd62ed3e\n        /* \"contracts/Staking.sol\":1476:1486  msg.sender */\n      caller\n        /* \"contracts/Staking.sol\":1495:1499  this */\n      address\n        /* \"contracts/Staking.sol\":1455:1501  stakeToken.allowance(msg.sender,address(this)) */\n      mload(0x40)\n      dup4\n      0xffffffff\n      and\n      0xe0\n      shl\n      dup2\n      mstore\n      0x04\n      add\n      tag_108\n      swap3\n      swap2\n      swap1\n      tag_109\n      jump\t// in\n    tag_108:\n      0x20\n      mload(0x40)\n      dup1\n      dup4\n      sub\n      dup2\n      dup7\n      gas\n      staticcall\n      iszero\n      dup1\n      iszero\n      tag_111\n      jumpi\n      returndatasize\n      0x00\n      dup1\n      returndatacopy\n      revert(0x00, returndatasize)\n    tag_111:\n      pop\n      pop\n      pop\n      pop\n      mload(0x40)\n      returndatasize\n      not(0x1f)\n      0x1f\n      dup3\n      add\n      and\n      dup3\n      add\n      dup1\n      0x40\n      mstore\n      pop\n      dup2\n      add\n      swap1\n      tag_112\n      swap2\n      swap1\n      tag_113\n      jump\t// in\n    tag_112:\n        /* \"contracts/Staking.sol\":1455:1509  stakeToken.allowance(msg.sender,address(this))>=amount */\n      lt\n      iszero\n        /* \"contracts/Staking.sol\":1447:1552  require(stakeToken.allowance(msg.sender,address(this))>=amount,\"Not set the enough amount for allowance\") */\n      tag_114\n      jumpi\n      mload(0x40)\n      0x08c379a000000000000000000000000000000000000000000000000000000000\n      dup2\n      mstore\n      0x04\n      add\n      tag_115\n      swap1\n      tag_116\n      jump\t// in\n    tag_115:\n      mload(0x40)\n      dup1\n      swap2\n      sub\n      swap1\n      revert\n    tag_114:\n        /* \"contracts/Staking.sol\":1605:1615  stakeToken */\n      0x00\n      dup1\n      sload\n      swap1\n      0x0100\n      exp\n      swap1\n      div\n      0xffffffffffffffffffffffffffffffffffffffff\n      and\n        /* \"contracts/Staking.sol\":1605:1628  stakeToken.transferFrom */\n      0xffffffffffffffffffffffffffffffffffffffff\n      and\n      0x23b872dd\n        /* \"contracts/Staking.sol\":1629:1639  msg.sender */\n      caller\n        /* \"contracts/Staking.sol\":1648:1652  this */\n      address\n        /* \"contracts/Staking.sol\":1654:1660  amount */\n      dup5\n        /* \"contracts/Staking.sol\":1605:1661  stakeToken.transferFrom(msg.sender,address(this),amount) */\n      mload(0x40)\n      dup5\n      0xffffffff\n      and\n      0xe0\n      shl\n      dup2\n      mstore\n      0x04\n      add\n      tag_117\n      swap4\n      swap3\n      swap2\n      swap1\n      tag_118\n      jump\t// in\n    tag_117:\n      0x20\n      mload(0x40)\n      dup1\n      dup4\n      sub\n      dup2\n      0x00\n      dup8\n      gas\n      call\n      iszero\n      dup1\n      iszero\n      tag_120\n      jumpi\n      returndatasize\n      0x00\n      dup1\n      returndatacopy\n      revert(0x00, returndatasize)\n    tag_120:\n      pop\n      pop\n      pop\n      pop\n      mload(0x40)\n      returndatasize\n      not(0x1f)\n      0x1f\n      dup3\n      add\n      and\n      dup3\n      add\n      dup1\n      0x40\n      mstore\n      pop\n      dup2\n      add\n      swap1\n      tag_121\n      swap2\n      swap1\n      tag_70\n      jump\t// in\n    tag_121:\n      pop\n        /* \"contracts/Staking.sol\":1767:1768  0 */\n      0x00\n        /* \"contracts/Staking.sol\":1750:1765  lastUpdatedTime */\n      sload(0x02)\n        /* \"contracts/Staking.sol\":1750:1768  lastUpdatedTime!=0 */\n      eq\n        /* \"contracts/Staking.sol\":1747:1819  if(lastUpdatedTime!=0){... */\n      tag_122\n      jumpi\n        /* \"contracts/Staking.sol\":1784:1807  calculateTotalRewards() */\n      tag_123\n        /* \"contracts/Staking.sol\":1784:1805  calculateTotalRewards */\n      tag_50\n        /* \"contracts/Staking.sol\":1784:1807  calculateTotalRewards() */\n      jump\t// in\n    tag_123:\n        /* \"contracts/Staking.sol\":1747:1819  if(lastUpdatedTime!=0){... */\n    tag_122:\n        /* \"contracts/Staking.sol\":1877:1883  amount */\n      dup1\n        /* \"contracts/Staking.sol\":1854:1864  userStaked */\n      0x03\n        /* \"contracts/Staking.sol\":1854:1876  userStaked[msg.sender] */\n      0x00\n        /* \"contracts/Staking.sol\":1865:1875  msg.sender */\n      caller\n        /* \"contracts/Staking.sol\":1854:1876  userStaked[msg.sender] */\n      0xffffffffffffffffffffffffffffffffffffffff\n      and\n      0xffffffffffffffffffffffffffffffffffffffff\n      and\n      dup2\n      mstore\n      0x20\n      add\n      swap1\n      dup2\n      mstore\n      0x20\n      add\n      0x00\n      keccak256\n      sload\n        /* \"contracts/Staking.sol\":1854:1883  userStaked[msg.sender]+amount */\n      tag_124\n      swap2\n      swap1\n      tag_125\n      jump\t// in\n    tag_124:\n        /* \"contracts/Staking.sol\":1831:1841  userStaked */\n      0x03\n        /* \"contracts/Staking.sol\":1831:1853  userStaked[msg.sender] */\n      0x00\n        /* \"contracts/Staking.sol\":1842:1852  msg.sender */\n      caller\n        /* \"contracts/Staking.sol\":1831:1853  userStaked[msg.sender] */\n      0xffffffffffffffffffffffffffffffffffffffff\n      and\n      0xffffffffffffffffffffffffffffffffffffffff\n      and\n      dup2\n      mstore\n      0x20\n      add\n      swap1\n      dup2\n      mstore\n      0x20\n      add\n      0x00\n      keccak256\n        /* \"contracts/Staking.sol\":1831:1883  userStaked[msg.sender]=userStaked[msg.sender]+amount */\n      dup2\n      swap1\n      sstore\n      pop\n        /* \"contracts/Staking.sol\":1910:1925  block.timestamp */\n      timestamp\n        /* \"contracts/Staking.sol\":1894:1909  lastUpdatedTime */\n      0x02\n        /* \"contracts/Staking.sol\":1894:1925  lastUpdatedTime=block.timestamp */\n      dup2\n      swap1\n      sstore\n      pop\n        /* \"contracts/Staking.sol\":1992:2002  msg.sender */\n      caller\n        /* \"contracts/Staking.sol\":1985:2010  Staked(msg.sender,amount) */\n      0xffffffffffffffffffffffffffffffffffffffff\n      and\n      0x9e71bc8eea02a63969f509818f2dafb9254532904319f9dbda79b67bd34a5f3d\n        /* \"contracts/Staking.sol\":2003:2009  amount */\n      dup3\n        /* \"contracts/Staking.sol\":1985:2010  Staked(msg.sender,amount) */\n      mload(0x40)\n      tag_126\n      swap2\n      swap1\n      tag_21\n      jump\t// in\n    tag_126:\n      mload(0x40)\n      dup1\n      swap2\n      sub\n      swap1\n      log2\n        /* \"contracts/Staking.sol\":1283:2018  function stake(uint amount) public{... */\n      pop\n      jump\t// out\n        /* \"contracts/Staking.sol\":944:984  mapping(address=>uint) public userStaked */\n    tag_47:\n      mstore(0x20, 0x03)\n      dup1\n      0x00\n      mstore\n      keccak256(0x00, 0x40)\n      0x00\n      swap2\n      pop\n      swap1\n      pop\n      sload\n      dup2\n      jump\t// out\n        /* \"contracts/Staking.sol\":2558:2952  function calculateTotalRewards() public{... */\n    tag_50:\n        /* \"contracts/Staking.sol\":2608:2627  uint calculatedTime */\n      0x00\n        /* \"contracts/Staking.sol\":2644:2659  lastUpdatedTime */\n      sload(0x02)\n        /* \"contracts/Staking.sol\":2628:2643  block.timestamp */\n      timestamp\n        /* \"contracts/Staking.sol\":2628:2659  block.timestamp-lastUpdatedTime */\n      tag_128\n      swap2\n      swap1\n      tag_64\n      jump\t// in\n    tag_128:\n        /* \"contracts/Staking.sol\":2608:2659  uint calculatedTime=block.timestamp-lastUpdatedTime */\n      swap1\n      pop\n        /* \"contracts/Staking.sol\":2731:2757  uint StakeRewardsPerSecond */\n      0x00\n        /* \"contracts/Staking.sol\":2785:2788  100 */\n      0x64\n        /* \"contracts/Staking.sol\":2782:2783  3 */\n      0x03\n        /* \"contracts/Staking.sol\":2759:2769  userStaked */\n      dup1\n        /* \"contracts/Staking.sol\":2759:2781  userStaked[msg.sender] */\n      0x00\n        /* \"contracts/Staking.sol\":2770:2780  msg.sender */\n      caller\n        /* \"contracts/Staking.sol\":2759:2781  userStaked[msg.sender] */\n      0xffffffffffffffffffffffffffffffffffffffff\n      and\n      0xffffffffffffffffffffffffffffffffffffffff\n      and\n      dup2\n      mstore\n      0x20\n      add\n      swap1\n      dup2\n      mstore\n      0x20\n      add\n      0x00\n      keccak256\n      sload\n        /* \"contracts/Staking.sol\":2759:2783  userStaked[msg.sender]*3 */\n      tag_129\n      swap2\n      swap1\n      tag_130\n      jump\t// in\n    tag_129:\n        /* \"contracts/Staking.sol\":2758:2788  (userStaked[msg.sender]*3)/100 */\n      tag_131\n      swap2\n      swap1\n      tag_132\n      jump\t// in\n    tag_131:\n        /* \"contracts/Staking.sol\":2731:2788  uint StakeRewardsPerSecond=(userStaked[msg.sender]*3)/100 */\n      swap1\n      pop\n        /* \"contracts/Staking.sol\":2799:2826  uint totalRewardsCalculated */\n      0x00\n        /* \"contracts/Staking.sol\":2849:2863  calculatedTime */\n      dup3\n        /* \"contracts/Staking.sol\":2827:2848  StakeRewardsPerSecond */\n      dup3\n        /* \"contracts/Staking.sol\":2827:2863  StakeRewardsPerSecond*calculatedTime */\n      tag_133\n      swap2\n      swap1\n      tag_130\n      jump\t// in\n    tag_133:\n        /* \"contracts/Staking.sol\":2799:2863  uint totalRewardsCalculated=StakeRewardsPerSecond*calculatedTime */\n      swap1\n      pop\n        /* \"contracts/Staking.sol\":2922:2944  totalRewardsCalculated */\n      dup1\n        /* \"contracts/Staking.sol\":2898:2909  userRewards */\n      0x04\n        /* \"contracts/Staking.sol\":2898:2921  userRewards[msg.sender] */\n      0x00\n        /* \"contracts/Staking.sol\":2910:2920  msg.sender */\n      caller\n        /* \"contracts/Staking.sol\":2898:2921  userRewards[msg.sender] */\n      0xffffffffffffffffffffffffffffffffffffffff\n      and\n      0xffffffffffffffffffffffffffffffffffffffff\n      and\n      dup2\n      mstore\n      0x20\n      add\n      swap1\n      dup2\n      mstore\n      0x20\n      add\n      0x00\n      keccak256\n      sload\n        /* \"contracts/Staking.sol\":2898:2944  userRewards[msg.sender]+totalRewardsCalculated */\n      tag_134\n      swap2\n      swap1\n      tag_125\n      jump\t// in\n    tag_134:\n        /* \"contracts/Staking.sol\":2874:2885  userRewards */\n      0x04\n        /* \"contracts/Staking.sol\":2874:2897  userRewards[msg.sender] */\n      0x00\n        /* \"contracts/Staking.sol\":2886:2896  msg.sender */\n      caller\n        /* \"contracts/Staking.sol\":2874:2897  userRewards[msg.sender] */\n      0xffffffffffffffffffffffffffffffffffffffff\n      and\n      0xffffffffffffffffffffffffffffffffffffffff\n      and\n      dup2\n      mstore\n      0x20\n      add\n      swap1\n      dup2\n      mstore\n      0x20\n      add\n      0x00\n      keccak256\n        /* \"contracts/Staking.sol\":2874:2944  userRewards[msg.sender]=userRewards[msg.sender]+totalRewardsCalculated */\n      dup2\n      swap1\n      sstore\n      pop\n        /* \"contracts/Staking.sol\":2597:2952  {... */\n      pop\n      pop\n      pop\n        /* \"contracts/Staking.sol\":2558:2952  function calculateTotalRewards() public{... */\n      jump\t// out\n        /* \"@openzeppelin/contracts-upgradeable/access/OwnableUpgradeable.sol\":3405:3620  function transferOwnership(address newOwner) public virtual onlyOwner {... */\n    tag_53:\n        /* \"@openzeppelin/contracts-upgradeable/access/OwnableUpgradeable.sol\":2334:2347  _checkOwner() */\n      tag_136\n        /* \"@openzeppelin/contracts-upgradeable/access/OwnableUpgradeable.sol\":2334:2345  _checkOwner */\n      tag_97\n        /* \"@openzeppelin/contracts-upgradeable/access/OwnableUpgradeable.sol\":2334:2347  _checkOwner() */\n      jump\t// in\n    tag_136:\n        /* \"@openzeppelin/contracts-upgradeable/access/OwnableUpgradeable.sol\":3509:3510  0 */\n      0x00\n        /* \"@openzeppelin/contracts-upgradeable/access/OwnableUpgradeable.sol\":3489:3511  newOwner == address(0) */\n      0xffffffffffffffffffffffffffffffffffffffff\n      and\n        /* \"@openzeppelin/contracts-upgradeable/access/OwnableUpgradeable.sol\":3489:3497  newOwner */\n      dup2\n        /* \"@openzeppelin/contracts-upgradeable/access/OwnableUpgradeable.sol\":3489:3511  newOwner == address(0) */\n      0xffffffffffffffffffffffffffffffffffffffff\n      and\n      sub\n        /* \"@openzeppelin/contracts-upgradeable/access/OwnableUpgradeable.sol\":3485:3576  if (newOwner == address(0)) {... */\n      tag_138\n      jumpi\n        /* \"@openzeppelin/contracts-upgradeable/access/OwnableUpgradeable.sol\":3562:3563  0 */\n      0x00\n        /* \"@openzeppelin/contracts-upgradeable/access/OwnableUpgradeable.sol\":3534:3565  OwnableInvalidOwner(address(0)) */\n      mload(0x40)\n      0x1e4fbdf700000000000000000000000000000000000000000000000000000000\n      dup2\n      mstore\n      0x04\n      add\n      tag_139\n      swap2\n      swap1\n      tag_41\n      jump\t// in\n    tag_139:\n      mload(0x40)\n      dup1\n      swap2\n      sub\n      swap1\n      revert\n        /* \"@openzeppelin/contracts-upgradeable/access/OwnableUpgradeable.sol\":3485:3576  if (newOwner == address(0)) {... */\n    tag_138:\n        /* \"@openzeppelin/contracts-upgradeable/access/OwnableUpgradeable.sol\":3585:3613  _transferOwnership(newOwner) */\n      tag_140\n        /* \"@openzeppelin/contracts-upgradeable/access/OwnableUpgradeable.sol\":3604:3612  newOwner */\n      dup2\n        /* \"@openzeppelin/contracts-upgradeable/access/OwnableUpgradeable.sol\":3585:3603  _transferOwnership */\n      tag_100\n        /* \"@openzeppelin/contracts-upgradeable/access/OwnableUpgradeable.sol\":3585:3613  _transferOwnership(newOwner) */\n      jump\t// in\n    tag_140:\n        /* \"@openzeppelin/contracts-upgradeable/access/OwnableUpgradeable.sol\":3405:3620  function transferOwnership(address newOwner) public virtual onlyOwner {... */\n      pop\n      jump\t// out\n        /* \"contracts/Staking.sol\":366:396  RewardToken public rewardToken */\n    tag_55:\n      0x01\n      0x00\n      swap1\n      sload\n      swap1\n      0x0100\n      exp\n      swap1\n      div\n      0xffffffffffffffffffffffffffffffffffffffff\n      and\n      dup2\n      jump\t// out\n        /* \"@openzeppelin/contracts-upgradeable/proxy/utils/Initializable.sol\":8737:8907  function _getInitializableStorage() private pure returns (InitializableStorage storage $) {... */\n    tag_83:\n        /* \"@openzeppelin/contracts-upgradeable/proxy/utils/Initializable.sol\":8795:8825  InitializableStorage storage $ */\n      0x00\n        /* \"@openzeppelin/contracts-upgradeable/proxy/utils/Initializable.sol\":8870:8891  INITIALIZABLE_STORAGE */\n      0xf0c57e16840df040f15088dc2f81fe391c3923bec73e23a9662efc9c229c6a00\n        /* \"@openzeppelin/contracts-upgradeable/proxy/utils/Initializable.sol\":8860:8891  $.slot := INITIALIZABLE_STORAGE */\n      swap1\n      pop\n        /* \"@openzeppelin/contracts-upgradeable/proxy/utils/Initializable.sol\":8737:8907  function _getInitializableStorage() private pure returns (InitializableStorage storage $) {... */\n      swap1\n      jump\t// out\n        /* \"@openzeppelin/contracts-upgradeable/access/OwnableUpgradeable.sol\":1847:1974  function __Ownable_init(address initialOwner) internal onlyInitializing {... */\n    tag_91:\n        /* \"@openzeppelin/contracts-upgradeable/proxy/utils/Initializable.sol\":6931:6951  _checkInitializing() */\n      tag_143\n        /* \"@openzeppelin/contracts-upgradeable/proxy/utils/Initializable.sol\":6931:6949  _checkInitializing */\n      tag_144\n        /* \"@openzeppelin/contracts-upgradeable/proxy/utils/Initializable.sol\":6931:6951  _checkInitializing() */\n      jump\t// in\n    tag_143:\n        /* \"@openzeppelin/contracts-upgradeable/access/OwnableUpgradeable.sol\":1929:1967  __Ownable_init_unchained(initialOwner) */\n      tag_146\n        /* \"@openzeppelin/contracts-upgradeable/access/OwnableUpgradeable.sol\":1954:1966  initialOwner */\n      dup2\n        /* \"@openzeppelin/contracts-upgradeable/access/OwnableUpgradeable.sol\":1929:1953  __Ownable_init_unchained */\n      tag_147\n        /* \"@openzeppelin/contracts-upgradeable/access/OwnableUpgradeable.sol\":1929:1967  __Ownable_init_unchained(initialOwner) */\n      jump\t// in\n    tag_146:\n        /* \"@openzeppelin/contracts-upgradeable/access/OwnableUpgradeable.sol\":1847:1974  function __Ownable_init(address initialOwner) internal onlyInitializing {... */\n      pop\n      jump\t// out\n        /* \"@openzeppelin/contracts-upgradeable/access/OwnableUpgradeable.sol\":2658:2820  function _checkOwner() internal view virtual {... */\n    tag_97:\n        /* \"@openzeppelin/contracts-upgradeable/access/OwnableUpgradeable.sol\":2728:2740  _msgSender() */\n      tag_149\n        /* \"@openzeppelin/contracts-upgradeable/access/OwnableUpgradeable.sol\":2728:2738  _msgSender */\n      tag_150\n        /* \"@openzeppelin/contracts-upgradeable/access/OwnableUpgradeable.sol\":2728:2740  _msgSender() */\n      jump\t// in\n    tag_149:\n        /* \"@openzeppelin/contracts-upgradeable/access/OwnableUpgradeable.sol\":2717:2740  owner() != _msgSender() */\n      0xffffffffffffffffffffffffffffffffffffffff\n      and\n        /* \"@openzeppelin/contracts-upgradeable/access/OwnableUpgradeable.sol\":2717:2724  owner() */\n      tag_151\n        /* \"@openzeppelin/contracts-upgradeable/access/OwnableUpgradeable.sol\":2717:2722  owner */\n      tag_39\n        /* \"@openzeppelin/contracts-upgradeable/access/OwnableUpgradeable.sol\":2717:2724  owner() */\n      jump\t// in\n    tag_151:\n        /* \"@openzeppelin/contracts-upgradeable/access/OwnableUpgradeable.sol\":2717:2740  owner() != _msgSender() */\n      0xffffffffffffffffffffffffffffffffffffffff\n      and\n      eq\n        /* \"@openzeppelin/contracts-upgradeable/access/OwnableUpgradeable.sol\":2713:2814  if (owner() != _msgSender()) {... */\n      tag_152\n      jumpi\n        /* \"@openzeppelin/contracts-upgradeable/access/OwnableUpgradeable.sol\":2790:2802  _msgSender() */\n      tag_153\n        /* \"@openzeppelin/contracts-upgradeable/access/OwnableUpgradeable.sol\":2790:2800  _msgSender */\n      tag_150\n        /* \"@openzeppelin/contracts-upgradeable/access/OwnableUpgradeable.sol\":2790:2802  _msgSender() */\n      jump\t// in\n    tag_153:\n        /* \"@openzeppelin/contracts-upgradeable/access/OwnableUpgradeable.sol\":2763:2803  OwnableUnauthorizedAccount(_msgSender()) */\n      mload(0x40)\n      0x118cdaa700000000000000000000000000000000000000000000000000000000\n      dup2\n      mstore\n      0x04\n      add\n      tag_154\n      swap2\n      swap1\n      tag_41\n      jump\t// in\n    tag_154:\n      mload(0x40)\n      dup1\n      swap2\n      sub\n      swap1\n      revert\n        /* \"@openzeppelin/contracts-upgradeable/access/OwnableUpgradeable.sol\":2713:2814  if (owner() != _msgSender()) {... */\n    tag_152:\n        /* \"@openzeppelin/contracts-upgradeable/access/OwnableUpgradeable.sol\":2658:2820  function _checkOwner() internal view virtual {... */\n      jump\t// out\n        /* \"@openzeppelin/contracts-upgradeable/access/OwnableUpgradeable.sol\":3774:4022  function _transferOwnership(address newOwner) internal virtual {... */\n    tag_100:\n        /* \"@openzeppelin/contracts-upgradeable/access/OwnableUpgradeable.sol\":3847:3871  OwnableStorage storage $ */\n      0x00\n        /* \"@openzeppelin/contracts-upgradeable/access/OwnableUpgradeable.sol\":3874:3894  _getOwnableStorage() */\n      tag_156\n        /* \"@openzeppelin/contracts-upgradeable/access/OwnableUpgradeable.sol\":3874:3892  _getOwnableStorage */\n      tag_103\n        /* \"@openzeppelin/contracts-upgradeable/access/OwnableUpgradeable.sol\":3874:3894  _getOwnableStorage() */\n      jump\t// in\n    tag_156:\n        /* \"@openzeppelin/contracts-upgradeable/access/OwnableUpgradeable.sol\":3847:3894  OwnableStorage storage $ = _getOwnableStorage() */\n      swap1\n      pop\n        /* \"@openzeppelin/contracts-upgradeable/access/OwnableUpgradeable.sol\":3904:3920  address oldOwner */\n      0x00\n        /* \"@openzeppelin/contracts-upgradeable/access/OwnableUpgradeable.sol\":3923:3924  $ */\n      dup2\n        /* \"@openzeppelin/contracts-upgradeable/access/OwnableUpgradeable.sol\":3923:3931  $._owner */\n      0x00\n      add\n      0x00\n      swap1\n      sload\n      swap1\n      0x0100\n      exp\n      swap1\n      div\n      0xffffffffffffffffffffffffffffffffffffffff\n      and\n        /* \"@openzeppelin/contracts-upgradeable/access/OwnableUpgradeable.sol\":3904:3931  address oldOwner = $._owner */\n      swap1\n      pop\n        /* \"@openzeppelin/contracts-upgradeable/access/OwnableUpgradeable.sol\":3952:3960  newOwner */\n      dup3\n        /* \"@openzeppelin/contracts-upgradeable/access/OwnableUpgradeable.sol\":3941:3942  $ */\n      dup3\n        /* \"@openzeppelin/contracts-upgradeable/access/OwnableUpgradeable.sol\":3941:3949  $._owner */\n      0x00\n      add\n      0x00\n        /* \"@openzeppelin/contracts-upgradeable/access/OwnableUpgradeable.sol\":3941:3960  $._owner = newOwner */\n      0x0100\n      exp\n      dup2\n      sload\n      dup2\n      0xffffffffffffffffffffffffffffffffffffffff\n      mul\n      not\n      and\n      swap1\n      dup4\n      0xffffffffffffffffffffffffffffffffffffffff\n      and\n      mul\n      or\n      swap1\n      sstore\n      pop\n        /* \"@openzeppelin/contracts-upgradeable/access/OwnableUpgradeable.sol\":4006:4014  newOwner */\n      dup3\n        /* \"@openzeppelin/contracts-upgradeable/access/OwnableUpgradeable.sol\":3975:4015  OwnershipTransferred(oldOwner, newOwner) */\n      0xffffffffffffffffffffffffffffffffffffffff\n      and\n        /* \"@openzeppelin/contracts-upgradeable/access/OwnableUpgradeable.sol\":3996:4004  oldOwner */\n      dup2\n        /* \"@openzeppelin/contracts-upgradeable/access/OwnableUpgradeable.sol\":3975:4015  OwnershipTransferred(oldOwner, newOwner) */\n      0xffffffffffffffffffffffffffffffffffffffff\n      and\n      0x8be0079c531659141344cd1fd0a4f28419497f9722a3daafe3b4186f6b6457e0\n      mload(0x40)\n      mload(0x40)\n      dup1\n      swap2\n      sub\n      swap1\n      log3\n        /* \"@openzeppelin/contracts-upgradeable/access/OwnableUpgradeable.sol\":3837:4022  {... */\n      pop\n      pop\n        /* \"@openzeppelin/contracts-upgradeable/access/OwnableUpgradeable.sol\":3774:4022  function _transferOwnership(address newOwner) internal virtual {... */\n      pop\n      jump\t// out\n        /* \"@openzeppelin/contracts-upgradeable/access/OwnableUpgradeable.sol\":1192:1351  function _getOwnableStorage() private pure returns (OwnableStorage storage $) {... */\n    tag_103:\n        /* \"@openzeppelin/contracts-upgradeable/access/OwnableUpgradeable.sol\":1244:1268  OwnableStorage storage $ */\n      0x00\n        /* \"@openzeppelin/contracts-upgradeable/access/OwnableUpgradeable.sol\":1313:1335  OwnableStorageLocation */\n      0x9016d09d72d40fdae2fd8ceac6b6234c7706214fd39c1cd1e609a0528c199300\n        /* \"@openzeppelin/contracts-upgradeable/access/OwnableUpgradeable.sol\":1303:1335  $.slot := OwnableStorageLocation */\n      swap1\n      pop\n        /* \"@openzeppelin/contracts-upgradeable/access/OwnableUpgradeable.sol\":1192:1351  function _getOwnableStorage() private pure returns (OwnableStorage storage $) {... */\n      swap1\n      jump\t// out\n        /* \"@openzeppelin/contracts-upgradeable/proxy/utils/Initializable.sol\":7084:7225  function _checkInitializing() internal view virtual {... */\n    tag_144:\n        /* \"@openzeppelin/contracts-upgradeable/proxy/utils/Initializable.sol\":7151:7168  _isInitializing() */\n      tag_159\n        /* \"@openzeppelin/contracts-upgradeable/proxy/utils/Initializable.sol\":7151:7166  _isInitializing */\n      tag_160\n        /* \"@openzeppelin/contracts-upgradeable/proxy/utils/Initializable.sol\":7151:7168  _isInitializing() */\n      jump\t// in\n    tag_159:\n        /* \"@openzeppelin/contracts-upgradeable/proxy/utils/Initializable.sol\":7146:7219  if (!_isInitializing()) {... */\n      tag_161\n      jumpi\n        /* \"@openzeppelin/contracts-upgradeable/proxy/utils/Initializable.sol\":7191:7208  NotInitializing() */\n      mload(0x40)\n      0xd7e6bcf800000000000000000000000000000000000000000000000000000000\n      dup2\n      mstore\n      0x04\n      add\n      mload(0x40)\n      dup1\n      swap2\n      sub\n      swap1\n      revert\n        /* \"@openzeppelin/contracts-upgradeable/proxy/utils/Initializable.sol\":7146:7219  if (!_isInitializing()) {... */\n    tag_161:\n        /* \"@openzeppelin/contracts-upgradeable/proxy/utils/Initializable.sol\":7084:7225  function _checkInitializing() internal view virtual {... */\n      jump\t// out\n        /* \"@openzeppelin/contracts-upgradeable/access/OwnableUpgradeable.sol\":1980:2215  function __Ownable_init_unchained(address initialOwner) internal onlyInitializing {... */\n    tag_147:\n        /* \"@openzeppelin/contracts-upgradeable/proxy/utils/Initializable.sol\":6931:6951  _checkInitializing() */\n      tag_163\n        /* \"@openzeppelin/contracts-upgradeable/proxy/utils/Initializable.sol\":6931:6949  _checkInitializing */\n      tag_144\n        /* \"@openzeppelin/contracts-upgradeable/proxy/utils/Initializable.sol\":6931:6951  _checkInitializing() */\n      jump\t// in\n    tag_163:\n        /* \"@openzeppelin/contracts-upgradeable/access/OwnableUpgradeable.sol\":2100:2101  0 */\n      0x00\n        /* \"@openzeppelin/contracts-upgradeable/access/OwnableUpgradeable.sol\":2076:2102  initialOwner == address(0) */\n      0xffffffffffffffffffffffffffffffffffffffff\n      and\n        /* \"@openzeppelin/contracts-upgradeable/access/OwnableUpgradeable.sol\":2076:2088  initialOwner */\n      dup2\n        /* \"@openzeppelin/contracts-upgradeable/access/OwnableUpgradeable.sol\":2076:2102  initialOwner == address(0) */\n      0xffffffffffffffffffffffffffffffffffffffff\n      and\n      sub\n        /* \"@openzeppelin/contracts-upgradeable/access/OwnableUpgradeable.sol\":2072:2167  if (initialOwner == address(0)) {... */\n      tag_165\n      jumpi\n        /* \"@openzeppelin/contracts-upgradeable/access/OwnableUpgradeable.sol\":2153:2154  0 */\n      0x00\n        /* \"@openzeppelin/contracts-upgradeable/access/OwnableUpgradeable.sol\":2125:2156  OwnableInvalidOwner(address(0)) */\n      mload(0x40)\n      0x1e4fbdf700000000000000000000000000000000000000000000000000000000\n      dup2\n      mstore\n      0x04\n      add\n      tag_166\n      swap2\n      swap1\n      tag_41\n      jump\t// in\n    tag_166:\n      mload(0x40)\n      dup1\n      swap2\n      sub\n      swap1\n      revert\n        /* \"@openzeppelin/contracts-upgradeable/access/OwnableUpgradeable.sol\":2072:2167  if (initialOwner == address(0)) {... */\n    tag_165:\n        /* \"@openzeppelin/contracts-upgradeable/access/OwnableUpgradeable.sol\":2176:2208  _transferOwnership(initialOwner) */\n      tag_167\n        /* \"@openzeppelin/contracts-upgradeable/access/OwnableUpgradeable.sol\":2195:2207  initialOwner */\n      dup2\n        /* \"@openzeppelin/contracts-upgradeable/access/OwnableUpgradeable.sol\":2176:2194  _transferOwnership */\n      tag_100\n        /* \"@openzeppelin/contracts-upgradeable/access/OwnableUpgradeable.sol\":2176:2208  _transferOwnership(initialOwner) */\n      jump\t// in\n    tag_167:\n        /* \"@openzeppelin/contracts-upgradeable/access/OwnableUpgradeable.sol\":1980:2215  function __Ownable_init_unchained(address initialOwner) internal onlyInitializing {... */\n      pop\n      jump\t// out\n        /* \"@openzeppelin/contracts-upgradeable/utils/ContextUpgradeable.sol\":887:983  function _msgSender() internal view virtual returns (address) {... */\n    tag_150:\n        /* \"@openzeppelin/contracts-upgradeable/utils/ContextUpgradeable.sol\":940:947  address */\n      0x00\n        /* \"@openzeppelin/contracts-upgradeable/utils/ContextUpgradeable.sol\":966:976  msg.sender */\n      caller\n        /* \"@openzeppelin/contracts-upgradeable/utils/ContextUpgradeable.sol\":959:976  return msg.sender */\n      swap1\n      pop\n        /* \"@openzeppelin/contracts-upgradeable/utils/ContextUpgradeable.sol\":887:983  function _msgSender() internal view virtual returns (address) {... */\n      swap1\n      jump\t// out\n        /* \"@openzeppelin/contracts-upgradeable/proxy/utils/Initializable.sol\":8487:8607  function _isInitializing() internal view returns (bool) {... */\n    tag_160:\n        /* \"@openzeppelin/contracts-upgradeable/proxy/utils/Initializable.sol\":8537:8541  bool */\n      0x00\n        /* \"@openzeppelin/contracts-upgradeable/proxy/utils/Initializable.sol\":8560:8586  _getInitializableStorage() */\n      tag_170\n        /* \"@openzeppelin/contracts-upgradeable/proxy/utils/Initializable.sol\":8560:8584  _getInitializableStorage */\n      tag_83\n        /* \"@openzeppelin/contracts-upgradeable/proxy/utils/Initializable.sol\":8560:8586  _getInitializableStorage() */\n      jump\t// in\n    tag_170:\n        /* \"@openzeppelin/contracts-upgradeable/proxy/utils/Initializable.sol\":8560:8600  _getInitializableStorage()._initializing */\n      0x00\n      add\n      0x08\n      swap1\n      sload\n      swap1\n      0x0100\n      exp\n      swap1\n      div\n      0xff\n      and\n        /* \"@openzeppelin/contracts-upgradeable/proxy/utils/Initializable.sol\":8553:8600  return _getInitializableStorage()._initializing */\n      swap1\n      pop\n        /* \"@openzeppelin/contracts-upgradeable/proxy/utils/Initializable.sol\":8487:8607  function _isInitializing() internal view returns (bool) {... */\n      swap1\n      jump\t// out\n        /* \"#utility.yul\":88:205   */\n    tag_172:\n        /* \"#utility.yul\":197:198   */\n      0x00\n        /* \"#utility.yul\":194:195   */\n      dup1\n        /* \"#utility.yul\":187:199   */\n      revert\n        /* \"#utility.yul\":334:460   */\n    tag_174:\n        /* \"#utility.yul\":371:378   */\n      0x00\n        /* \"#utility.yul\":411:453   */\n      0xffffffffffffffffffffffffffffffffffffffff\n        /* \"#utility.yul\":404:409   */\n      dup3\n        /* \"#utility.yul\":400:454   */\n      and\n        /* \"#utility.yul\":389:454   */\n      swap1\n      pop\n        /* \"#utility.yul\":334:460   */\n      swap2\n      swap1\n      pop\n      jump\t// out\n        /* \"#utility.yul\":466:562   */\n    tag_175:\n        /* \"#utility.yul\":503:510   */\n      0x00\n        /* \"#utility.yul\":532:556   */\n      tag_215\n        /* \"#utility.yul\":550:555   */\n      dup3\n        /* \"#utility.yul\":532:556   */\n      tag_174\n      jump\t// in\n    tag_215:\n        /* \"#utility.yul\":521:556   */\n      swap1\n      pop\n        /* \"#utility.yul\":466:562   */\n      swap2\n      swap1\n      pop\n      jump\t// out\n        /* \"#utility.yul\":568:690   */\n    tag_176:\n        /* \"#utility.yul\":641:665   */\n      tag_217\n        /* \"#utility.yul\":659:664   */\n      dup2\n        /* \"#utility.yul\":641:665   */\n      tag_175\n      jump\t// in\n    tag_217:\n        /* \"#utility.yul\":634:639   */\n      dup2\n        /* \"#utility.yul\":631:666   */\n      eq\n        /* \"#utility.yul\":621:684   */\n      tag_218\n      jumpi\n        /* \"#utility.yul\":680:681   */\n      0x00\n        /* \"#utility.yul\":677:678   */\n      dup1\n        /* \"#utility.yul\":670:682   */\n      revert\n        /* \"#utility.yul\":621:684   */\n    tag_218:\n        /* \"#utility.yul\":568:690   */\n      pop\n      jump\t// out\n        /* \"#utility.yul\":696:835   */\n    tag_177:\n        /* \"#utility.yul\":742:747   */\n      0x00\n        /* \"#utility.yul\":780:786   */\n      dup2\n        /* \"#utility.yul\":767:787   */\n      calldataload\n        /* \"#utility.yul\":758:787   */\n      swap1\n      pop\n        /* \"#utility.yul\":796:829   */\n      tag_220\n        /* \"#utility.yul\":823:828   */\n      dup2\n        /* \"#utility.yul\":796:829   */\n      tag_176\n      jump\t// in\n    tag_220:\n        /* \"#utility.yul\":696:835   */\n      swap3\n      swap2\n      pop\n      pop\n      jump\t// out\n        /* \"#utility.yul\":841:1170   */\n    tag_18:\n        /* \"#utility.yul\":900:906   */\n      0x00\n        /* \"#utility.yul\":949:951   */\n      0x20\n        /* \"#utility.yul\":937:946   */\n      dup3\n        /* \"#utility.yul\":928:935   */\n      dup5\n        /* \"#utility.yul\":924:947   */\n      sub\n        /* \"#utility.yul\":920:952   */\n      slt\n        /* \"#utility.yul\":917:1036   */\n      iszero\n      tag_222\n      jumpi\n        /* \"#utility.yul\":955:1034   */\n      tag_223\n      tag_172\n      jump\t// in\n    tag_223:\n        /* \"#utility.yul\":917:1036   */\n    tag_222:\n        /* \"#utility.yul\":1075:1076   */\n      0x00\n        /* \"#utility.yul\":1100:1153   */\n      tag_224\n        /* \"#utility.yul\":1145:1152   */\n      dup5\n        /* \"#utility.yul\":1136:1142   */\n      dup3\n        /* \"#utility.yul\":1125:1134   */\n      dup6\n        /* \"#utility.yul\":1121:1143   */\n      add\n        /* \"#utility.yul\":1100:1153   */\n      tag_177\n      jump\t// in\n    tag_224:\n        /* \"#utility.yul\":1090:1153   */\n      swap2\n      pop\n        /* \"#utility.yul\":1046:1163   */\n      pop\n        /* \"#utility.yul\":841:1170   */\n      swap3\n      swap2\n      pop\n      pop\n      jump\t// out\n        /* \"#utility.yul\":1176:1253   */\n    tag_178:\n        /* \"#utility.yul\":1213:1220   */\n      0x00\n        /* \"#utility.yul\":1242:1247   */\n      dup2\n        /* \"#utility.yul\":1231:1247   */\n      swap1\n      pop\n        /* \"#utility.yul\":1176:1253   */\n      swap2\n      swap1\n      pop\n      jump\t// out\n        /* \"#utility.yul\":1259:1377   */\n    tag_179:\n        /* \"#utility.yul\":1346:1370   */\n      tag_227\n        /* \"#utility.yul\":1364:1369   */\n      dup2\n        /* \"#utility.yul\":1346:1370   */\n      tag_178\n      jump\t// in\n    tag_227:\n        /* \"#utility.yul\":1341:1344   */\n      dup3\n        /* \"#utility.yul\":1334:1371   */\n      mstore\n        /* \"#utility.yul\":1259:1377   */\n      pop\n      pop\n      jump\t// out\n        /* \"#utility.yul\":1383:1605   */\n    tag_21:\n        /* \"#utility.yul\":1476:1480   */\n      0x00\n        /* \"#utility.yul\":1514:1516   */\n      0x20\n        /* \"#utility.yul\":1503:1512   */\n      dup3\n        /* \"#utility.yul\":1499:1517   */\n      add\n        /* \"#utility.yul\":1491:1517   */\n      swap1\n      pop\n        /* \"#utility.yul\":1527:1598   */\n      tag_229\n        /* \"#utility.yul\":1595:1596   */\n      0x00\n        /* \"#utility.yul\":1584:1593   */\n      dup4\n        /* \"#utility.yul\":1580:1597   */\n      add\n        /* \"#utility.yul\":1571:1577   */\n      dup5\n        /* \"#utility.yul\":1527:1598   */\n      tag_179\n      jump\t// in\n    tag_229:\n        /* \"#utility.yul\":1383:1605   */\n      swap3\n      swap2\n      pop\n      pop\n      jump\t// out\n        /* \"#utility.yul\":1611:1733   */\n    tag_180:\n        /* \"#utility.yul\":1684:1708   */\n      tag_231\n        /* \"#utility.yul\":1702:1707   */\n      dup2\n        /* \"#utility.yul\":1684:1708   */\n      tag_178\n      jump\t// in\n    tag_231:\n        /* \"#utility.yul\":1677:1682   */\n      dup2\n        /* \"#utility.yul\":1674:1709   */\n      eq\n        /* \"#utility.yul\":1664:1727   */\n      tag_232\n      jumpi\n        /* \"#utility.yul\":1723:1724   */\n      0x00\n        /* \"#utility.yul\":1720:1721   */\n      dup1\n        /* \"#utility.yul\":1713:1725   */\n      revert\n        /* \"#utility.yul\":1664:1727   */\n    tag_232:\n        /* \"#utility.yul\":1611:1733   */\n      pop\n      jump\t// out\n        /* \"#utility.yul\":1739:1878   */\n    tag_181:\n        /* \"#utility.yul\":1785:1790   */\n      0x00\n        /* \"#utility.yul\":1823:1829   */\n      dup2\n        /* \"#utility.yul\":1810:1830   */\n      calldataload\n        /* \"#utility.yul\":1801:1830   */\n      swap1\n      pop\n        /* \"#utility.yul\":1839:1872   */\n      tag_234\n        /* \"#utility.yul\":1866:1871   */\n      dup2\n        /* \"#utility.yul\":1839:1872   */\n      tag_180\n      jump\t// in\n    tag_234:\n        /* \"#utility.yul\":1739:1878   */\n      swap3\n      swap2\n      pop\n      pop\n      jump\t// out\n        /* \"#utility.yul\":1884:2213   */\n    tag_24:\n        /* \"#utility.yul\":1943:1949   */\n      0x00\n        /* \"#utility.yul\":1992:1994   */\n      0x20\n        /* \"#utility.yul\":1980:1989   */\n      dup3\n        /* \"#utility.yul\":1971:1978   */\n      dup5\n        /* \"#utility.yul\":1967:1990   */\n      sub\n        /* \"#utility.yul\":1963:1995   */\n      slt\n        /* \"#utility.yul\":1960:2079   */\n      iszero\n      tag_236\n      jumpi\n        /* \"#utility.yul\":1998:2077   */\n      tag_237\n      tag_172\n      jump\t// in\n    tag_237:\n        /* \"#utility.yul\":1960:2079   */\n    tag_236:\n        /* \"#utility.yul\":2118:2119   */\n      0x00\n        /* \"#utility.yul\":2143:2196   */\n      tag_238\n        /* \"#utility.yul\":2188:2195   */\n      dup5\n        /* \"#utility.yul\":2179:2185   */\n      dup3\n        /* \"#utility.yul\":2168:2177   */\n      dup6\n        /* \"#utility.yul\":2164:2186   */\n      add\n        /* \"#utility.yul\":2143:2196   */\n      tag_181\n      jump\t// in\n    tag_238:\n        /* \"#utility.yul\":2133:2196   */\n      swap2\n      pop\n        /* \"#utility.yul\":2089:2206   */\n      pop\n        /* \"#utility.yul\":1884:2213   */\n      swap3\n      swap2\n      pop\n      pop\n      jump\t// out\n        /* \"#utility.yul\":2219:2693   */\n    tag_30:\n        /* \"#utility.yul\":2287:2293   */\n      0x00\n        /* \"#utility.yul\":2295:2301   */\n      dup1\n        /* \"#utility.yul\":2344:2346   */\n      0x40\n        /* \"#utility.yul\":2332:2341   */\n      dup4\n        /* \"#utility.yul\":2323:2330   */\n      dup6\n        /* \"#utility.yul\":2319:2342   */\n      sub\n        /* \"#utility.yul\":2315:2347   */\n      slt\n        /* \"#utility.yul\":2312:2431   */\n      iszero\n      tag_240\n      jumpi\n        /* \"#utility.yul\":2350:2429   */\n      tag_241\n      tag_172\n      jump\t// in\n    tag_241:\n        /* \"#utility.yul\":2312:2431   */\n    tag_240:\n        /* \"#utility.yul\":2470:2471   */\n      0x00\n        /* \"#utility.yul\":2495:2548   */\n      tag_242\n        /* \"#utility.yul\":2540:2547   */\n      dup6\n        /* \"#utility.yul\":2531:2537   */\n      dup3\n        /* \"#utility.yul\":2520:2529   */\n      dup7\n        /* \"#utility.yul\":2516:2538   */\n      add\n        /* \"#utility.yul\":2495:2548   */\n      tag_177\n      jump\t// in\n    tag_242:\n        /* \"#utility.yul\":2485:2548   */\n      swap3\n      pop\n        /* \"#utility.yul\":2441:2558   */\n      pop\n        /* \"#utility.yul\":2597:2599   */\n      0x20\n        /* \"#utility.yul\":2623:2676   */\n      tag_243\n        /* \"#utility.yul\":2668:2675   */\n      dup6\n        /* \"#utility.yul\":2659:2665   */\n      dup3\n        /* \"#utility.yul\":2648:2657   */\n      dup7\n        /* \"#utility.yul\":2644:2666   */\n      add\n        /* \"#utility.yul\":2623:2676   */\n      tag_177\n      jump\t// in\n    tag_243:\n        /* \"#utility.yul\":2613:2676   */\n      swap2\n      pop\n        /* \"#utility.yul\":2568:2686   */\n      pop\n        /* \"#utility.yul\":2219:2693   */\n      swap3\n      pop\n      swap3\n      swap1\n      pop\n      jump\t// out\n        /* \"#utility.yul\":2699:2759   */\n    tag_182:\n        /* \"#utility.yul\":2727:2730   */\n      0x00\n        /* \"#utility.yul\":2748:2753   */\n      dup2\n        /* \"#utility.yul\":2741:2753   */\n      swap1\n      pop\n        /* \"#utility.yul\":2699:2759   */\n      swap2\n      swap1\n      pop\n      jump\t// out\n        /* \"#utility.yul\":2765:2907   */\n    tag_183:\n        /* \"#utility.yul\":2815:2824   */\n      0x00\n        /* \"#utility.yul\":2848:2901   */\n      tag_246\n        /* \"#utility.yul\":2866:2900   */\n      tag_247\n        /* \"#utility.yul\":2875:2899   */\n      tag_248\n        /* \"#utility.yul\":2893:2898   */\n      dup5\n        /* \"#utility.yul\":2875:2899   */\n      tag_174\n      jump\t// in\n    tag_248:\n        /* \"#utility.yul\":2866:2900   */\n      tag_182\n      jump\t// in\n    tag_247:\n        /* \"#utility.yul\":2848:2901   */\n      tag_174\n      jump\t// in\n    tag_246:\n        /* \"#utility.yul\":2835:2901   */\n      swap1\n      pop\n        /* \"#utility.yul\":2765:2907   */\n      swap2\n      swap1\n      pop\n      jump\t// out\n        /* \"#utility.yul\":2913:3039   */\n    tag_184:\n        /* \"#utility.yul\":2963:2972   */\n      0x00\n        /* \"#utility.yul\":2996:3033   */\n      tag_250\n        /* \"#utility.yul\":3027:3032   */\n      dup3\n        /* \"#utility.yul\":2996:3033   */\n      tag_183\n      jump\t// in\n    tag_250:\n        /* \"#utility.yul\":2983:3033   */\n      swap1\n      pop\n        /* \"#utility.yul\":2913:3039   */\n      swap2\n      swap1\n      pop\n      jump\t// out\n        /* \"#utility.yul\":3045:3190   */\n    tag_185:\n        /* \"#utility.yul\":3114:3123   */\n      0x00\n        /* \"#utility.yul\":3147:3184   */\n      tag_252\n        /* \"#utility.yul\":3178:3183   */\n      dup3\n        /* \"#utility.yul\":3147:3184   */\n      tag_184\n      jump\t// in\n    tag_252:\n        /* \"#utility.yul\":3134:3184   */\n      swap1\n      pop\n        /* \"#utility.yul\":3045:3190   */\n      swap2\n      swap1\n      pop\n      jump\t// out\n        /* \"#utility.yul\":3196:3365   */\n    tag_186:\n        /* \"#utility.yul\":3302:3358   */\n      tag_254\n        /* \"#utility.yul\":3352:3357   */\n      dup2\n        /* \"#utility.yul\":3302:3358   */\n      tag_185\n      jump\t// in\n    tag_254:\n        /* \"#utility.yul\":3297:3300   */\n      dup3\n        /* \"#utility.yul\":3290:3359   */\n      mstore\n        /* \"#utility.yul\":3196:3365   */\n      pop\n      pop\n      jump\t// out\n        /* \"#utility.yul\":3371:3631   */\n    tag_35:\n        /* \"#utility.yul\":3483:3487   */\n      0x00\n        /* \"#utility.yul\":3521:3523   */\n      0x20\n        /* \"#utility.yul\":3510:3519   */\n      dup3\n        /* \"#utility.yul\":3506:3524   */\n      add\n        /* \"#utility.yul\":3498:3524   */\n      swap1\n      pop\n        /* \"#utility.yul\":3534:3624   */\n      tag_256\n        /* \"#utility.yul\":3621:3622   */\n      0x00\n        /* \"#utility.yul\":3610:3619   */\n      dup4\n        /* \"#utility.yul\":3606:3623   */\n      add\n        /* \"#utility.yul\":3597:3603   */\n      dup5\n        /* \"#utility.yul\":3534:3624   */\n      tag_186\n      jump\t// in\n    tag_256:\n        /* \"#utility.yul\":3371:3631   */\n      swap3\n      swap2\n      pop\n      pop\n      jump\t// out\n        /* \"#utility.yul\":3637:3755   */\n    tag_187:\n        /* \"#utility.yul\":3724:3748   */\n      tag_258\n        /* \"#utility.yul\":3742:3747   */\n      dup2\n        /* \"#utility.yul\":3724:3748   */\n      tag_175\n      jump\t// in\n    tag_258:\n        /* \"#utility.yul\":3719:3722   */\n      dup3\n        /* \"#utility.yul\":3712:3749   */\n      mstore\n        /* \"#utility.yul\":3637:3755   */\n      pop\n      pop\n      jump\t// out\n        /* \"#utility.yul\":3761:3983   */\n    tag_41:\n        /* \"#utility.yul\":3854:3858   */\n      0x00\n        /* \"#utility.yul\":3892:3894   */\n      0x20\n        /* \"#utility.yul\":3881:3890   */\n      dup3\n        /* \"#utility.yul\":3877:3895   */\n      add\n        /* \"#utility.yul\":3869:3895   */\n      swap1\n      pop\n        /* \"#utility.yul\":3905:3976   */\n      tag_260\n        /* \"#utility.yul\":3973:3974   */\n      0x00\n        /* \"#utility.yul\":3962:3971   */\n      dup4\n        /* \"#utility.yul\":3958:3975   */\n      add\n        /* \"#utility.yul\":3949:3955   */\n      dup5\n        /* \"#utility.yul\":3905:3976   */\n      tag_187\n      jump\t// in\n    tag_260:\n        /* \"#utility.yul\":3761:3983   */\n      swap3\n      swap2\n      pop\n      pop\n      jump\t// out\n        /* \"#utility.yul\":3989:4135   */\n    tag_188:\n        /* \"#utility.yul\":4059:4068   */\n      0x00\n        /* \"#utility.yul\":4092:4129   */\n      tag_262\n        /* \"#utility.yul\":4123:4128   */\n      dup3\n        /* \"#utility.yul\":4092:4129   */\n      tag_184\n      jump\t// in\n    tag_262:\n        /* \"#utility.yul\":4079:4129   */\n      swap1\n      pop\n        /* \"#utility.yul\":3989:4135   */\n      swap2\n      swap1\n      pop\n      jump\t// out\n        /* \"#utility.yul\":4141:4312   */\n    tag_189:\n        /* \"#utility.yul\":4248:4305   */\n      tag_264\n        /* \"#utility.yul\":4299:4304   */\n      dup2\n        /* \"#utility.yul\":4248:4305   */\n      tag_188\n      jump\t// in\n    tag_264:\n        /* \"#utility.yul\":4243:4246   */\n      dup3\n        /* \"#utility.yul\":4236:4306   */\n      mstore\n        /* \"#utility.yul\":4141:4312   */\n      pop\n      pop\n      jump\t// out\n        /* \"#utility.yul\":4318:4580   */\n    tag_57:\n        /* \"#utility.yul\":4431:4435   */\n      0x00\n        /* \"#utility.yul\":4469:4471   */\n      0x20\n        /* \"#utility.yul\":4458:4467   */\n      dup3\n        /* \"#utility.yul\":4454:4472   */\n      add\n        /* \"#utility.yul\":4446:4472   */\n      swap1\n      pop\n        /* \"#utility.yul\":4482:4573   */\n      tag_266\n        /* \"#utility.yul\":4570:4571   */\n      0x00\n        /* \"#utility.yul\":4559:4568   */\n      dup4\n        /* \"#utility.yul\":4555:4572   */\n      add\n        /* \"#utility.yul\":4546:4552   */\n      dup5\n        /* \"#utility.yul\":4482:4573   */\n      tag_189\n      jump\t// in\n    tag_266:\n        /* \"#utility.yul\":4318:4580   */\n      swap3\n      swap2\n      pop\n      pop\n      jump\t// out\n        /* \"#utility.yul\":4586:4755   */\n    tag_190:\n        /* \"#utility.yul\":4670:4681   */\n      0x00\n        /* \"#utility.yul\":4704:4710   */\n      dup3\n        /* \"#utility.yul\":4699:4702   */\n      dup3\n        /* \"#utility.yul\":4692:4711   */\n      mstore\n        /* \"#utility.yul\":4744:4748   */\n      0x20\n        /* \"#utility.yul\":4739:4742   */\n      dup3\n        /* \"#utility.yul\":4735:4749   */\n      add\n        /* \"#utility.yul\":4720:4749   */\n      swap1\n      pop\n        /* \"#utility.yul\":4586:4755   */\n      swap3\n      swap2\n      pop\n      pop\n      jump\t// out\n        /* \"#utility.yul\":4761:4938   */\n    tag_191:\n        /* \"#utility.yul\":4901:4930   */\n      0x496e73756666696369656e74207374616b65642062616c616e63650000000000\n        /* \"#utility.yul\":4897:4898   */\n      0x00\n        /* \"#utility.yul\":4889:4895   */\n      dup3\n        /* \"#utility.yul\":4885:4899   */\n      add\n        /* \"#utility.yul\":4878:4931   */\n      mstore\n        /* \"#utility.yul\":4761:4938   */\n      pop\n      jump\t// out\n        /* \"#utility.yul\":4944:5310   */\n    tag_192:\n        /* \"#utility.yul\":5086:5089   */\n      0x00\n        /* \"#utility.yul\":5107:5174   */\n      tag_270\n        /* \"#utility.yul\":5171:5173   */\n      0x1b\n        /* \"#utility.yul\":5166:5169   */\n      dup4\n        /* \"#utility.yul\":5107:5174   */\n      tag_190\n      jump\t// in\n    tag_270:\n        /* \"#utility.yul\":5100:5174   */\n      swap2\n      pop\n        /* \"#utility.yul\":5183:5276   */\n      tag_271\n        /* \"#utility.yul\":5272:5275   */\n      dup3\n        /* \"#utility.yul\":5183:5276   */\n      tag_191\n      jump\t// in\n    tag_271:\n        /* \"#utility.yul\":5301:5303   */\n      0x20\n        /* \"#utility.yul\":5296:5299   */\n      dup3\n        /* \"#utility.yul\":5292:5304   */\n      add\n        /* \"#utility.yul\":5285:5304   */\n      swap1\n      pop\n        /* \"#utility.yul\":4944:5310   */\n      swap2\n      swap1\n      pop\n      jump\t// out\n        /* \"#utility.yul\":5316:5735   */\n    tag_61:\n        /* \"#utility.yul\":5482:5486   */\n      0x00\n        /* \"#utility.yul\":5520:5522   */\n      0x20\n        /* \"#utility.yul\":5509:5518   */\n      dup3\n        /* \"#utility.yul\":5505:5523   */\n      add\n        /* \"#utility.yul\":5497:5523   */\n      swap1\n      pop\n        /* \"#utility.yul\":5569:5578   */\n      dup2\n        /* \"#utility.yul\":5563:5567   */\n      dup2\n        /* \"#utility.yul\":5559:5579   */\n      sub\n        /* \"#utility.yul\":5555:5556   */\n      0x00\n        /* \"#utility.yul\":5544:5553   */\n      dup4\n        /* \"#utility.yul\":5540:5557   */\n      add\n        /* \"#utility.yul\":5533:5580   */\n      mstore\n        /* \"#utility.yul\":5597:5728   */\n      tag_273\n        /* \"#utility.yul\":5723:5727   */\n      dup2\n        /* \"#utility.yul\":5597:5728   */\n      tag_192\n      jump\t// in\n    tag_273:\n        /* \"#utility.yul\":5589:5728   */\n      swap1\n      pop\n        /* \"#utility.yul\":5316:5735   */\n      swap2\n      swap1\n      pop\n      jump\t// out\n        /* \"#utility.yul\":5741:5921   */\n    tag_193:\n        /* \"#utility.yul\":5789:5866   */\n      0x4e487b7100000000000000000000000000000000000000000000000000000000\n        /* \"#utility.yul\":5786:5787   */\n      0x00\n        /* \"#utility.yul\":5779:5867   */\n      mstore\n        /* \"#utility.yul\":5886:5890   */\n      0x11\n        /* \"#utility.yul\":5883:5884   */\n      0x04\n        /* \"#utility.yul\":5876:5891   */\n      mstore\n        /* \"#utility.yul\":5910:5914   */\n      0x24\n        /* \"#utility.yul\":5907:5908   */\n      0x00\n        /* \"#utility.yul\":5900:5915   */\n      revert\n        /* \"#utility.yul\":5927:6121   */\n    tag_64:\n        /* \"#utility.yul\":5967:5971   */\n      0x00\n        /* \"#utility.yul\":5987:6007   */\n      tag_276\n        /* \"#utility.yul\":6005:6006   */\n      dup3\n        /* \"#utility.yul\":5987:6007   */\n      tag_178\n      jump\t// in\n    tag_276:\n        /* \"#utility.yul\":5982:6007   */\n      swap2\n      pop\n        /* \"#utility.yul\":6021:6041   */\n      tag_277\n        /* \"#utility.yul\":6039:6040   */\n      dup4\n        /* \"#utility.yul\":6021:6041   */\n      tag_178\n      jump\t// in\n    tag_277:\n        /* \"#utility.yul\":6016:6041   */\n      swap3\n      pop\n        /* \"#utility.yul\":6065:6066   */\n      dup3\n        /* \"#utility.yul\":6062:6063   */\n      dup3\n        /* \"#utility.yul\":6058:6067   */\n      sub\n        /* \"#utility.yul\":6050:6067   */\n      swap1\n      pop\n        /* \"#utility.yul\":6089:6090   */\n      dup2\n        /* \"#utility.yul\":6083:6087   */\n      dup2\n        /* \"#utility.yul\":6080:6091   */\n      gt\n        /* \"#utility.yul\":6077:6114   */\n      iszero\n      tag_278\n      jumpi\n        /* \"#utility.yul\":6094:6112   */\n      tag_279\n      tag_193\n      jump\t// in\n    tag_279:\n        /* \"#utility.yul\":6077:6114   */\n    tag_278:\n        /* \"#utility.yul\":5927:6121   */\n      swap3\n      swap2\n      pop\n      pop\n      jump\t// out\n        /* \"#utility.yul\":6127:6459   */\n    tag_66:\n        /* \"#utility.yul\":6248:6252   */\n      0x00\n        /* \"#utility.yul\":6286:6288   */\n      0x40\n        /* \"#utility.yul\":6275:6284   */\n      dup3\n        /* \"#utility.yul\":6271:6289   */\n      add\n        /* \"#utility.yul\":6263:6289   */\n      swap1\n      pop\n        /* \"#utility.yul\":6299:6370   */\n      tag_281\n        /* \"#utility.yul\":6367:6368   */\n      0x00\n        /* \"#utility.yul\":6356:6365   */\n      dup4\n        /* \"#utility.yul\":6352:6369   */\n      add\n        /* \"#utility.yul\":6343:6349   */\n      dup6\n        /* \"#utility.yul\":6299:6370   */\n      tag_187\n      jump\t// in\n    tag_281:\n        /* \"#utility.yul\":6380:6452   */\n      tag_282\n        /* \"#utility.yul\":6448:6450   */\n      0x20\n        /* \"#utility.yul\":6437:6446   */\n      dup4\n        /* \"#utility.yul\":6433:6451   */\n      add\n        /* \"#utility.yul\":6424:6430   */\n      dup5\n        /* \"#utility.yul\":6380:6452   */\n      tag_179\n      jump\t// in\n    tag_282:\n        /* \"#utility.yul\":6127:6459   */\n      swap4\n      swap3\n      pop\n      pop\n      pop\n      jump\t// out\n        /* \"#utility.yul\":6465:6555   */\n    tag_194:\n        /* \"#utility.yul\":6499:6506   */\n      0x00\n        /* \"#utility.yul\":6542:6547   */\n      dup2\n        /* \"#utility.yul\":6535:6548   */\n      iszero\n        /* \"#utility.yul\":6528:6549   */\n      iszero\n        /* \"#utility.yul\":6517:6549   */\n      swap1\n      pop\n        /* \"#utility.yul\":6465:6555   */\n      swap2\n      swap1\n      pop\n      jump\t// out\n        /* \"#utility.yul\":6561:6677   */\n    tag_195:\n        /* \"#utility.yul\":6631:6652   */\n      tag_285\n        /* \"#utility.yul\":6646:6651   */\n      dup2\n        /* \"#utility.yul\":6631:6652   */\n      tag_194\n      jump\t// in\n    tag_285:\n        /* \"#utility.yul\":6624:6629   */\n      dup2\n        /* \"#utility.yul\":6621:6653   */\n      eq\n        /* \"#utility.yul\":6611:6671   */\n      tag_286\n      jumpi\n        /* \"#utility.yul\":6667:6668   */\n      0x00\n        /* \"#utility.yul\":6664:6665   */\n      dup1\n        /* \"#utility.yul\":6657:6669   */\n      revert\n        /* \"#utility.yul\":6611:6671   */\n    tag_286:\n        /* \"#utility.yul\":6561:6677   */\n      pop\n      jump\t// out\n        /* \"#utility.yul\":6683:6820   */\n    tag_196:\n        /* \"#utility.yul\":6737:6742   */\n      0x00\n        /* \"#utility.yul\":6768:6774   */\n      dup2\n        /* \"#utility.yul\":6762:6775   */\n      mload\n        /* \"#utility.yul\":6753:6775   */\n      swap1\n      pop\n        /* \"#utility.yul\":6784:6814   */\n      tag_288\n        /* \"#utility.yul\":6808:6813   */\n      dup2\n        /* \"#utility.yul\":6784:6814   */\n      tag_195\n      jump\t// in\n    tag_288:\n        /* \"#utility.yul\":6683:6820   */\n      swap3\n      swap2\n      pop\n      pop\n      jump\t// out\n        /* \"#utility.yul\":6826:7171   */\n    tag_70:\n        /* \"#utility.yul\":6893:6899   */\n      0x00\n        /* \"#utility.yul\":6942:6944   */\n      0x20\n        /* \"#utility.yul\":6930:6939   */\n      dup3\n        /* \"#utility.yul\":6921:6928   */\n      dup5\n        /* \"#utility.yul\":6917:6940   */\n      sub\n        /* \"#utility.yul\":6913:6945   */\n      slt\n        /* \"#utility.yul\":6910:7029   */\n      iszero\n      tag_290\n      jumpi\n        /* \"#utility.yul\":6948:7027   */\n      tag_291\n      tag_172\n      jump\t// in\n    tag_291:\n        /* \"#utility.yul\":6910:7029   */\n    tag_290:\n        /* \"#utility.yul\":7068:7069   */\n      0x00\n        /* \"#utility.yul\":7093:7154   */\n      tag_292\n        /* \"#utility.yul\":7146:7153   */\n      dup5\n        /* \"#utility.yul\":7137:7143   */\n      dup3\n        /* \"#utility.yul\":7126:7135   */\n      dup6\n        /* \"#utility.yul\":7122:7144   */\n      add\n        /* \"#utility.yul\":7093:7154   */\n      tag_196\n      jump\t// in\n    tag_292:\n        /* \"#utility.yul\":7083:7154   */\n      swap2\n      pop\n        /* \"#utility.yul\":7039:7164   */\n      pop\n        /* \"#utility.yul\":6826:7171   */\n      swap3\n      swap2\n      pop\n      pop\n      jump\t// out\n        /* \"#utility.yul\":7177:7346   */\n    tag_197:\n        /* \"#utility.yul\":7317:7338   */\n      0x4e6f207265776172647320746f20636c61696d00000000000000000000000000\n        /* \"#utility.yul\":7313:7314   */\n      0x00\n        /* \"#utility.yul\":7305:7311   */\n      dup3\n        /* \"#utility.yul\":7301:7315   */\n      add\n        /* \"#utility.yul\":7294:7339   */\n      mstore\n        /* \"#utility.yul\":7177:7346   */\n      pop\n      jump\t// out\n        /* \"#utility.yul\":7352:7718   */\n    tag_198:\n        /* \"#utility.yul\":7494:7497   */\n      0x00\n        /* \"#utility.yul\":7515:7582   */\n      tag_295\n        /* \"#utility.yul\":7579:7581   */\n      0x13\n        /* \"#utility.yul\":7574:7577   */\n      dup4\n        /* \"#utility.yul\":7515:7582   */\n      tag_190\n      jump\t// in\n    tag_295:\n        /* \"#utility.yul\":7508:7582   */\n      swap2\n      pop\n        /* \"#utility.yul\":7591:7684   */\n      tag_296\n        /* \"#utility.yul\":7680:7683   */\n      dup3\n        /* \"#utility.yul\":7591:7684   */\n      tag_197\n      jump\t// in\n    tag_296:\n        /* \"#utility.yul\":7709:7711   */\n      0x20\n        /* \"#utility.yul\":7704:7707   */\n      dup3\n        /* \"#utility.yul\":7700:7712   */\n      add\n        /* \"#utility.yul\":7693:7712   */\n      swap1\n      pop\n        /* \"#utility.yul\":7352:7718   */\n      swap2\n      swap1\n      pop\n      jump\t// out\n        /* \"#utility.yul\":7724:8143   */\n    tag_75:\n        /* \"#utility.yul\":7890:7894   */\n      0x00\n        /* \"#utility.yul\":7928:7930   */\n      0x20\n        /* \"#utility.yul\":7917:7926   */\n      dup3\n        /* \"#utility.yul\":7913:7931   */\n      add\n        /* \"#utility.yul\":7905:7931   */\n      swap1\n      pop\n        /* \"#utility.yul\":7977:7986   */\n      dup2\n        /* \"#utility.yul\":7971:7975   */\n      dup2\n        /* \"#utility.yul\":7967:7987   */\n      sub\n        /* \"#utility.yul\":7963:7964   */\n      0x00\n        /* \"#utility.yul\":7952:7961   */\n      dup4\n        /* \"#utility.yul\":7948:7965   */\n      add\n        /* \"#utility.yul\":7941:7988   */\n      mstore\n        /* \"#utility.yul\":8005:8136   */\n      tag_298\n        /* \"#utility.yul\":8131:8135   */\n      dup2\n        /* \"#utility.yul\":8005:8136   */\n      tag_198\n      jump\t// in\n    tag_298:\n        /* \"#utility.yul\":7997:8136   */\n      swap1\n      pop\n        /* \"#utility.yul\":7724:8143   */\n      swap2\n      swap1\n      pop\n      jump\t// out\n        /* \"#utility.yul\":8149:8234   */\n    tag_199:\n        /* \"#utility.yul\":8194:8201   */\n      0x00\n        /* \"#utility.yul\":8223:8228   */\n      dup2\n        /* \"#utility.yul\":8212:8228   */\n      swap1\n      pop\n        /* \"#utility.yul\":8149:8234   */\n      swap2\n      swap1\n      pop\n      jump\t// out\n        /* \"#utility.yul\":8240:8341   */\n    tag_200:\n        /* \"#utility.yul\":8276:8283   */\n      0x00\n        /* \"#utility.yul\":8316:8334   */\n      0xffffffffffffffff\n        /* \"#utility.yul\":8309:8314   */\n      dup3\n        /* \"#utility.yul\":8305:8335   */\n      and\n        /* \"#utility.yul\":8294:8335   */\n      swap1\n      pop\n        /* \"#utility.yul\":8240:8341   */\n      swap2\n      swap1\n      pop\n      jump\t// out\n        /* \"#utility.yul\":8347:8503   */\n    tag_201:\n        /* \"#utility.yul\":8404:8413   */\n      0x00\n        /* \"#utility.yul\":8437:8497   */\n      tag_302\n        /* \"#utility.yul\":8454:8496   */\n      tag_303\n        /* \"#utility.yul\":8463:8495   */\n      tag_304\n        /* \"#utility.yul\":8489:8494   */\n      dup5\n        /* \"#utility.yul\":8463:8495   */\n      tag_199\n      jump\t// in\n    tag_304:\n        /* \"#utility.yul\":8454:8496   */\n      tag_182\n      jump\t// in\n    tag_303:\n        /* \"#utility.yul\":8437:8497   */\n      tag_200\n      jump\t// in\n    tag_302:\n        /* \"#utility.yul\":8424:8497   */\n      swap1\n      pop\n        /* \"#utility.yul\":8347:8503   */\n      swap2\n      swap1\n      pop\n      jump\t// out\n        /* \"#utility.yul\":8509:8654   */\n    tag_202:\n        /* \"#utility.yul\":8603:8647   */\n      tag_306\n        /* \"#utility.yul\":8641:8646   */\n      dup2\n        /* \"#utility.yul\":8603:8647   */\n      tag_201\n      jump\t// in\n    tag_306:\n        /* \"#utility.yul\":8598:8601   */\n      dup3\n        /* \"#utility.yul\":8591:8648   */\n      mstore\n        /* \"#utility.yul\":8509:8654   */\n      pop\n      pop\n      jump\t// out\n        /* \"#utility.yul\":8660:8896   */\n    tag_94:\n        /* \"#utility.yul\":8760:8764   */\n      0x00\n        /* \"#utility.yul\":8798:8800   */\n      0x20\n        /* \"#utility.yul\":8787:8796   */\n      dup3\n        /* \"#utility.yul\":8783:8801   */\n      add\n        /* \"#utility.yul\":8775:8801   */\n      swap1\n      pop\n        /* \"#utility.yul\":8811:8889   */\n      tag_308\n        /* \"#utility.yul\":8886:8887   */\n      0x00\n        /* \"#utility.yul\":8875:8884   */\n      dup4\n        /* \"#utility.yul\":8871:8888   */\n      add\n        /* \"#utility.yul\":8862:8868   */\n      dup5\n        /* \"#utility.yul\":8811:8889   */\n      tag_202\n      jump\t// in\n    tag_308:\n        /* \"#utility.yul\":8660:8896   */\n      swap3\n      swap2\n      pop\n      pop\n      jump\t// out\n        /* \"#utility.yul\":8902:9134   */\n    tag_203:\n        /* \"#utility.yul\":9042:9076   */\n      0x54686520616d6f756e742073686f756c6420626520616c776179732067726561\n        /* \"#utility.yul\":9038:9039   */\n      0x00\n        /* \"#utility.yul\":9030:9036   */\n      dup3\n        /* \"#utility.yul\":9026:9040   */\n      add\n        /* \"#utility.yul\":9019:9077   */\n      mstore\n        /* \"#utility.yul\":9111:9126   */\n      0x746572207468616e207a65726f00000000000000000000000000000000000000\n        /* \"#utility.yul\":9106:9108   */\n      0x20\n        /* \"#utility.yul\":9098:9104   */\n      dup3\n        /* \"#utility.yul\":9094:9109   */\n      add\n        /* \"#utility.yul\":9087:9127   */\n      mstore\n        /* \"#utility.yul\":8902:9134   */\n      pop\n      jump\t// out\n        /* \"#utility.yul\":9140:9506   */\n    tag_204:\n        /* \"#utility.yul\":9282:9285   */\n      0x00\n        /* \"#utility.yul\":9303:9370   */\n      tag_311\n        /* \"#utility.yul\":9367:9369   */\n      0x2d\n        /* \"#utility.yul\":9362:9365   */\n      dup4\n        /* \"#utility.yul\":9303:9370   */\n      tag_190\n      jump\t// in\n    tag_311:\n        /* \"#utility.yul\":9296:9370   */\n      swap2\n      pop\n        /* \"#utility.yul\":9379:9472   */\n      tag_312\n        /* \"#utility.yul\":9468:9471   */\n      dup3\n        /* \"#utility.yul\":9379:9472   */\n      tag_203\n      jump\t// in\n    tag_312:\n        /* \"#utility.yul\":9497:9499   */\n      0x40\n        /* \"#utility.yul\":9492:9495   */\n      dup3\n        /* \"#utility.yul\":9488:9500   */\n      add\n        /* \"#utility.yul\":9481:9500   */\n      swap1\n      pop\n        /* \"#utility.yul\":9140:9506   */\n      swap2\n      swap1\n      pop\n      jump\t// out\n        /* \"#utility.yul\":9512:9931   */\n    tag_107:\n        /* \"#utility.yul\":9678:9682   */\n      0x00\n        /* \"#utility.yul\":9716:9718   */\n      0x20\n        /* \"#utility.yul\":9705:9714   */\n      dup3\n        /* \"#utility.yul\":9701:9719   */\n      add\n        /* \"#utility.yul\":9693:9719   */\n      swap1\n      pop\n        /* \"#utility.yul\":9765:9774   */\n      dup2\n        /* \"#utility.yul\":9759:9763   */\n      dup2\n        /* \"#utility.yul\":9755:9775   */\n      sub\n        /* \"#utility.yul\":9751:9752   */\n      0x00\n        /* \"#utility.yul\":9740:9749   */\n      dup4\n        /* \"#utility.yul\":9736:9753   */\n      add\n        /* \"#utility.yul\":9729:9776   */\n      mstore\n        /* \"#utility.yul\":9793:9924   */\n      tag_314\n        /* \"#utility.yul\":9919:9923   */\n      dup2\n        /* \"#utility.yul\":9793:9924   */\n      tag_204\n      jump\t// in\n    tag_314:\n        /* \"#utility.yul\":9785:9924   */\n      swap1\n      pop\n        /* \"#utility.yul\":9512:9931   */\n      swap2\n      swap1\n      pop\n      jump\t// out\n        /* \"#utility.yul\":9937:10269   */\n    tag_109:\n        /* \"#utility.yul\":10058:10062   */\n      0x00\n        /* \"#utility.yul\":10096:10098   */\n      0x40\n        /* \"#utility.yul\":10085:10094   */\n      dup3\n        /* \"#utility.yul\":10081:10099   */\n      add\n        /* \"#utility.yul\":10073:10099   */\n      swap1\n      pop\n        /* \"#utility.yul\":10109:10180   */\n      tag_316\n        /* \"#utility.yul\":10177:10178   */\n      0x00\n        /* \"#utility.yul\":10166:10175   */\n      dup4\n        /* \"#utility.yul\":10162:10179   */\n      add\n        /* \"#utility.yul\":10153:10159   */\n      dup6\n        /* \"#utility.yul\":10109:10180   */\n      tag_187\n      jump\t// in\n    tag_316:\n        /* \"#utility.yul\":10190:10262   */\n      tag_317\n        /* \"#utility.yul\":10258:10260   */\n      0x20\n        /* \"#utility.yul\":10247:10256   */\n      dup4\n        /* \"#utility.yul\":10243:10261   */\n      add\n        /* \"#utility.yul\":10234:10240   */\n      dup5\n        /* \"#utility.yul\":10190:10262   */\n      tag_187\n      jump\t// in\n    tag_317:\n        /* \"#utility.yul\":9937:10269   */\n      swap4\n      swap3\n      pop\n      pop\n      pop\n      jump\t// out\n        /* \"#utility.yul\":10275:10418   */\n    tag_205:\n        /* \"#utility.yul\":10332:10337   */\n      0x00\n        /* \"#utility.yul\":10363:10369   */\n      dup2\n        /* \"#utility.yul\":10357:10370   */\n      mload\n        /* \"#utility.yul\":10348:10370   */\n      swap1\n      pop\n        /* \"#utility.yul\":10379:10412   */\n      tag_319\n        /* \"#utility.yul\":10406:10411   */\n      dup2\n        /* \"#utility.yul\":10379:10412   */\n      tag_180\n      jump\t// in\n    tag_319:\n        /* \"#utility.yul\":10275:10418   */\n      swap3\n      swap2\n      pop\n      pop\n      jump\t// out\n        /* \"#utility.yul\":10424:10775   */\n    tag_113:\n        /* \"#utility.yul\":10494:10500   */\n      0x00\n        /* \"#utility.yul\":10543:10545   */\n      0x20\n        /* \"#utility.yul\":10531:10540   */\n      dup3\n        /* \"#utility.yul\":10522:10529   */\n      dup5\n        /* \"#utility.yul\":10518:10541   */\n      sub\n        /* \"#utility.yul\":10514:10546   */\n      slt\n        /* \"#utility.yul\":10511:10630   */\n      iszero\n      tag_321\n      jumpi\n        /* \"#utility.yul\":10549:10628   */\n      tag_322\n      tag_172\n      jump\t// in\n    tag_322:\n        /* \"#utility.yul\":10511:10630   */\n    tag_321:\n        /* \"#utility.yul\":10669:10670   */\n      0x00\n        /* \"#utility.yul\":10694:10758   */\n      tag_323\n        /* \"#utility.yul\":10750:10757   */\n      dup5\n        /* \"#utility.yul\":10741:10747   */\n      dup3\n        /* \"#utility.yul\":10730:10739   */\n      dup6\n        /* \"#utility.yul\":10726:10748   */\n      add\n        /* \"#utility.yul\":10694:10758   */\n      tag_205\n      jump\t// in\n    tag_323:\n        /* \"#utility.yul\":10684:10758   */\n      swap2\n      pop\n        /* \"#utility.yul\":10640:10768   */\n      pop\n        /* \"#utility.yul\":10424:10775   */\n      swap3\n      swap2\n      pop\n      pop\n      jump\t// out\n        /* \"#utility.yul\":10781:11007   */\n    tag_206:\n        /* \"#utility.yul\":10921:10955   */\n      0x4e6f74207365742074686520656e6f75676820616d6f756e7420666f7220616c\n        /* \"#utility.yul\":10917:10918   */\n      0x00\n        /* \"#utility.yul\":10909:10915   */\n      dup3\n        /* \"#utility.yul\":10905:10919   */\n      add\n        /* \"#utility.yul\":10898:10956   */\n      mstore\n        /* \"#utility.yul\":10990:10999   */\n      0x6c6f77616e636500000000000000000000000000000000000000000000000000\n        /* \"#utility.yul\":10985:10987   */\n      0x20\n        /* \"#utility.yul\":10977:10983   */\n      dup3\n        /* \"#utility.yul\":10973:10988   */\n      add\n        /* \"#utility.yul\":10966:11000   */\n      mstore\n        /* \"#utility.yul\":10781:11007   */\n      pop\n      jump\t// out\n        /* \"#utility.yul\":11013:11379   */\n    tag_207:\n        /* \"#utility.yul\":11155:11158   */\n      0x00\n        /* \"#utility.yul\":11176:11243   */\n      tag_326\n        /* \"#utility.yul\":11240:11242   */\n      0x27\n        /* \"#utility.yul\":11235:11238   */\n      dup4\n        /* \"#utility.yul\":11176:11243   */\n      tag_190\n      jump\t// in\n    tag_326:\n        /* \"#utility.yul\":11169:11243   */\n      swap2\n      pop\n        /* \"#utility.yul\":11252:11345   */\n      tag_327\n        /* \"#utility.yul\":11341:11344   */\n      dup3\n        /* \"#utility.yul\":11252:11345   */\n      tag_206\n      jump\t// in\n    tag_327:\n        /* \"#utility.yul\":11370:11372   */\n      0x40\n        /* \"#utility.yul\":11365:11368   */\n      dup3\n        /* \"#utility.yul\":11361:11373   */\n      add\n        /* \"#utility.yul\":11354:11373   */\n      swap1\n      pop\n        /* \"#utility.yul\":11013:11379   */\n      swap2\n      swap1\n      pop\n      jump\t// out\n        /* \"#utility.yul\":11385:11804   */\n    tag_116:\n        /* \"#utility.yul\":11551:11555   */\n      0x00\n        /* \"#utility.yul\":11589:11591   */\n      0x20\n        /* \"#utility.yul\":11578:11587   */\n      dup3\n        /* \"#utility.yul\":11574:11592   */\n      add\n        /* \"#utility.yul\":11566:11592   */\n      swap1\n      pop\n        /* \"#utility.yul\":11638:11647   */\n      dup2\n        /* \"#utility.yul\":11632:11636   */\n      dup2\n        /* \"#utility.yul\":11628:11648   */\n      sub\n        /* \"#utility.yul\":11624:11625   */\n      0x00\n        /* \"#utility.yul\":11613:11622   */\n      dup4\n        /* \"#utility.yul\":11609:11626   */\n      add\n        /* \"#utility.yul\":11602:11649   */\n      mstore\n        /* \"#utility.yul\":11666:11797   */\n      tag_329\n        /* \"#utility.yul\":11792:11796   */\n      dup2\n        /* \"#utility.yul\":11666:11797   */\n      tag_207\n      jump\t// in\n    tag_329:\n        /* \"#utility.yul\":11658:11797   */\n      swap1\n      pop\n        /* \"#utility.yul\":11385:11804   */\n      swap2\n      swap1\n      pop\n      jump\t// out\n        /* \"#utility.yul\":11810:12252   */\n    tag_118:\n        /* \"#utility.yul\":11959:11963   */\n      0x00\n        /* \"#utility.yul\":11997:11999   */\n      0x60\n        /* \"#utility.yul\":11986:11995   */\n      dup3\n        /* \"#utility.yul\":11982:12000   */\n      add\n        /* \"#utility.yul\":11974:12000   */\n      swap1\n      pop\n        /* \"#utility.yul\":12010:12081   */\n      tag_331\n        /* \"#utility.yul\":12078:12079   */\n      0x00\n        /* \"#utility.yul\":12067:12076   */\n      dup4\n        /* \"#utility.yul\":12063:12080   */\n      add\n        /* \"#utility.yul\":12054:12060   */\n      dup7\n        /* \"#utility.yul\":12010:12081   */\n      tag_187\n      jump\t// in\n    tag_331:\n        /* \"#utility.yul\":12091:12163   */\n      tag_332\n        /* \"#utility.yul\":12159:12161   */\n      0x20\n        /* \"#utility.yul\":12148:12157   */\n      dup4\n        /* \"#utility.yul\":12144:12162   */\n      add\n        /* \"#utility.yul\":12135:12141   */\n      dup6\n        /* \"#utility.yul\":12091:12163   */\n      tag_187\n      jump\t// in\n    tag_332:\n        /* \"#utility.yul\":12173:12245   */\n      tag_333\n        /* \"#utility.yul\":12241:12243   */\n      0x40\n        /* \"#utility.yul\":12230:12239   */\n      dup4\n        /* \"#utility.yul\":12226:12244   */\n      add\n        /* \"#utility.yul\":12217:12223   */\n      dup5\n        /* \"#utility.yul\":12173:12245   */\n      tag_179\n      jump\t// in\n    tag_333:\n        /* \"#utility.yul\":11810:12252   */\n      swap5\n      swap4\n      pop\n      pop\n      pop\n      pop\n      jump\t// out\n        /* \"#utility.yul\":12258:12449   */\n    tag_125:\n        /* \"#utility.yul\":12298:12301   */\n      0x00\n        /* \"#utility.yul\":12317:12337   */\n      tag_335\n        /* \"#utility.yul\":12335:12336   */\n      dup3\n        /* \"#utility.yul\":12317:12337   */\n      tag_178\n      jump\t// in\n    tag_335:\n        /* \"#utility.yul\":12312:12337   */\n      swap2\n      pop\n        /* \"#utility.yul\":12351:12371   */\n      tag_336\n        /* \"#utility.yul\":12369:12370   */\n      dup4\n        /* \"#utility.yul\":12351:12371   */\n      tag_178\n      jump\t// in\n    tag_336:\n        /* \"#utility.yul\":12346:12371   */\n      swap3\n      pop\n        /* \"#utility.yul\":12394:12395   */\n      dup3\n        /* \"#utility.yul\":12391:12392   */\n      dup3\n        /* \"#utility.yul\":12387:12396   */\n      add\n        /* \"#utility.yul\":12380:12396   */\n      swap1\n      pop\n        /* \"#utility.yul\":12415:12418   */\n      dup1\n        /* \"#utility.yul\":12412:12413   */\n      dup3\n        /* \"#utility.yul\":12409:12419   */\n      gt\n        /* \"#utility.yul\":12406:12442   */\n      iszero\n      tag_337\n      jumpi\n        /* \"#utility.yul\":12422:12440   */\n      tag_338\n      tag_193\n      jump\t// in\n    tag_338:\n        /* \"#utility.yul\":12406:12442   */\n    tag_337:\n        /* \"#utility.yul\":12258:12449   */\n      swap3\n      swap2\n      pop\n      pop\n      jump\t// out\n        /* \"#utility.yul\":12455:12865   */\n    tag_130:\n        /* \"#utility.yul\":12495:12502   */\n      0x00\n        /* \"#utility.yul\":12518:12538   */\n      tag_340\n        /* \"#utility.yul\":12536:12537   */\n      dup3\n        /* \"#utility.yul\":12518:12538   */\n      tag_178\n      jump\t// in\n    tag_340:\n        /* \"#utility.yul\":12513:12538   */\n      swap2\n      pop\n        /* \"#utility.yul\":12552:12572   */\n      tag_341\n        /* \"#utility.yul\":12570:12571   */\n      dup4\n        /* \"#utility.yul\":12552:12572   */\n      tag_178\n      jump\t// in\n    tag_341:\n        /* \"#utility.yul\":12547:12572   */\n      swap3\n      pop\n        /* \"#utility.yul\":12607:12608   */\n      dup3\n        /* \"#utility.yul\":12604:12605   */\n      dup3\n        /* \"#utility.yul\":12600:12609   */\n      mul\n        /* \"#utility.yul\":12629:12659   */\n      tag_342\n        /* \"#utility.yul\":12647:12658   */\n      dup2\n        /* \"#utility.yul\":12629:12659   */\n      tag_178\n      jump\t// in\n    tag_342:\n        /* \"#utility.yul\":12618:12659   */\n      swap2\n      pop\n        /* \"#utility.yul\":12808:12809   */\n      dup3\n        /* \"#utility.yul\":12799:12806   */\n      dup3\n        /* \"#utility.yul\":12795:12810   */\n      div\n        /* \"#utility.yul\":12792:12793   */\n      dup5\n        /* \"#utility.yul\":12789:12811   */\n      eq\n        /* \"#utility.yul\":12769:12770   */\n      dup4\n        /* \"#utility.yul\":12762:12771   */\n      iszero\n        /* \"#utility.yul\":12742:12825   */\n      or\n        /* \"#utility.yul\":12719:12858   */\n      tag_343\n      jumpi\n        /* \"#utility.yul\":12838:12856   */\n      tag_344\n      tag_193\n      jump\t// in\n    tag_344:\n        /* \"#utility.yul\":12719:12858   */\n    tag_343:\n        /* \"#utility.yul\":12503:12865   */\n      pop\n        /* \"#utility.yul\":12455:12865   */\n      swap3\n      swap2\n      pop\n      pop\n      jump\t// out\n        /* \"#utility.yul\":12871:13051   */\n    tag_208:\n        /* \"#utility.yul\":12919:12996   */\n      0x4e487b7100000000000000000000000000000000000000000000000000000000\n        /* \"#utility.yul\":12916:12917   */\n      0x00\n        /* \"#utility.yul\":12909:12997   */\n      mstore\n        /* \"#utility.yul\":13016:13020   */\n      0x12\n        /* \"#utility.yul\":13013:13014   */\n      0x04\n        /* \"#utility.yul\":13006:13021   */\n      mstore\n        /* \"#utility.yul\":13040:13044   */\n      0x24\n        /* \"#utility.yul\":13037:13038   */\n      0x00\n        /* \"#utility.yul\":13030:13045   */\n      revert\n        /* \"#utility.yul\":13057:13242   */\n    tag_132:\n        /* \"#utility.yul\":13097:13098   */\n      0x00\n        /* \"#utility.yul\":13114:13134   */\n      tag_347\n        /* \"#utility.yul\":13132:13133   */\n      dup3\n        /* \"#utility.yul\":13114:13134   */\n      tag_178\n      jump\t// in\n    tag_347:\n        /* \"#utility.yul\":13109:13134   */\n      swap2\n      pop\n        /* \"#utility.yul\":13148:13168   */\n      tag_348\n        /* \"#utility.yul\":13166:13167   */\n      dup4\n        /* \"#utility.yul\":13148:13168   */\n      tag_178\n      jump\t// in\n    tag_348:\n        /* \"#utility.yul\":13143:13168   */\n      swap3\n      pop\n        /* \"#utility.yul\":13187:13188   */\n      dup3\n        /* \"#utility.yul\":13177:13212   */\n      tag_349\n      jumpi\n        /* \"#utility.yul\":13192:13210   */\n      tag_350\n      tag_208\n      jump\t// in\n    tag_350:\n        /* \"#utility.yul\":13177:13212   */\n    tag_349:\n        /* \"#utility.yul\":13234:13235   */\n      dup3\n        /* \"#utility.yul\":13231:13232   */\n      dup3\n        /* \"#utility.yul\":13227:13236   */\n      div\n        /* \"#utility.yul\":13222:13236   */\n      swap1\n      pop\n        /* \"#utility.yul\":13057:13242   */\n      swap3\n      swap2\n      pop\n      pop\n      jump\t// out\n\n    auxdata: 0xa26469706673582212209c10b97124c1f782b63c7ffa4317f41cdbe34d0ab0c55f2e5f14610193d11cf164736f6c634300081a0033\n}\n",
				"bytecode": {
					"linkReferences": {},
					"object": "6080604052348015600e575f80fd5b506116cd8061001c5f395ff3fe608060405234801561000f575f80fd5b50600436106100b2575f3560e01c80638da5cb5b1161006f5780638da5cb5b14610150578063a694fc3a1461016e578063acc3a9391461018a578063ba5a5319146101ba578063f2fde38b146101c4578063f7c618c1146101e0576100b2565b80630660f1e8146100b65780632e1a7d4d146100e6578063372500ab14610102578063485cc9551461010c57806351ed6a3014610128578063715018a614610146575b5f80fd5b6100d060048036038101906100cb919061101f565b6101fe565b6040516100dd9190611062565b60405180910390f35b61010060048036038101906100fb91906110a5565b610213565b005b61010a610417565b005b610126600480360381019061012191906110d0565b61063f565b005b610130610840565b60405161013d9190611169565b60405180910390f35b61014e610863565b005b610158610876565b6040516101659190611191565b60405180910390f35b610188600480360381019061018391906110a5565b6108ab565b005b6101a4600480360381019061019f919061101f565b610b59565b6040516101b19190611062565b60405180910390f35b6101c2610b6e565b005b6101de60048036038101906101d9919061101f565b610c75565b005b6101e8610cf9565b6040516101f591906111ca565b60405180910390f35b6004602052805f5260405f205f915090505481565b5f60035f3373ffffffffffffffffffffffffffffffffffffffff1673ffffffffffffffffffffffffffffffffffffffff1681526020019081526020015f205411610292576040517f08c379a00000000000000000000000000000000000000000000000000000000081526004016102899061123d565b60405180910390fd5b61029a610b6e565b8060035f3373ffffffffffffffffffffffffffffffffffffffff1673ffffffffffffffffffffffffffffffffffffffff1681526020019081526020015f20546102e39190611288565b60035f3373ffffffffffffffffffffffffffffffffffffffff1673ffffffffffffffffffffffffffffffffffffffff1681526020019081526020015f20819055505f8054906101000a900473ffffffffffffffffffffffffffffffffffffffff1673ffffffffffffffffffffffffffffffffffffffff1663a9059cbb33836040518363ffffffff1660e01b815260040161037e9291906112bb565b6020604051808303815f875af115801561039a573d5f803e3d5ffd5b505050506040513d601f19601f820116820180604052508101906103be9190611317565b50426002819055503373ffffffffffffffffffffffffffffffffffffffff167f884edad9ce6fa2440d8a54cc123490eb96d2768479d49ff9c7366125a94243648260405161040c9190611062565b60405180910390a250565b5f60045f3373ffffffffffffffffffffffffffffffffffffffff1673ffffffffffffffffffffffffffffffffffffffff1681526020019081526020015f205411610496576040517f08c379a000000000000000000000000000000000000000000000000000000000815260040161048d9061138c565b60405180910390fd5b60015f9054906101000a900473ffffffffffffffffffffffffffffffffffffffff1673ffffffffffffffffffffffffffffffffffffffff1663a9059cbb3360045f3373ffffffffffffffffffffffffffffffffffffffff1673ffffffffffffffffffffffffffffffffffffffff1681526020019081526020015f20546040518363ffffffff1660e01b815260040161052f9291906112bb565b6020604051808303815f875af115801561054b573d5f803e3d5ffd5b505050506040513d601f19601f8201168201806040525081019061056f9190611317565b503373ffffffffffffffffffffffffffffffffffffffff167ffc30cddea38e2bf4d6ea7d3f9ed3b6ad7f176419f4963bd81318067a4aee73fe60045f3373ffffffffffffffffffffffffffffffffffffffff1673ffffffffffffffffffffffffffffffffffffffff1681526020019081526020015f20546040516105f39190611062565b60405180910390a25f60045f3373ffffffffffffffffffffffffffffffffffffffff1673ffffffffffffffffffffffffffffffffffffffff1681526020019081526020015f2081905550565b5f610648610d1e565b90505f815f0160089054906101000a900460ff161590505f825f015f9054906101000a900467ffffffffffffffff1690505f808267ffffffffffffffff161480156106905750825b90505f60018367ffffffffffffffff161480156106c357505f3073ffffffffffffffffffffffffffffffffffffffff163b145b9050811580156106d1575080155b15610708576040517ff92ee8a900000000000000000000000000000000000000000000000000000000815260040160405180910390fd5b6001855f015f6101000a81548167ffffffffffffffff021916908367ffffffffffffffff1602179055508315610755576001855f0160086101000a81548160ff0219169083151502179055505b865f806101000a81548173ffffffffffffffffffffffffffffffffffffffff021916908373ffffffffffffffffffffffffffffffffffffffff1602179055508560015f6101000a81548173ffffffffffffffffffffffffffffffffffffffff021916908373ffffffffffffffffffffffffffffffffffffffff1602179055506107dd33610d45565b8315610837575f855f0160086101000a81548160ff0219169083151502179055507fc7f505b2f371ae2175ee4913f4499e1f2633a7b5936321eed1cdaeb6115181d2600160405161082e91906113f6565b60405180910390a15b50505050505050565b5f8054906101000a900473ffffffffffffffffffffffffffffffffffffffff1681565b61086b610d59565b6108745f610de0565b565b5f80610880610eb1565b9050805f015f9054906101000a900473ffffffffffffffffffffffffffffffffffffffff1691505090565b5f81116108ed576040517f08c379a00000000000000000000000000000000000000000000000000000000081526004016108e49061147f565b60405180910390fd5b805f8054906101000a900473ffffffffffffffffffffffffffffffffffffffff1673ffffffffffffffffffffffffffffffffffffffff1663dd62ed3e33306040518363ffffffff1660e01b815260040161094892919061149d565b602060405180830381865afa158015610963573d5f803e3d5ffd5b505050506040513d601f19601f8201168201806040525081019061098791906114d8565b10156109c8576040517f08c379a00000000000000000000000000000000000000000000000000000000081526004016109bf90611573565b60405180910390fd5b5f8054906101000a900473ffffffffffffffffffffffffffffffffffffffff1673ffffffffffffffffffffffffffffffffffffffff166323b872dd3330846040518463ffffffff1660e01b8152600401610a2493929190611591565b6020604051808303815f875af1158015610a40573d5f803e3d5ffd5b505050506040513d601f19601f82011682018060405250810190610a649190611317565b505f60025414610a7757610a76610b6e565b5b8060035f3373ffffffffffffffffffffffffffffffffffffffff1673ffffffffffffffffffffffffffffffffffffffff1681526020019081526020015f2054610ac091906115c6565b60035f3373ffffffffffffffffffffffffffffffffffffffff1673ffffffffffffffffffffffffffffffffffffffff1681526020019081526020015f2081905550426002819055503373ffffffffffffffffffffffffffffffffffffffff167f9e71bc8eea02a63969f509818f2dafb9254532904319f9dbda79b67bd34a5f3d82604051610b4e9190611062565b60405180910390a250565b6003602052805f5260405f205f915090505481565b5f60025442610b7d9190611288565b90505f60646003805f3373ffffffffffffffffffffffffffffffffffffffff1673ffffffffffffffffffffffffffffffffffffffff1681526020019081526020015f2054610bcb91906115f9565b610bd59190611667565b90505f8282610be491906115f9565b90508060045f3373ffffffffffffffffffffffffffffffffffffffff1673ffffffffffffffffffffffffffffffffffffffff1681526020019081526020015f2054610c2f91906115c6565b60045f3373ffffffffffffffffffffffffffffffffffffffff1673ffffffffffffffffffffffffffffffffffffffff1681526020019081526020015f2081905550505050565b610c7d610d59565b5f73ffffffffffffffffffffffffffffffffffffffff168173ffffffffffffffffffffffffffffffffffffffff1603610ced575f6040517f1e4fbdf7000000000000000000000000000000000000000000000000000000008152600401610ce49190611191565b60405180910390fd5b610cf681610de0565b50565b60015f9054906101000a900473ffffffffffffffffffffffffffffffffffffffff1681565b5f7ff0c57e16840df040f15088dc2f81fe391c3923bec73e23a9662efc9c229c6a00905090565b610d4d610ed8565b610d5681610f18565b50565b610d61610f9c565b73ffffffffffffffffffffffffffffffffffffffff16610d7f610876565b73ffffffffffffffffffffffffffffffffffffffff1614610dde57610da2610f9c565b6040517f118cdaa7000000000000000000000000000000000000000000000000000000008152600401610dd59190611191565b60405180910390fd5b565b5f610de9610eb1565b90505f815f015f9054906101000a900473ffffffffffffffffffffffffffffffffffffffff16905082825f015f6101000a81548173ffffffffffffffffffffffffffffffffffffffff021916908373ffffffffffffffffffffffffffffffffffffffff1602179055508273ffffffffffffffffffffffffffffffffffffffff168173ffffffffffffffffffffffffffffffffffffffff167f8be0079c531659141344cd1fd0a4f28419497f9722a3daafe3b4186f6b6457e060405160405180910390a3505050565b5f7f9016d09d72d40fdae2fd8ceac6b6234c7706214fd39c1cd1e609a0528c199300905090565b610ee0610fa3565b610f16576040517fd7e6bcf800000000000000000000000000000000000000000000000000000000815260040160405180910390fd5b565b610f20610ed8565b5f73ffffffffffffffffffffffffffffffffffffffff168173ffffffffffffffffffffffffffffffffffffffff1603610f90575f6040517f1e4fbdf7000000000000000000000000000000000000000000000000000000008152600401610f879190611191565b60405180910390fd5b610f9981610de0565b50565b5f33905090565b5f610fac610d1e565b5f0160089054906101000a900460ff16905090565b5f80fd5b5f73ffffffffffffffffffffffffffffffffffffffff82169050919050565b5f610fee82610fc5565b9050919050565b610ffe81610fe4565b8114611008575f80fd5b50565b5f8135905061101981610ff5565b92915050565b5f6020828403121561103457611033610fc1565b5b5f6110418482850161100b565b91505092915050565b5f819050919050565b61105c8161104a565b82525050565b5f6020820190506110755f830184611053565b92915050565b6110848161104a565b811461108e575f80fd5b50565b5f8135905061109f8161107b565b92915050565b5f602082840312156110ba576110b9610fc1565b5b5f6110c784828501611091565b91505092915050565b5f80604083850312156110e6576110e5610fc1565b5b5f6110f38582860161100b565b92505060206111048582860161100b565b9150509250929050565b5f819050919050565b5f61113161112c61112784610fc5565b61110e565b610fc5565b9050919050565b5f61114282611117565b9050919050565b5f61115382611138565b9050919050565b61116381611149565b82525050565b5f60208201905061117c5f83018461115a565b92915050565b61118b81610fe4565b82525050565b5f6020820190506111a45f830184611182565b92915050565b5f6111b482611138565b9050919050565b6111c4816111aa565b82525050565b5f6020820190506111dd5f8301846111bb565b92915050565b5f82825260208201905092915050565b7f496e73756666696369656e74207374616b65642062616c616e636500000000005f82015250565b5f611227601b836111e3565b9150611232826111f3565b602082019050919050565b5f6020820190508181035f8301526112548161121b565b9050919050565b7f4e487b71000000000000000000000000000000000000000000000000000000005f52601160045260245ffd5b5f6112928261104a565b915061129d8361104a565b92508282039050818111156112b5576112b461125b565b5b92915050565b5f6040820190506112ce5f830185611182565b6112db6020830184611053565b9392505050565b5f8115159050919050565b6112f6816112e2565b8114611300575f80fd5b50565b5f81519050611311816112ed565b92915050565b5f6020828403121561132c5761132b610fc1565b5b5f61133984828501611303565b91505092915050565b7f4e6f207265776172647320746f20636c61696d000000000000000000000000005f82015250565b5f6113766013836111e3565b915061138182611342565b602082019050919050565b5f6020820190508181035f8301526113a38161136a565b9050919050565b5f819050919050565b5f67ffffffffffffffff82169050919050565b5f6113e06113db6113d6846113aa565b61110e565b6113b3565b9050919050565b6113f0816113c6565b82525050565b5f6020820190506114095f8301846113e7565b92915050565b7f54686520616d6f756e742073686f756c6420626520616c7761797320677265615f8201527f746572207468616e207a65726f00000000000000000000000000000000000000602082015250565b5f611469602d836111e3565b91506114748261140f565b604082019050919050565b5f6020820190508181035f8301526114968161145d565b9050919050565b5f6040820190506114b05f830185611182565b6114bd6020830184611182565b9392505050565b5f815190506114d28161107b565b92915050565b5f602082840312156114ed576114ec610fc1565b5b5f6114fa848285016114c4565b91505092915050565b7f4e6f74207365742074686520656e6f75676820616d6f756e7420666f7220616c5f8201527f6c6f77616e636500000000000000000000000000000000000000000000000000602082015250565b5f61155d6027836111e3565b915061156882611503565b604082019050919050565b5f6020820190508181035f83015261158a81611551565b9050919050565b5f6060820190506115a45f830186611182565b6115b16020830185611182565b6115be6040830184611053565b949350505050565b5f6115d08261104a565b91506115db8361104a565b92508282019050808211156115f3576115f261125b565b5b92915050565b5f6116038261104a565b915061160e8361104a565b925082820261161c8161104a565b915082820484148315176116335761163261125b565b5b5092915050565b7f4e487b71000000000000000000000000000000000000000000000000000000005f52601260045260245ffd5b5f6116718261104a565b915061167c8361104a565b92508261168c5761168b61163a565b5b82820490509291505056fea26469706673582212209c10b97124c1f782b63c7ffa4317f41cdbe34d0ab0c55f2e5f14610193d11cf164736f6c634300081a0033",
					"opcodes": "PUSH1 0x80 PUSH1 0x40 MSTORE CALLVALUE DUP1 ISZERO PUSH1 0xE JUMPI PUSH0 DUP1 REVERT JUMPDEST POP PUSH2 0x16CD DUP1 PUSH2 0x1C PUSH0 CODECOPY PUSH0 RETURN INVALID PUSH1 0x80 PUSH1 0x40 MSTORE CALLVALUE DUP1 ISZERO PUSH2 0xF JUMPI PUSH0 DUP1 REVERT JUMPDEST POP PUSH1 0x4 CALLDATASIZE LT PUSH2 0xB2 JUMPI PUSH0 CALLDATALOAD PUSH1 0xE0 SHR DUP1 PUSH4 0x8DA5CB5B GT PUSH2 0x6F JUMPI DUP1 PUSH4 0x8DA5CB5B EQ PUSH2 0x150 JUMPI DUP1 PUSH4 0xA694FC3A EQ PUSH2 0x16E JUMPI DUP1 PUSH4 0xACC3A939 EQ PUSH2 0x18A JUMPI DUP1 PUSH4 0xBA5A5319 EQ PUSH2 0x1BA JUMPI DUP1 PUSH4 0xF2FDE38B EQ PUSH2 0x1C4 JUMPI DUP1 PUSH4 0xF7C618C1 EQ PUSH2 0x1E0 JUMPI PUSH2 0xB2 JUMP JUMPDEST DUP1 PUSH4 0x660F1E8 EQ PUSH2 0xB6 JUMPI DUP1 PUSH4 0x2E1A7D4D EQ PUSH2 0xE6 JUMPI DUP1 PUSH4 0x372500AB EQ PUSH2 0x102 JUMPI DUP1 PUSH4 0x485CC955 EQ PUSH2 0x10C JUMPI DUP1 PUSH4 0x51ED6A30 EQ PUSH2 0x128 JUMPI DUP1 PUSH4 0x715018A6 EQ PUSH2 0x146 JUMPI JUMPDEST PUSH0 DUP1 REVERT JUMPDEST PUSH2 0xD0 PUSH1 0x4 DUP1 CALLDATASIZE SUB DUP2 ADD SWAP1 PUSH2 0xCB SWAP2 SWAP1 PUSH2 0x101F JUMP JUMPDEST PUSH2 0x1FE JUMP JUMPDEST PUSH1 0x40 MLOAD PUSH2 0xDD SWAP2 SWAP1 PUSH2 0x1062 JUMP JUMPDEST PUSH1 0x40 MLOAD DUP1 SWAP2 SUB SWAP1 RETURN JUMPDEST PUSH2 0x100 PUSH1 0x4 DUP1 CALLDATASIZE SUB DUP2 ADD SWAP1 PUSH2 0xFB SWAP2 SWAP1 PUSH2 0x10A5 JUMP JUMPDEST PUSH2 0x213 JUMP JUMPDEST STOP JUMPDEST PUSH2 0x10A PUSH2 0x417 JUMP JUMPDEST STOP JUMPDEST PUSH2 0x126 PUSH1 0x4 DUP1 CALLDATASIZE SUB DUP2 ADD SWAP1 PUSH2 0x121 SWAP2 SWAP1 PUSH2 0x10D0 JUMP JUMPDEST PUSH2 0x63F JUMP JUMPDEST STOP JUMPDEST PUSH2 0x130 PUSH2 0x840 JUMP JUMPDEST PUSH1 0x40 MLOAD PUSH2 0x13D SWAP2 SWAP1 PUSH2 0x1169 JUMP JUMPDEST PUSH1 0x40 MLOAD DUP1 SWAP2 SUB SWAP1 RETURN JUMPDEST PUSH2 0x14E PUSH2 0x863 JUMP JUMPDEST STOP JUMPDEST PUSH2 0x158 PUSH2 0x876 JUMP JUMPDEST PUSH1 0x40 MLOAD PUSH2 0x165 SWAP2 SWAP1 PUSH2 0x1191 JUMP JUMPDEST PUSH1 0x40 MLOAD DUP1 SWAP2 SUB SWAP1 RETURN JUMPDEST PUSH2 0x188 PUSH1 0x4 DUP1 CALLDATASIZE SUB DUP2 ADD SWAP1 PUSH2 0x183 SWAP2 SWAP1 PUSH2 0x10A5 JUMP JUMPDEST PUSH2 0x8AB JUMP JUMPDEST STOP JUMPDEST PUSH2 0x1A4 PUSH1 0x4 DUP1 CALLDATASIZE SUB DUP2 ADD SWAP1 PUSH2 0x19F SWAP2 SWAP1 PUSH2 0x101F JUMP JUMPDEST PUSH2 0xB59 JUMP JUMPDEST PUSH1 0x40 MLOAD PUSH2 0x1B1 SWAP2 SWAP1 PUSH2 0x1062 JUMP JUMPDEST PUSH1 0x40 MLOAD DUP1 SWAP2 SUB SWAP1 RETURN JUMPDEST PUSH2 0x1C2 PUSH2 0xB6E JUMP JUMPDEST STOP JUMPDEST PUSH2 0x1DE PUSH1 0x4 DUP1 CALLDATASIZE SUB DUP2 ADD SWAP1 PUSH2 0x1D9 SWAP2 SWAP1 PUSH2 0x101F JUMP JUMPDEST PUSH2 0xC75 JUMP JUMPDEST STOP JUMPDEST PUSH2 0x1E8 PUSH2 0xCF9 JUMP JUMPDEST PUSH1 0x40 MLOAD PUSH2 0x1F5 SWAP2 SWAP1 PUSH2 0x11CA JUMP JUMPDEST PUSH1 0x40 MLOAD DUP1 SWAP2 SUB SWAP1 RETURN JUMPDEST PUSH1 0x4 PUSH1 0x20 MSTORE DUP1 PUSH0 MSTORE PUSH1 0x40 PUSH0 KECCAK256 PUSH0 SWAP2 POP SWAP1 POP SLOAD DUP2 JUMP JUMPDEST PUSH0 PUSH1 0x3 PUSH0 CALLER PUSH20 0xFFFFFFFFFFFFFFFFFFFFFFFFFFFFFFFFFFFFFFFF AND PUSH20 0xFFFFFFFFFFFFFFFFFFFFFFFFFFFFFFFFFFFFFFFF AND DUP2 MSTORE PUSH1 0x20 ADD SWAP1 DUP2 MSTORE PUSH1 0x20 ADD PUSH0 KECCAK256 SLOAD GT PUSH2 0x292 JUMPI PUSH1 0x40 MLOAD PUSH32 0x8C379A000000000000000000000000000000000000000000000000000000000 DUP2 MSTORE PUSH1 0x4 ADD PUSH2 0x289 SWAP1 PUSH2 0x123D JUMP JUMPDEST PUSH1 0x40 MLOAD DUP1 SWAP2 SUB SWAP1 REVERT JUMPDEST PUSH2 0x29A PUSH2 0xB6E JUMP JUMPDEST DUP1 PUSH1 0x3 PUSH0 CALLER PUSH20 0xFFFFFFFFFFFFFFFFFFFFFFFFFFFFFFFFFFFFFFFF AND PUSH20 0xFFFFFFFFFFFFFFFFFFFFFFFFFFFFFFFFFFFFFFFF AND DUP2 MSTORE PUSH1 0x20 ADD SWAP1 DUP2 MSTORE PUSH1 0x20 ADD PUSH0 KECCAK256 SLOAD PUSH2 0x2E3 SWAP2 SWAP1 PUSH2 0x1288 JUMP JUMPDEST PUSH1 0x3 PUSH0 CALLER PUSH20 0xFFFFFFFFFFFFFFFFFFFFFFFFFFFFFFFFFFFFFFFF AND PUSH20 0xFFFFFFFFFFFFFFFFFFFFFFFFFFFFFFFFFFFFFFFF AND DUP2 MSTORE PUSH1 0x20 ADD SWAP1 DUP2 MSTORE PUSH1 0x20 ADD PUSH0 KECCAK256 DUP2 SWAP1 SSTORE POP PUSH0 DUP1 SLOAD SWAP1 PUSH2 0x100 EXP SWAP1 DIV PUSH20 0xFFFFFFFFFFFFFFFFFFFFFFFFFFFFFFFFFFFFFFFF AND PUSH20 0xFFFFFFFFFFFFFFFFFFFFFFFFFFFFFFFFFFFFFFFF AND PUSH4 0xA9059CBB CALLER DUP4 PUSH1 0x40 MLOAD DUP4 PUSH4 0xFFFFFFFF AND PUSH1 0xE0 SHL DUP2 MSTORE PUSH1 0x4 ADD PUSH2 0x37E SWAP3 SWAP2 SWAP1 PUSH2 0x12BB JUMP JUMPDEST PUSH1 0x20 PUSH1 0x40 MLOAD DUP1 DUP4 SUB DUP2 PUSH0 DUP8 GAS CALL ISZERO DUP1 ISZERO PUSH2 0x39A JUMPI RETURNDATASIZE PUSH0 DUP1 RETURNDATACOPY RETURNDATASIZE PUSH0 REVERT JUMPDEST POP POP POP POP PUSH1 0x40 MLOAD RETURNDATASIZE PUSH1 0x1F NOT PUSH1 0x1F DUP3 ADD AND DUP3 ADD DUP1 PUSH1 0x40 MSTORE POP DUP2 ADD SWAP1 PUSH2 0x3BE SWAP2 SWAP1 PUSH2 0x1317 JUMP JUMPDEST POP TIMESTAMP PUSH1 0x2 DUP2 SWAP1 SSTORE POP CALLER PUSH20 0xFFFFFFFFFFFFFFFFFFFFFFFFFFFFFFFFFFFFFFFF AND PUSH32 0x884EDAD9CE6FA2440D8A54CC123490EB96D2768479D49FF9C7366125A9424364 DUP3 PUSH1 0x40 MLOAD PUSH2 0x40C SWAP2 SWAP1 PUSH2 0x1062 JUMP JUMPDEST PUSH1 0x40 MLOAD DUP1 SWAP2 SUB SWAP1 LOG2 POP JUMP JUMPDEST PUSH0 PUSH1 0x4 PUSH0 CALLER PUSH20 0xFFFFFFFFFFFFFFFFFFFFFFFFFFFFFFFFFFFFFFFF AND PUSH20 0xFFFFFFFFFFFFFFFFFFFFFFFFFFFFFFFFFFFFFFFF AND DUP2 MSTORE PUSH1 0x20 ADD SWAP1 DUP2 MSTORE PUSH1 0x20 ADD PUSH0 KECCAK256 SLOAD GT PUSH2 0x496 JUMPI PUSH1 0x40 MLOAD PUSH32 0x8C379A000000000000000000000000000000000000000000000000000000000 DUP2 MSTORE PUSH1 0x4 ADD PUSH2 0x48D SWAP1 PUSH2 0x138C JUMP JUMPDEST PUSH1 0x40 MLOAD DUP1 SWAP2 SUB SWAP1 REVERT JUMPDEST PUSH1 0x1 PUSH0 SWAP1 SLOAD SWAP1 PUSH2 0x100 EXP SWAP1 DIV PUSH20 0xFFFFFFFFFFFFFFFFFFFFFFFFFFFFFFFFFFFFFFFF AND PUSH20 0xFFFFFFFFFFFFFFFFFFFFFFFFFFFFFFFFFFFFFFFF AND PUSH4 0xA9059CBB CALLER PUSH1 0x4 PUSH0 CALLER PUSH20 0xFFFFFFFFFFFFFFFFFFFFFFFFFFFFFFFFFFFFFFFF AND PUSH20 0xFFFFFFFFFFFFFFFFFFFFFFFFFFFFFFFFFFFFFFFF AND DUP2 MSTORE PUSH1 0x20 ADD SWAP1 DUP2 MSTORE PUSH1 0x20 ADD PUSH0 KECCAK256 SLOAD PUSH1 0x40 MLOAD DUP4 PUSH4 0xFFFFFFFF AND PUSH1 0xE0 SHL DUP2 MSTORE PUSH1 0x4 ADD PUSH2 0x52F SWAP3 SWAP2 SWAP1 PUSH2 0x12BB JUMP JUMPDEST PUSH1 0x20 PUSH1 0x40 MLOAD DUP1 DUP4 SUB DUP2 PUSH0 DUP8 GAS CALL ISZERO DUP1 ISZERO PUSH2 0x54B JUMPI RETURNDATASIZE PUSH0 DUP1 RETURNDATACOPY RETURNDATASIZE PUSH0 REVERT JUMPDEST POP POP POP POP PUSH1 0x40 MLOAD RETURNDATASIZE PUSH1 0x1F NOT PUSH1 0x1F DUP3 ADD AND DUP3 ADD DUP1 PUSH1 0x40 MSTORE POP DUP2 ADD SWAP1 PUSH2 0x56F SWAP2 SWAP1 PUSH2 0x1317 JUMP JUMPDEST POP CALLER PUSH20 0xFFFFFFFFFFFFFFFFFFFFFFFFFFFFFFFFFFFFFFFF AND PUSH32 0xFC30CDDEA38E2BF4D6EA7D3F9ED3B6AD7F176419F4963BD81318067A4AEE73FE PUSH1 0x4 PUSH0 CALLER PUSH20 0xFFFFFFFFFFFFFFFFFFFFFFFFFFFFFFFFFFFFFFFF AND PUSH20 0xFFFFFFFFFFFFFFFFFFFFFFFFFFFFFFFFFFFFFFFF AND DUP2 MSTORE PUSH1 0x20 ADD SWAP1 DUP2 MSTORE PUSH1 0x20 ADD PUSH0 KECCAK256 SLOAD PUSH1 0x40 MLOAD PUSH2 0x5F3 SWAP2 SWAP1 PUSH2 0x1062 JUMP JUMPDEST PUSH1 0x40 MLOAD DUP1 SWAP2 SUB SWAP1 LOG2 PUSH0 PUSH1 0x4 PUSH0 CALLER PUSH20 0xFFFFFFFFFFFFFFFFFFFFFFFFFFFFFFFFFFFFFFFF AND PUSH20 0xFFFFFFFFFFFFFFFFFFFFFFFFFFFFFFFFFFFFFFFF AND DUP2 MSTORE PUSH1 0x20 ADD SWAP1 DUP2 MSTORE PUSH1 0x20 ADD PUSH0 KECCAK256 DUP2 SWAP1 SSTORE POP JUMP JUMPDEST PUSH0 PUSH2 0x648 PUSH2 0xD1E JUMP JUMPDEST SWAP1 POP PUSH0 DUP2 PUSH0 ADD PUSH1 0x8 SWAP1 SLOAD SWAP1 PUSH2 0x100 EXP SWAP1 DIV PUSH1 0xFF AND ISZERO SWAP1 POP PUSH0 DUP3 PUSH0 ADD PUSH0 SWAP1 SLOAD SWAP1 PUSH2 0x100 EXP SWAP1 DIV PUSH8 0xFFFFFFFFFFFFFFFF AND SWAP1 POP PUSH0 DUP1 DUP3 PUSH8 0xFFFFFFFFFFFFFFFF AND EQ DUP1 ISZERO PUSH2 0x690 JUMPI POP DUP3 JUMPDEST SWAP1 POP PUSH0 PUSH1 0x1 DUP4 PUSH8 0xFFFFFFFFFFFFFFFF AND EQ DUP1 ISZERO PUSH2 0x6C3 JUMPI POP PUSH0 ADDRESS PUSH20 0xFFFFFFFFFFFFFFFFFFFFFFFFFFFFFFFFFFFFFFFF AND EXTCODESIZE EQ JUMPDEST SWAP1 POP DUP2 ISZERO DUP1 ISZERO PUSH2 0x6D1 JUMPI POP DUP1 ISZERO JUMPDEST ISZERO PUSH2 0x708 JUMPI PUSH1 0x40 MLOAD PUSH32 0xF92EE8A900000000000000000000000000000000000000000000000000000000 DUP2 MSTORE PUSH1 0x4 ADD PUSH1 0x40 MLOAD DUP1 SWAP2 SUB SWAP1 REVERT JUMPDEST PUSH1 0x1 DUP6 PUSH0 ADD PUSH0 PUSH2 0x100 EXP DUP2 SLOAD DUP2 PUSH8 0xFFFFFFFFFFFFFFFF MUL NOT AND SWAP1 DUP4 PUSH8 0xFFFFFFFFFFFFFFFF AND MUL OR SWAP1 SSTORE POP DUP4 ISZERO PUSH2 0x755 JUMPI PUSH1 0x1 DUP6 PUSH0 ADD PUSH1 0x8 PUSH2 0x100 EXP DUP2 SLOAD DUP2 PUSH1 0xFF MUL NOT AND SWAP1 DUP4 ISZERO ISZERO MUL OR SWAP1 SSTORE POP JUMPDEST DUP7 PUSH0 DUP1 PUSH2 0x100 EXP DUP2 SLOAD DUP2 PUSH20 0xFFFFFFFFFFFFFFFFFFFFFFFFFFFFFFFFFFFFFFFF MUL NOT AND SWAP1 DUP4 PUSH20 0xFFFFFFFFFFFFFFFFFFFFFFFFFFFFFFFFFFFFFFFF AND MUL OR SWAP1 SSTORE POP DUP6 PUSH1 0x1 PUSH0 PUSH2 0x100 EXP DUP2 SLOAD DUP2 PUSH20 0xFFFFFFFFFFFFFFFFFFFFFFFFFFFFFFFFFFFFFFFF MUL NOT AND SWAP1 DUP4 PUSH20 0xFFFFFFFFFFFFFFFFFFFFFFFFFFFFFFFFFFFFFFFF AND MUL OR SWAP1 SSTORE POP PUSH2 0x7DD CALLER PUSH2 0xD45 JUMP JUMPDEST DUP4 ISZERO PUSH2 0x837 JUMPI PUSH0 DUP6 PUSH0 ADD PUSH1 0x8 PUSH2 0x100 EXP DUP2 SLOAD DUP2 PUSH1 0xFF MUL NOT AND SWAP1 DUP4 ISZERO ISZERO MUL OR SWAP1 SSTORE POP PUSH32 0xC7F505B2F371AE2175EE4913F4499E1F2633A7B5936321EED1CDAEB6115181D2 PUSH1 0x1 PUSH1 0x40 MLOAD PUSH2 0x82E SWAP2 SWAP1 PUSH2 0x13F6 JUMP JUMPDEST PUSH1 0x40 MLOAD DUP1 SWAP2 SUB SWAP1 LOG1 JUMPDEST POP POP POP POP POP POP POP JUMP JUMPDEST PUSH0 DUP1 SLOAD SWAP1 PUSH2 0x100 EXP SWAP1 DIV PUSH20 0xFFFFFFFFFFFFFFFFFFFFFFFFFFFFFFFFFFFFFFFF AND DUP2 JUMP JUMPDEST PUSH2 0x86B PUSH2 0xD59 JUMP JUMPDEST PUSH2 0x874 PUSH0 PUSH2 0xDE0 JUMP JUMPDEST JUMP JUMPDEST PUSH0 DUP1 PUSH2 0x880 PUSH2 0xEB1 JUMP JUMPDEST SWAP1 POP DUP1 PUSH0 ADD PUSH0 SWAP1 SLOAD SWAP1 PUSH2 0x100 EXP SWAP1 DIV PUSH20 0xFFFFFFFFFFFFFFFFFFFFFFFFFFFFFFFFFFFFFFFF AND SWAP2 POP POP SWAP1 JUMP JUMPDEST PUSH0 DUP2 GT PUSH2 0x8ED JUMPI PUSH1 0x40 MLOAD PUSH32 0x8C379A000000000000000000000000000000000000000000000000000000000 DUP2 MSTORE PUSH1 0x4 ADD PUSH2 0x8E4 SWAP1 PUSH2 0x147F JUMP JUMPDEST PUSH1 0x40 MLOAD DUP1 SWAP2 SUB SWAP1 REVERT JUMPDEST DUP1 PUSH0 DUP1 SLOAD SWAP1 PUSH2 0x100 EXP SWAP1 DIV PUSH20 0xFFFFFFFFFFFFFFFFFFFFFFFFFFFFFFFFFFFFFFFF AND PUSH20 0xFFFFFFFFFFFFFFFFFFFFFFFFFFFFFFFFFFFFFFFF AND PUSH4 0xDD62ED3E CALLER ADDRESS PUSH1 0x40 MLOAD DUP4 PUSH4 0xFFFFFFFF AND PUSH1 0xE0 SHL DUP2 MSTORE PUSH1 0x4 ADD PUSH2 0x948 SWAP3 SWAP2 SWAP1 PUSH2 0x149D JUMP JUMPDEST PUSH1 0x20 PUSH1 0x40 MLOAD DUP1 DUP4 SUB DUP2 DUP7 GAS STATICCALL ISZERO DUP1 ISZERO PUSH2 0x963 JUMPI RETURNDATASIZE PUSH0 DUP1 RETURNDATACOPY RETURNDATASIZE PUSH0 REVERT JUMPDEST POP POP POP POP PUSH1 0x40 MLOAD RETURNDATASIZE PUSH1 0x1F NOT PUSH1 0x1F DUP3 ADD AND DUP3 ADD DUP1 PUSH1 0x40 MSTORE POP DUP2 ADD SWAP1 PUSH2 0x987 SWAP2 SWAP1 PUSH2 0x14D8 JUMP JUMPDEST LT ISZERO PUSH2 0x9C8 JUMPI PUSH1 0x40 MLOAD PUSH32 0x8C379A000000000000000000000000000000000000000000000000000000000 DUP2 MSTORE PUSH1 0x4 ADD PUSH2 0x9BF SWAP1 PUSH2 0x1573 JUMP JUMPDEST PUSH1 0x40 MLOAD DUP1 SWAP2 SUB SWAP1 REVERT JUMPDEST PUSH0 DUP1 SLOAD SWAP1 PUSH2 0x100 EXP SWAP1 DIV PUSH20 0xFFFFFFFFFFFFFFFFFFFFFFFFFFFFFFFFFFFFFFFF AND PUSH20 0xFFFFFFFFFFFFFFFFFFFFFFFFFFFFFFFFFFFFFFFF AND PUSH4 0x23B872DD CALLER ADDRESS DUP5 PUSH1 0x40 MLOAD DUP5 PUSH4 0xFFFFFFFF AND PUSH1 0xE0 SHL DUP2 MSTORE PUSH1 0x4 ADD PUSH2 0xA24 SWAP4 SWAP3 SWAP2 SWAP1 PUSH2 0x1591 JUMP JUMPDEST PUSH1 0x20 PUSH1 0x40 MLOAD DUP1 DUP4 SUB DUP2 PUSH0 DUP8 GAS CALL ISZERO DUP1 ISZERO PUSH2 0xA40 JUMPI RETURNDATASIZE PUSH0 DUP1 RETURNDATACOPY RETURNDATASIZE PUSH0 REVERT JUMPDEST POP POP POP POP PUSH1 0x40 MLOAD RETURNDATASIZE PUSH1 0x1F NOT PUSH1 0x1F DUP3 ADD AND DUP3 ADD DUP1 PUSH1 0x40 MSTORE POP DUP2 ADD SWAP1 PUSH2 0xA64 SWAP2 SWAP1 PUSH2 0x1317 JUMP JUMPDEST POP PUSH0 PUSH1 0x2 SLOAD EQ PUSH2 0xA77 JUMPI PUSH2 0xA76 PUSH2 0xB6E JUMP JUMPDEST JUMPDEST DUP1 PUSH1 0x3 PUSH0 CALLER PUSH20 0xFFFFFFFFFFFFFFFFFFFFFFFFFFFFFFFFFFFFFFFF AND PUSH20 0xFFFFFFFFFFFFFFFFFFFFFFFFFFFFFFFFFFFFFFFF AND DUP2 MSTORE PUSH1 0x20 ADD SWAP1 DUP2 MSTORE PUSH1 0x20 ADD PUSH0 KECCAK256 SLOAD PUSH2 0xAC0 SWAP2 SWAP1 PUSH2 0x15C6 JUMP JUMPDEST PUSH1 0x3 PUSH0 CALLER PUSH20 0xFFFFFFFFFFFFFFFFFFFFFFFFFFFFFFFFFFFFFFFF AND PUSH20 0xFFFFFFFFFFFFFFFFFFFFFFFFFFFFFFFFFFFFFFFF AND DUP2 MSTORE PUSH1 0x20 ADD SWAP1 DUP2 MSTORE PUSH1 0x20 ADD PUSH0 KECCAK256 DUP2 SWAP1 SSTORE POP TIMESTAMP PUSH1 0x2 DUP2 SWAP1 SSTORE POP CALLER PUSH20 0xFFFFFFFFFFFFFFFFFFFFFFFFFFFFFFFFFFFFFFFF AND PUSH32 0x9E71BC8EEA02A63969F509818F2DAFB9254532904319F9DBDA79B67BD34A5F3D DUP3 PUSH1 0x40 MLOAD PUSH2 0xB4E SWAP2 SWAP1 PUSH2 0x1062 JUMP JUMPDEST PUSH1 0x40 MLOAD DUP1 SWAP2 SUB SWAP1 LOG2 POP JUMP JUMPDEST PUSH1 0x3 PUSH1 0x20 MSTORE DUP1 PUSH0 MSTORE PUSH1 0x40 PUSH0 KECCAK256 PUSH0 SWAP2 POP SWAP1 POP SLOAD DUP2 JUMP JUMPDEST PUSH0 PUSH1 0x2 SLOAD TIMESTAMP PUSH2 0xB7D SWAP2 SWAP1 PUSH2 0x1288 JUMP JUMPDEST SWAP1 POP PUSH0 PUSH1 0x64 PUSH1 0x3 DUP1 PUSH0 CALLER PUSH20 0xFFFFFFFFFFFFFFFFFFFFFFFFFFFFFFFFFFFFFFFF AND PUSH20 0xFFFFFFFFFFFFFFFFFFFFFFFFFFFFFFFFFFFFFFFF AND DUP2 MSTORE PUSH1 0x20 ADD SWAP1 DUP2 MSTORE PUSH1 0x20 ADD PUSH0 KECCAK256 SLOAD PUSH2 0xBCB SWAP2 SWAP1 PUSH2 0x15F9 JUMP JUMPDEST PUSH2 0xBD5 SWAP2 SWAP1 PUSH2 0x1667 JUMP JUMPDEST SWAP1 POP PUSH0 DUP3 DUP3 PUSH2 0xBE4 SWAP2 SWAP1 PUSH2 0x15F9 JUMP JUMPDEST SWAP1 POP DUP1 PUSH1 0x4 PUSH0 CALLER PUSH20 0xFFFFFFFFFFFFFFFFFFFFFFFFFFFFFFFFFFFFFFFF AND PUSH20 0xFFFFFFFFFFFFFFFFFFFFFFFFFFFFFFFFFFFFFFFF AND DUP2 MSTORE PUSH1 0x20 ADD SWAP1 DUP2 MSTORE PUSH1 0x20 ADD PUSH0 KECCAK256 SLOAD PUSH2 0xC2F SWAP2 SWAP1 PUSH2 0x15C6 JUMP JUMPDEST PUSH1 0x4 PUSH0 CALLER PUSH20 0xFFFFFFFFFFFFFFFFFFFFFFFFFFFFFFFFFFFFFFFF AND PUSH20 0xFFFFFFFFFFFFFFFFFFFFFFFFFFFFFFFFFFFFFFFF AND DUP2 MSTORE PUSH1 0x20 ADD SWAP1 DUP2 MSTORE PUSH1 0x20 ADD PUSH0 KECCAK256 DUP2 SWAP1 SSTORE POP POP POP POP JUMP JUMPDEST PUSH2 0xC7D PUSH2 0xD59 JUMP JUMPDEST PUSH0 PUSH20 0xFFFFFFFFFFFFFFFFFFFFFFFFFFFFFFFFFFFFFFFF AND DUP2 PUSH20 0xFFFFFFFFFFFFFFFFFFFFFFFFFFFFFFFFFFFFFFFF AND SUB PUSH2 0xCED JUMPI PUSH0 PUSH1 0x40 MLOAD PUSH32 0x1E4FBDF700000000000000000000000000000000000000000000000000000000 DUP2 MSTORE PUSH1 0x4 ADD PUSH2 0xCE4 SWAP2 SWAP1 PUSH2 0x1191 JUMP JUMPDEST PUSH1 0x40 MLOAD DUP1 SWAP2 SUB SWAP1 REVERT JUMPDEST PUSH2 0xCF6 DUP2 PUSH2 0xDE0 JUMP JUMPDEST POP JUMP JUMPDEST PUSH1 0x1 PUSH0 SWAP1 SLOAD SWAP1 PUSH2 0x100 EXP SWAP1 DIV PUSH20 0xFFFFFFFFFFFFFFFFFFFFFFFFFFFFFFFFFFFFFFFF AND DUP2 JUMP JUMPDEST PUSH0 PUSH32 0xF0C57E16840DF040F15088DC2F81FE391C3923BEC73E23A9662EFC9C229C6A00 SWAP1 POP SWAP1 JUMP JUMPDEST PUSH2 0xD4D PUSH2 0xED8 JUMP JUMPDEST PUSH2 0xD56 DUP2 PUSH2 0xF18 JUMP JUMPDEST POP JUMP JUMPDEST PUSH2 0xD61 PUSH2 0xF9C JUMP JUMPDEST PUSH20 0xFFFFFFFFFFFFFFFFFFFFFFFFFFFFFFFFFFFFFFFF AND PUSH2 0xD7F PUSH2 0x876 JUMP JUMPDEST PUSH20 0xFFFFFFFFFFFFFFFFFFFFFFFFFFFFFFFFFFFFFFFF AND EQ PUSH2 0xDDE JUMPI PUSH2 0xDA2 PUSH2 0xF9C JUMP JUMPDEST PUSH1 0x40 MLOAD PUSH32 0x118CDAA700000000000000000000000000000000000000000000000000000000 DUP2 MSTORE PUSH1 0x4 ADD PUSH2 0xDD5 SWAP2 SWAP1 PUSH2 0x1191 JUMP JUMPDEST PUSH1 0x40 MLOAD DUP1 SWAP2 SUB SWAP1 REVERT JUMPDEST JUMP JUMPDEST PUSH0 PUSH2 0xDE9 PUSH2 0xEB1 JUMP JUMPDEST SWAP1 POP PUSH0 DUP2 PUSH0 ADD PUSH0 SWAP1 SLOAD SWAP1 PUSH2 0x100 EXP SWAP1 DIV PUSH20 0xFFFFFFFFFFFFFFFFFFFFFFFFFFFFFFFFFFFFFFFF AND SWAP1 POP DUP3 DUP3 PUSH0 ADD PUSH0 PUSH2 0x100 EXP DUP2 SLOAD DUP2 PUSH20 0xFFFFFFFFFFFFFFFFFFFFFFFFFFFFFFFFFFFFFFFF MUL NOT AND SWAP1 DUP4 PUSH20 0xFFFFFFFFFFFFFFFFFFFFFFFFFFFFFFFFFFFFFFFF AND MUL OR SWAP1 SSTORE POP DUP3 PUSH20 0xFFFFFFFFFFFFFFFFFFFFFFFFFFFFFFFFFFFFFFFF AND DUP2 PUSH20 0xFFFFFFFFFFFFFFFFFFFFFFFFFFFFFFFFFFFFFFFF AND PUSH32 0x8BE0079C531659141344CD1FD0A4F28419497F9722A3DAAFE3B4186F6B6457E0 PUSH1 0x40 MLOAD PUSH1 0x40 MLOAD DUP1 SWAP2 SUB SWAP1 LOG3 POP POP POP JUMP JUMPDEST PUSH0 PUSH32 0x9016D09D72D40FDAE2FD8CEAC6B6234C7706214FD39C1CD1E609A0528C199300 SWAP1 POP SWAP1 JUMP JUMPDEST PUSH2 0xEE0 PUSH2 0xFA3 JUMP JUMPDEST PUSH2 0xF16 JUMPI PUSH1 0x40 MLOAD PUSH32 0xD7E6BCF800000000000000000000000000000000000000000000000000000000 DUP2 MSTORE PUSH1 0x4 ADD PUSH1 0x40 MLOAD DUP1 SWAP2 SUB SWAP1 REVERT JUMPDEST JUMP JUMPDEST PUSH2 0xF20 PUSH2 0xED8 JUMP JUMPDEST PUSH0 PUSH20 0xFFFFFFFFFFFFFFFFFFFFFFFFFFFFFFFFFFFFFFFF AND DUP2 PUSH20 0xFFFFFFFFFFFFFFFFFFFFFFFFFFFFFFFFFFFFFFFF AND SUB PUSH2 0xF90 JUMPI PUSH0 PUSH1 0x40 MLOAD PUSH32 0x1E4FBDF700000000000000000000000000000000000000000000000000000000 DUP2 MSTORE PUSH1 0x4 ADD PUSH2 0xF87 SWAP2 SWAP1 PUSH2 0x1191 JUMP JUMPDEST PUSH1 0x40 MLOAD DUP1 SWAP2 SUB SWAP1 REVERT JUMPDEST PUSH2 0xF99 DUP2 PUSH2 0xDE0 JUMP JUMPDEST POP JUMP JUMPDEST PUSH0 CALLER SWAP1 POP SWAP1 JUMP JUMPDEST PUSH0 PUSH2 0xFAC PUSH2 0xD1E JUMP JUMPDEST PUSH0 ADD PUSH1 0x8 SWAP1 SLOAD SWAP1 PUSH2 0x100 EXP SWAP1 DIV PUSH1 0xFF AND SWAP1 POP SWAP1 JUMP JUMPDEST PUSH0 DUP1 REVERT JUMPDEST PUSH0 PUSH20 0xFFFFFFFFFFFFFFFFFFFFFFFFFFFFFFFFFFFFFFFF DUP3 AND SWAP1 POP SWAP2 SWAP1 POP JUMP JUMPDEST PUSH0 PUSH2 0xFEE DUP3 PUSH2 0xFC5 JUMP JUMPDEST SWAP1 POP SWAP2 SWAP1 POP JUMP JUMPDEST PUSH2 0xFFE DUP2 PUSH2 0xFE4 JUMP JUMPDEST DUP2 EQ PUSH2 0x1008 JUMPI PUSH0 DUP1 REVERT JUMPDEST POP JUMP JUMPDEST PUSH0 DUP2 CALLDATALOAD SWAP1 POP PUSH2 0x1019 DUP2 PUSH2 0xFF5 JUMP JUMPDEST SWAP3 SWAP2 POP POP JUMP JUMPDEST PUSH0 PUSH1 0x20 DUP3 DUP5 SUB SLT ISZERO PUSH2 0x1034 JUMPI PUSH2 0x1033 PUSH2 0xFC1 JUMP JUMPDEST JUMPDEST PUSH0 PUSH2 0x1041 DUP5 DUP3 DUP6 ADD PUSH2 0x100B JUMP JUMPDEST SWAP2 POP POP SWAP3 SWAP2 POP POP JUMP JUMPDEST PUSH0 DUP2 SWAP1 POP SWAP2 SWAP1 POP JUMP JUMPDEST PUSH2 0x105C DUP2 PUSH2 0x104A JUMP JUMPDEST DUP3 MSTORE POP POP JUMP JUMPDEST PUSH0 PUSH1 0x20 DUP3 ADD SWAP1 POP PUSH2 0x1075 PUSH0 DUP4 ADD DUP5 PUSH2 0x1053 JUMP JUMPDEST SWAP3 SWAP2 POP POP JUMP JUMPDEST PUSH2 0x1084 DUP2 PUSH2 0x104A JUMP JUMPDEST DUP2 EQ PUSH2 0x108E JUMPI PUSH0 DUP1 REVERT JUMPDEST POP JUMP JUMPDEST PUSH0 DUP2 CALLDATALOAD SWAP1 POP PUSH2 0x109F DUP2 PUSH2 0x107B JUMP JUMPDEST SWAP3 SWAP2 POP POP JUMP JUMPDEST PUSH0 PUSH1 0x20 DUP3 DUP5 SUB SLT ISZERO PUSH2 0x10BA JUMPI PUSH2 0x10B9 PUSH2 0xFC1 JUMP JUMPDEST JUMPDEST PUSH0 PUSH2 0x10C7 DUP5 DUP3 DUP6 ADD PUSH2 0x1091 JUMP JUMPDEST SWAP2 POP POP SWAP3 SWAP2 POP POP JUMP JUMPDEST PUSH0 DUP1 PUSH1 0x40 DUP4 DUP6 SUB SLT ISZERO PUSH2 0x10E6 JUMPI PUSH2 0x10E5 PUSH2 0xFC1 JUMP JUMPDEST JUMPDEST PUSH0 PUSH2 0x10F3 DUP6 DUP3 DUP7 ADD PUSH2 0x100B JUMP JUMPDEST SWAP3 POP POP PUSH1 0x20 PUSH2 0x1104 DUP6 DUP3 DUP7 ADD PUSH2 0x100B JUMP JUMPDEST SWAP2 POP POP SWAP3 POP SWAP3 SWAP1 POP JUMP JUMPDEST PUSH0 DUP2 SWAP1 POP SWAP2 SWAP1 POP JUMP JUMPDEST PUSH0 PUSH2 0x1131 PUSH2 0x112C PUSH2 0x1127 DUP5 PUSH2 0xFC5 JUMP JUMPDEST PUSH2 0x110E JUMP JUMPDEST PUSH2 0xFC5 JUMP JUMPDEST SWAP1 POP SWAP2 SWAP1 POP JUMP JUMPDEST PUSH0 PUSH2 0x1142 DUP3 PUSH2 0x1117 JUMP JUMPDEST SWAP1 POP SWAP2 SWAP1 POP JUMP JUMPDEST PUSH0 PUSH2 0x1153 DUP3 PUSH2 0x1138 JUMP JUMPDEST SWAP1 POP SWAP2 SWAP1 POP JUMP JUMPDEST PUSH2 0x1163 DUP2 PUSH2 0x1149 JUMP JUMPDEST DUP3 MSTORE POP POP JUMP JUMPDEST PUSH0 PUSH1 0x20 DUP3 ADD SWAP1 POP PUSH2 0x117C PUSH0 DUP4 ADD DUP5 PUSH2 0x115A JUMP JUMPDEST SWAP3 SWAP2 POP POP JUMP JUMPDEST PUSH2 0x118B DUP2 PUSH2 0xFE4 JUMP JUMPDEST DUP3 MSTORE POP POP JUMP JUMPDEST PUSH0 PUSH1 0x20 DUP3 ADD SWAP1 POP PUSH2 0x11A4 PUSH0 DUP4 ADD DUP5 PUSH2 0x1182 JUMP JUMPDEST SWAP3 SWAP2 POP POP JUMP JUMPDEST PUSH0 PUSH2 0x11B4 DUP3 PUSH2 0x1138 JUMP JUMPDEST SWAP1 POP SWAP2 SWAP1 POP JUMP JUMPDEST PUSH2 0x11C4 DUP2 PUSH2 0x11AA JUMP JUMPDEST DUP3 MSTORE POP POP JUMP JUMPDEST PUSH0 PUSH1 0x20 DUP3 ADD SWAP1 POP PUSH2 0x11DD PUSH0 DUP4 ADD DUP5 PUSH2 0x11BB JUMP JUMPDEST SWAP3 SWAP2 POP POP JUMP JUMPDEST PUSH0 DUP3 DUP3 MSTORE PUSH1 0x20 DUP3 ADD SWAP1 POP SWAP3 SWAP2 POP POP JUMP JUMPDEST PUSH32 0x496E73756666696369656E74207374616B65642062616C616E63650000000000 PUSH0 DUP3 ADD MSTORE POP JUMP JUMPDEST PUSH0 PUSH2 0x1227 PUSH1 0x1B DUP4 PUSH2 0x11E3 JUMP JUMPDEST SWAP2 POP PUSH2 0x1232 DUP3 PUSH2 0x11F3 JUMP JUMPDEST PUSH1 0x20 DUP3 ADD SWAP1 POP SWAP2 SWAP1 POP JUMP JUMPDEST PUSH0 PUSH1 0x20 DUP3 ADD SWAP1 POP DUP2 DUP2 SUB PUSH0 DUP4 ADD MSTORE PUSH2 0x1254 DUP2 PUSH2 0x121B JUMP JUMPDEST SWAP1 POP SWAP2 SWAP1 POP JUMP JUMPDEST PUSH32 0x4E487B7100000000000000000000000000000000000000000000000000000000 PUSH0 MSTORE PUSH1 0x11 PUSH1 0x4 MSTORE PUSH1 0x24 PUSH0 REVERT JUMPDEST PUSH0 PUSH2 0x1292 DUP3 PUSH2 0x104A JUMP JUMPDEST SWAP2 POP PUSH2 0x129D DUP4 PUSH2 0x104A JUMP JUMPDEST SWAP3 POP DUP3 DUP3 SUB SWAP1 POP DUP2 DUP2 GT ISZERO PUSH2 0x12B5 JUMPI PUSH2 0x12B4 PUSH2 0x125B JUMP JUMPDEST JUMPDEST SWAP3 SWAP2 POP POP JUMP JUMPDEST PUSH0 PUSH1 0x40 DUP3 ADD SWAP1 POP PUSH2 0x12CE PUSH0 DUP4 ADD DUP6 PUSH2 0x1182 JUMP JUMPDEST PUSH2 0x12DB PUSH1 0x20 DUP4 ADD DUP5 PUSH2 0x1053 JUMP JUMPDEST SWAP4 SWAP3 POP POP POP JUMP JUMPDEST PUSH0 DUP2 ISZERO ISZERO SWAP1 POP SWAP2 SWAP1 POP JUMP JUMPDEST PUSH2 0x12F6 DUP2 PUSH2 0x12E2 JUMP JUMPDEST DUP2 EQ PUSH2 0x1300 JUMPI PUSH0 DUP1 REVERT JUMPDEST POP JUMP JUMPDEST PUSH0 DUP2 MLOAD SWAP1 POP PUSH2 0x1311 DUP2 PUSH2 0x12ED JUMP JUMPDEST SWAP3 SWAP2 POP POP JUMP JUMPDEST PUSH0 PUSH1 0x20 DUP3 DUP5 SUB SLT ISZERO PUSH2 0x132C JUMPI PUSH2 0x132B PUSH2 0xFC1 JUMP JUMPDEST JUMPDEST PUSH0 PUSH2 0x1339 DUP5 DUP3 DUP6 ADD PUSH2 0x1303 JUMP JUMPDEST SWAP2 POP POP SWAP3 SWAP2 POP POP JUMP JUMPDEST PUSH32 0x4E6F207265776172647320746F20636C61696D00000000000000000000000000 PUSH0 DUP3 ADD MSTORE POP JUMP JUMPDEST PUSH0 PUSH2 0x1376 PUSH1 0x13 DUP4 PUSH2 0x11E3 JUMP JUMPDEST SWAP2 POP PUSH2 0x1381 DUP3 PUSH2 0x1342 JUMP JUMPDEST PUSH1 0x20 DUP3 ADD SWAP1 POP SWAP2 SWAP1 POP JUMP JUMPDEST PUSH0 PUSH1 0x20 DUP3 ADD SWAP1 POP DUP2 DUP2 SUB PUSH0 DUP4 ADD MSTORE PUSH2 0x13A3 DUP2 PUSH2 0x136A JUMP JUMPDEST SWAP1 POP SWAP2 SWAP1 POP JUMP JUMPDEST PUSH0 DUP2 SWAP1 POP SWAP2 SWAP1 POP JUMP JUMPDEST PUSH0 PUSH8 0xFFFFFFFFFFFFFFFF DUP3 AND SWAP1 POP SWAP2 SWAP1 POP JUMP JUMPDEST PUSH0 PUSH2 0x13E0 PUSH2 0x13DB PUSH2 0x13D6 DUP5 PUSH2 0x13AA JUMP JUMPDEST PUSH2 0x110E JUMP JUMPDEST PUSH2 0x13B3 JUMP JUMPDEST SWAP1 POP SWAP2 SWAP1 POP JUMP JUMPDEST PUSH2 0x13F0 DUP2 PUSH2 0x13C6 JUMP JUMPDEST DUP3 MSTORE POP POP JUMP JUMPDEST PUSH0 PUSH1 0x20 DUP3 ADD SWAP1 POP PUSH2 0x1409 PUSH0 DUP4 ADD DUP5 PUSH2 0x13E7 JUMP JUMPDEST SWAP3 SWAP2 POP POP JUMP JUMPDEST PUSH32 0x54686520616D6F756E742073686F756C6420626520616C776179732067726561 PUSH0 DUP3 ADD MSTORE PUSH32 0x746572207468616E207A65726F00000000000000000000000000000000000000 PUSH1 0x20 DUP3 ADD MSTORE POP JUMP JUMPDEST PUSH0 PUSH2 0x1469 PUSH1 0x2D DUP4 PUSH2 0x11E3 JUMP JUMPDEST SWAP2 POP PUSH2 0x1474 DUP3 PUSH2 0x140F JUMP JUMPDEST PUSH1 0x40 DUP3 ADD SWAP1 POP SWAP2 SWAP1 POP JUMP JUMPDEST PUSH0 PUSH1 0x20 DUP3 ADD SWAP1 POP DUP2 DUP2 SUB PUSH0 DUP4 ADD MSTORE PUSH2 0x1496 DUP2 PUSH2 0x145D JUMP JUMPDEST SWAP1 POP SWAP2 SWAP1 POP JUMP JUMPDEST PUSH0 PUSH1 0x40 DUP3 ADD SWAP1 POP PUSH2 0x14B0 PUSH0 DUP4 ADD DUP6 PUSH2 0x1182 JUMP JUMPDEST PUSH2 0x14BD PUSH1 0x20 DUP4 ADD DUP5 PUSH2 0x1182 JUMP JUMPDEST SWAP4 SWAP3 POP POP POP JUMP JUMPDEST PUSH0 DUP2 MLOAD SWAP1 POP PUSH2 0x14D2 DUP2 PUSH2 0x107B JUMP JUMPDEST SWAP3 SWAP2 POP POP JUMP JUMPDEST PUSH0 PUSH1 0x20 DUP3 DUP5 SUB SLT ISZERO PUSH2 0x14ED JUMPI PUSH2 0x14EC PUSH2 0xFC1 JUMP JUMPDEST JUMPDEST PUSH0 PUSH2 0x14FA DUP5 DUP3 DUP6 ADD PUSH2 0x14C4 JUMP JUMPDEST SWAP2 POP POP SWAP3 SWAP2 POP POP JUMP JUMPDEST PUSH32 0x4E6F74207365742074686520656E6F75676820616D6F756E7420666F7220616C PUSH0 DUP3 ADD MSTORE PUSH32 0x6C6F77616E636500000000000000000000000000000000000000000000000000 PUSH1 0x20 DUP3 ADD MSTORE POP JUMP JUMPDEST PUSH0 PUSH2 0x155D PUSH1 0x27 DUP4 PUSH2 0x11E3 JUMP JUMPDEST SWAP2 POP PUSH2 0x1568 DUP3 PUSH2 0x1503 JUMP JUMPDEST PUSH1 0x40 DUP3 ADD SWAP1 POP SWAP2 SWAP1 POP JUMP JUMPDEST PUSH0 PUSH1 0x20 DUP3 ADD SWAP1 POP DUP2 DUP2 SUB PUSH0 DUP4 ADD MSTORE PUSH2 0x158A DUP2 PUSH2 0x1551 JUMP JUMPDEST SWAP1 POP SWAP2 SWAP1 POP JUMP JUMPDEST PUSH0 PUSH1 0x60 DUP3 ADD SWAP1 POP PUSH2 0x15A4 PUSH0 DUP4 ADD DUP7 PUSH2 0x1182 JUMP JUMPDEST PUSH2 0x15B1 PUSH1 0x20 DUP4 ADD DUP6 PUSH2 0x1182 JUMP JUMPDEST PUSH2 0x15BE PUSH1 0x40 DUP4 ADD DUP5 PUSH2 0x1053 JUMP JUMPDEST SWAP5 SWAP4 POP POP POP POP JUMP JUMPDEST PUSH0 PUSH2 0x15D0 DUP3 PUSH2 0x104A JUMP JUMPDEST SWAP2 POP PUSH2 0x15DB DUP4 PUSH2 0x104A JUMP JUMPDEST SWAP3 POP DUP3 DUP3 ADD SWAP1 POP DUP1 DUP3 GT ISZERO PUSH2 0x15F3 JUMPI PUSH2 0x15F2 PUSH2 0x125B JUMP JUMPDEST JUMPDEST SWAP3 SWAP2 POP POP JUMP JUMPDEST PUSH0 PUSH2 0x1603 DUP3 PUSH2 0x104A JUMP JUMPDEST SWAP2 POP PUSH2 0x160E DUP4 PUSH2 0x104A JUMP JUMPDEST SWAP3 POP DUP3 DUP3 MUL PUSH2 0x161C DUP2 PUSH2 0x104A JUMP JUMPDEST SWAP2 POP DUP3 DUP3 DIV DUP5 EQ DUP4 ISZERO OR PUSH2 0x1633 JUMPI PUSH2 0x1632 PUSH2 0x125B JUMP JUMPDEST JUMPDEST POP SWAP3 SWAP2 POP POP JUMP JUMPDEST PUSH32 0x4E487B7100000000000000000000000000000000000000000000000000000000 PUSH0 MSTORE PUSH1 0x12 PUSH1 0x4 MSTORE PUSH1 0x24 PUSH0 REVERT JUMPDEST PUSH0 PUSH2 0x1671 DUP3 PUSH2 0x104A JUMP JUMPDEST SWAP2 POP PUSH2 0x167C DUP4 PUSH2 0x104A JUMP JUMPDEST SWAP3 POP DUP3 PUSH2 0x168C JUMPI PUSH2 0x168B PUSH2 0x163A JUMP JUMPDEST JUMPDEST DUP3 DUP3 DIV SWAP1 POP SWAP3 SWAP2 POP POP JUMP INVALID LOG2 PUSH5 0x6970667358 0x22 SLT KECCAK256 SWAP13 LT 0xB9 PUSH18 0x24C1F782B63C7FFA4317F41CDBE34D0AB0C5 PUSH0 0x2E PUSH0 EQ PUSH2 0x193 0xD1 SHR CALL PUSH5 0x736F6C6343 STOP ADDMOD BYTE STOP CALLER "
				},
				"gasEstimates": {
					"creation": {
						"codeDepositCost": "1167400",
						"executionCost": "1212",
						"totalCost": "1168612"
					},
					"external": {
						"calculateTotalRewards()": "infinite",
						"claimRewards()": "infinite",
						"initialize(address,address)": "infinite",
						"owner()": "2567",
						"renounceOwnership()": "infinite",
						"rewardToken()": "infinite",
						"stake(uint256)": "infinite",
						"stakeToken()": "infinite",
						"transferOwnership(address)": "infinite",
						"userRewards(address)": "2803",
						"userStaked(address)": "2846",
						"withdraw(uint256)": "infinite"
					}
				},
				"methodIdentifiers": {
					"calculateTotalRewards()": "ba5a5319",
					"claimRewards()": "372500ab",
					"initialize(address,address)": "485cc955",
					"owner()": "8da5cb5b",
					"renounceOwnership()": "715018a6",
					"rewardToken()": "f7c618c1",
					"stake(uint256)": "a694fc3a",
					"stakeToken()": "51ed6a30",
					"transferOwnership(address)": "f2fde38b",
					"userRewards(address)": "0660f1e8",
					"userStaked(address)": "acc3a939",
					"withdraw(uint256)": "2e1a7d4d"
				}
			},
			"storageLayout": {
				"storage": [
					{
						"astId": 1345,
						"contract": "contracts/Staking.sol:Staking",
						"label": "stakeToken",
						"offset": 0,
						"slot": "0",
						"type": "t_contract(StakeToken)1332"
					},
					{
						"astId": 1348,
						"contract": "contracts/Staking.sol:Staking",
						"label": "rewardToken",
						"offset": 0,
						"slot": "1",
						"type": "t_contract(RewardToken)1306"
					},
					{
						"astId": 1350,
						"contract": "contracts/Staking.sol:Staking",
						"label": "lastUpdatedTime",
						"offset": 0,
						"slot": "2",
						"type": "t_uint256"
					},
					{
						"astId": 1381,
						"contract": "contracts/Staking.sol:Staking",
						"label": "userStaked",
						"offset": 0,
						"slot": "3",
						"type": "t_mapping(t_address,t_uint256)"
					},
					{
						"astId": 1385,
						"contract": "contracts/Staking.sol:Staking",
						"label": "userRewards",
						"offset": 0,
						"slot": "4",
						"type": "t_mapping(t_address,t_uint256)"
					}
				],
				"types": {
					"t_address": {
						"encoding": "inplace",
						"label": "address",
						"numberOfBytes": "20"
					},
					"t_contract(RewardToken)1306": {
						"encoding": "inplace",
						"label": "contract RewardToken",
						"numberOfBytes": "20"
					},
					"t_contract(StakeToken)1332": {
						"encoding": "inplace",
						"label": "contract StakeToken",
						"numberOfBytes": "20"
					},
					"t_mapping(t_address,t_uint256)": {
						"encoding": "mapping",
						"key": "t_address",
						"label": "mapping(address => uint256)",
						"numberOfBytes": "32",
						"value": "t_uint256"
					},
					"t_uint256": {
						"encoding": "inplace",
						"label": "uint256",
						"numberOfBytes": "32"
					}
				}
			},
			"userdoc": {
				"kind": "user",
				"methods": {},
				"version": 1
			}
		}
	}
}