{
	"contracts/OwnedUpgradeabilityProxy.sol": {
		"OwnedUpgradeabilityProxy": {
			"abi": [
				{
					"inputs": [],
					"stateMutability": "nonpayable",
					"type": "constructor"
				},
				{
					"anonymous": false,
					"inputs": [
						{
							"indexed": false,
							"internalType": "address",
							"name": "previousOwner",
							"type": "address"
						},
						{
							"indexed": false,
							"internalType": "address",
							"name": "newOwner",
							"type": "address"
						}
					],
					"name": "ProxyOwnershipTransferred",
					"type": "event"
				},
				{
					"anonymous": false,
					"inputs": [
						{
							"indexed": true,
							"internalType": "address",
							"name": "implementation",
							"type": "address"
						}
					],
					"name": "Upgraded",
					"type": "event"
				},
				{
					"stateMutability": "payable",
					"type": "fallback"
				},
				{
					"inputs": [],
					"name": "implementation",
					"outputs": [
						{
							"internalType": "address",
							"name": "impl",
							"type": "address"
						}
					],
					"stateMutability": "view",
					"type": "function"
				},
				{
					"inputs": [],
					"name": "maintenance",
					"outputs": [
						{
							"internalType": "bool",
							"name": "_maintenance",
							"type": "bool"
						}
					],
					"stateMutability": "view",
					"type": "function"
				},
				{
					"inputs": [],
					"name": "proxyOwner",
					"outputs": [
						{
							"internalType": "address",
							"name": "owner",
							"type": "address"
						}
					],
					"stateMutability": "view",
					"type": "function"
				},
				{
					"inputs": [
						{
							"internalType": "bool",
							"name": "_maintenance",
							"type": "bool"
						}
					],
					"name": "setMaintenance",
					"outputs": [],
					"stateMutability": "nonpayable",
					"type": "function"
				},
				{
					"inputs": [
						{
							"internalType": "address",
							"name": "newOwner",
							"type": "address"
						}
					],
					"name": "transferProxyOwnership",
					"outputs": [],
					"stateMutability": "nonpayable",
					"type": "function"
				},
				{
					"inputs": [
						{
							"internalType": "address",
							"name": "newImplementation",
							"type": "address"
						}
					],
					"name": "upgradeTo",
					"outputs": [],
					"stateMutability": "nonpayable",
					"type": "function"
				},
				{
					"inputs": [
						{
							"internalType": "address",
							"name": "newImplementation",
							"type": "address"
						},
						{
							"internalType": "bytes",
							"name": "data",
							"type": "bytes"
						}
					],
					"name": "upgradeToAndCall",
					"outputs": [],
					"stateMutability": "payable",
					"type": "function"
				},
				{
					"stateMutability": "payable",
					"type": "receive"
				}
			],
			"devdoc": {
				"details": "This contract combines an upgradeability proxy with basic authorization control functionalities",
				"events": {
					"ProxyOwnershipTransferred(address,address)": {
						"details": "Event to show ownership has been transferred",
						"params": {
							"newOwner": "representing the address of the new owner",
							"previousOwner": "representing the address of the previous owner"
						}
					},
					"Upgraded(address)": {
						"details": "This event will be emitted every time the implementation gets upgraded",
						"params": {
							"implementation": "representing the address of the upgraded implementation"
						}
					}
				},
				"kind": "dev",
				"methods": {
					"constructor": {
						"details": "the constructor sets the original owner of the contract to the sender account."
					},
					"implementation()": {
						"details": "Tells the address of the current implementation",
						"returns": {
							"impl": "address of the current implementation"
						}
					},
					"maintenance()": {
						"details": "Tells if contract is on maintenance",
						"returns": {
							"_maintenance": "if contract is on maintenance"
						}
					},
					"proxyOwner()": {
						"details": "Tells the address of the owner",
						"returns": {
							"owner": "the address of the owner"
						}
					},
					"setMaintenance(bool)": {
						"details": "Sets if contract is on maintenance"
					},
					"transferProxyOwnership(address)": {
						"details": "Allows the current owner to transfer control of the contract to a newOwner.",
						"params": {
							"newOwner": "The address to transfer ownership to."
						}
					}
				},
				"title": "OwnedUpgradeabilityProxy",
				"version": 1
			},
			"evm": {
				"assembly": "    /* \"contracts/OwnedUpgradeabilityProxy.sol\":224:6602  contract OwnedUpgradeabilityProxy {... */\n  mstore(0x40, 0x80)\n    /* \"contracts/OwnedUpgradeabilityProxy.sol\":1400:1467  constructor() {... */\n  callvalue\n  dup1\n  iszero\n  tag_1\n  jumpi\n  0x00\n  dup1\n  revert\ntag_1:\n  pop\n    /* \"contracts/OwnedUpgradeabilityProxy.sol\":1425:1459  setUpgradeabilityOwner(msg.sender) */\n  tag_4\n    /* \"contracts/OwnedUpgradeabilityProxy.sol\":1448:1458  msg.sender */\n  caller\n    /* \"contracts/OwnedUpgradeabilityProxy.sol\":1425:1447  setUpgradeabilityOwner */\n  shl(0x20, tag_5)\n    /* \"contracts/OwnedUpgradeabilityProxy.sol\":1425:1459  setUpgradeabilityOwner(msg.sender) */\n  0x20\n  shr\n  jump\t// in\ntag_4:\n    /* \"contracts/OwnedUpgradeabilityProxy.sol\":224:6602  contract OwnedUpgradeabilityProxy {... */\n  jump(tag_6)\n    /* \"contracts/OwnedUpgradeabilityProxy.sol\":2439:2635  function setUpgradeabilityOwner(address newProxyOwner) internal {... */\ntag_5:\n    /* \"contracts/OwnedUpgradeabilityProxy.sol\":2514:2530  bytes32 position */\n  0x00\n    /* \"contracts/OwnedUpgradeabilityProxy.sol\":1244:1281  keccak256(\"com.thruster.proxy.owner\") */\n  0x4fd4576c802ecbb819507362929366748755d6888a7c7ba7b13777d369de6d64\n    /* \"contracts/OwnedUpgradeabilityProxy.sol\":2514:2551  bytes32 position = proxyOwnerPosition */\n  swap1\n  pop\n    /* \"contracts/OwnedUpgradeabilityProxy.sol\":2603:2616  newProxyOwner */\n  dup2\n    /* \"contracts/OwnedUpgradeabilityProxy.sol\":2593:2601  position */\n  dup2\n    /* \"contracts/OwnedUpgradeabilityProxy.sol\":2586:2617  sstore(position, newProxyOwner) */\n  sstore\n    /* \"contracts/OwnedUpgradeabilityProxy.sol\":2571:2628  {... */\n  pop\n    /* \"contracts/OwnedUpgradeabilityProxy.sol\":2439:2635  function setUpgradeabilityOwner(address newProxyOwner) internal {... */\n  pop\n  jump\t// out\n    /* \"contracts/OwnedUpgradeabilityProxy.sol\":224:6602  contract OwnedUpgradeabilityProxy {... */\ntag_6:\n  dataSize(sub_0)\n  dup1\n  dataOffset(sub_0)\n  0x00\n  codecopy\n  0x00\n  return\nstop\n\nsub_0: assembly {\n        /* \"contracts/OwnedUpgradeabilityProxy.sol\":224:6602  contract OwnedUpgradeabilityProxy {... */\n      mstore(0x40, 0x80)\n      jumpi(tag_1, lt(calldatasize, 0x04))\n      shr(0xe0, calldataload(0x00))\n      dup1\n      0x5c60da1b\n      gt\n      tag_10\n      jumpi\n      dup1\n      0x5c60da1b\n      eq\n      tag_6\n      jumpi\n      dup1\n      0x612f2f37\n      eq\n      tag_7\n      jumpi\n      dup1\n      0x6c376cc5\n      eq\n      tag_8\n      jumpi\n      dup1\n      0xf1739cae\n      eq\n      tag_9\n      jumpi\n      jump(tag_2)\n    tag_10:\n      dup1\n      0x025313a2\n      eq\n      tag_3\n      jumpi\n      dup1\n      0x3659cfe6\n      eq\n      tag_4\n      jumpi\n      dup1\n      0x4f1ef286\n      eq\n      tag_5\n      jumpi\n      jump(tag_2)\n    tag_1:\n      jumpi(tag_2, calldatasize)\n        /* \"contracts/OwnedUpgradeabilityProxy.sol\":4473:4484  _fallback() */\n      tag_13\n        /* \"contracts/OwnedUpgradeabilityProxy.sol\":4473:4482  _fallback */\n      tag_14\n        /* \"contracts/OwnedUpgradeabilityProxy.sol\":4473:4484  _fallback() */\n      jump\t// in\n    tag_13:\n        /* \"contracts/OwnedUpgradeabilityProxy.sol\":224:6602  contract OwnedUpgradeabilityProxy {... */\n      stop\n    tag_2:\n        /* \"contracts/OwnedUpgradeabilityProxy.sol\":4407:4418  _fallback() */\n      tag_17\n        /* \"contracts/OwnedUpgradeabilityProxy.sol\":4407:4416  _fallback */\n      tag_14\n        /* \"contracts/OwnedUpgradeabilityProxy.sol\":4407:4418  _fallback() */\n      jump\t// in\n    tag_17:\n        /* \"contracts/OwnedUpgradeabilityProxy.sol\":224:6602  contract OwnedUpgradeabilityProxy {... */\n      stop\n        /* \"contracts/OwnedUpgradeabilityProxy.sol\":2187:2370  function proxyOwner() public view returns (address owner) {... */\n    tag_3:\n      callvalue\n      dup1\n      iszero\n      tag_18\n      jumpi\n      0x00\n      dup1\n      revert\n    tag_18:\n      pop\n      tag_19\n      tag_20\n      jump\t// in\n    tag_19:\n      mload(0x40)\n      tag_21\n      swap2\n      swap1\n      tag_22\n      jump\t// in\n    tag_21:\n      mload(0x40)\n      dup1\n      swap2\n      sub\n      swap1\n      return\n        /* \"contracts/OwnedUpgradeabilityProxy.sol\":3277:3393  function upgradeTo(address newImplementation) public onlyProxyOwner {... */\n    tag_4:\n      callvalue\n      dup1\n      iszero\n      tag_23\n      jumpi\n      0x00\n      dup1\n      revert\n    tag_23:\n      pop\n      tag_24\n      0x04\n      dup1\n      calldatasize\n      sub\n      dup2\n      add\n      swap1\n      tag_25\n      swap2\n      swap1\n      tag_26\n      jump\t// in\n    tag_25:\n      tag_27\n      jump\t// in\n    tag_24:\n      stop\n        /* \"contracts/OwnedUpgradeabilityProxy.sol\":3885:4172  function upgradeToAndCall(address newImplementation, bytes memory data) payable public onlyProxyOwner {... */\n    tag_5:\n      tag_28\n      0x04\n      dup1\n      calldatasize\n      sub\n      dup2\n      add\n      swap1\n      tag_29\n      swap2\n      swap1\n      tag_30\n      jump\t// in\n    tag_29:\n      tag_31\n      jump\t// in\n    tag_28:\n      stop\n        /* \"contracts/OwnedUpgradeabilityProxy.sol\":4638:4827  function implementation() public view returns (address impl) {... */\n    tag_6:\n      callvalue\n      dup1\n      iszero\n      tag_32\n      jumpi\n      0x00\n      dup1\n      revert\n    tag_32:\n      pop\n      tag_33\n      tag_34\n      jump\t// in\n    tag_33:\n      mload(0x40)\n      tag_35\n      swap2\n      swap1\n      tag_22\n      jump\t// in\n    tag_35:\n      mload(0x40)\n      dup1\n      swap2\n      sub\n      swap1\n      return\n        /* \"contracts/OwnedUpgradeabilityProxy.sol\":1871:2070  function setMaintenance(bool _maintenance) external onlyProxyOwner {... */\n    tag_7:\n      callvalue\n      dup1\n      iszero\n      tag_36\n      jumpi\n      0x00\n      dup1\n      revert\n    tag_36:\n      pop\n      tag_37\n      0x04\n      dup1\n      calldatasize\n      sub\n      dup2\n      add\n      swap1\n      tag_38\n      swap2\n      swap1\n      tag_39\n      jump\t// in\n    tag_38:\n      tag_40\n      jump\t// in\n    tag_37:\n      stop\n        /* \"contracts/OwnedUpgradeabilityProxy.sol\":1601:1797  function maintenance() public view returns (bool _maintenance) {... */\n    tag_8:\n      callvalue\n      dup1\n      iszero\n      tag_41\n      jumpi\n      0x00\n      dup1\n      revert\n    tag_41:\n      pop\n      tag_42\n      tag_43\n      jump\t// in\n    tag_42:\n      mload(0x40)\n      tag_44\n      swap2\n      swap1\n      tag_45\n      jump\t// in\n    tag_44:\n      mload(0x40)\n      dup1\n      swap2\n      sub\n      swap1\n      return\n        /* \"contracts/OwnedUpgradeabilityProxy.sol\":2812:3079  function transferProxyOwnership(address newOwner) public onlyProxyOwner {... */\n    tag_9:\n      callvalue\n      dup1\n      iszero\n      tag_46\n      jumpi\n      0x00\n      dup1\n      revert\n    tag_46:\n      pop\n      tag_47\n      0x04\n      dup1\n      calldatasize\n      sub\n      dup2\n      add\n      swap1\n      tag_48\n      swap2\n      swap1\n      tag_26\n      jump\t// in\n    tag_48:\n      tag_49\n      jump\t// in\n    tag_47:\n      stop\n        /* \"contracts/OwnedUpgradeabilityProxy.sol\":5692:6375  function _fallback() internal {... */\n    tag_14:\n        /* \"contracts/OwnedUpgradeabilityProxy.sol\":5737:5750  maintenance() */\n      tag_51\n        /* \"contracts/OwnedUpgradeabilityProxy.sol\":5737:5748  maintenance */\n      tag_43\n        /* \"contracts/OwnedUpgradeabilityProxy.sol\":5737:5750  maintenance() */\n      jump\t// in\n    tag_51:\n        /* \"contracts/OwnedUpgradeabilityProxy.sol\":5733:5853  if (maintenance()) {... */\n      iszero\n      tag_52\n      jumpi\n        /* \"contracts/OwnedUpgradeabilityProxy.sol\":5789:5801  proxyOwner() */\n      tag_53\n        /* \"contracts/OwnedUpgradeabilityProxy.sol\":5789:5799  proxyOwner */\n      tag_20\n        /* \"contracts/OwnedUpgradeabilityProxy.sol\":5789:5801  proxyOwner() */\n      jump\t// in\n    tag_53:\n        /* \"contracts/OwnedUpgradeabilityProxy.sol\":5775:5801  msg.sender == proxyOwner() */\n      0xffffffffffffffffffffffffffffffffffffffff\n      and\n        /* \"contracts/OwnedUpgradeabilityProxy.sol\":5775:5785  msg.sender */\n      caller\n        /* \"contracts/OwnedUpgradeabilityProxy.sol\":5775:5801  msg.sender == proxyOwner() */\n      0xffffffffffffffffffffffffffffffffffffffff\n      and\n      eq\n        /* \"contracts/OwnedUpgradeabilityProxy.sol\":5767:5841  require(msg.sender == proxyOwner(), 'OwnedUpgradeabilityProxy: FORBIDDEN') */\n      tag_54\n      jumpi\n      mload(0x40)\n      0x08c379a000000000000000000000000000000000000000000000000000000000\n      dup2\n      mstore\n      0x04\n      add\n      tag_55\n      swap1\n      tag_56\n      jump\t// in\n    tag_55:\n      mload(0x40)\n      dup1\n      swap2\n      sub\n      swap1\n      revert\n    tag_54:\n        /* \"contracts/OwnedUpgradeabilityProxy.sol\":5733:5853  if (maintenance()) {... */\n    tag_52:\n        /* \"contracts/OwnedUpgradeabilityProxy.sol\":5863:5876  address _impl */\n      0x00\n        /* \"contracts/OwnedUpgradeabilityProxy.sol\":5879:5895  implementation() */\n      tag_57\n        /* \"contracts/OwnedUpgradeabilityProxy.sol\":5879:5893  implementation */\n      tag_34\n        /* \"contracts/OwnedUpgradeabilityProxy.sol\":5879:5895  implementation() */\n      jump\t// in\n    tag_57:\n        /* \"contracts/OwnedUpgradeabilityProxy.sol\":5863:5895  address _impl = implementation() */\n      swap1\n      pop\n        /* \"contracts/OwnedUpgradeabilityProxy.sol\":5931:5932  0 */\n      0x00\n        /* \"contracts/OwnedUpgradeabilityProxy.sol\":5914:5933  _impl != address(0) */\n      0xffffffffffffffffffffffffffffffffffffffff\n      and\n        /* \"contracts/OwnedUpgradeabilityProxy.sol\":5914:5919  _impl */\n      dup2\n        /* \"contracts/OwnedUpgradeabilityProxy.sol\":5914:5933  _impl != address(0) */\n      0xffffffffffffffffffffffffffffffffffffffff\n      and\n      sub\n        /* \"contracts/OwnedUpgradeabilityProxy.sol\":5906:5971  require(_impl != address(0), 'OwnedUpgradeabilityProxy: INVALID') */\n      tag_58\n      jumpi\n      mload(0x40)\n      0x08c379a000000000000000000000000000000000000000000000000000000000\n      dup2\n      mstore\n      0x04\n      add\n      tag_59\n      swap1\n      tag_60\n      jump\t// in\n    tag_59:\n      mload(0x40)\n      dup1\n      swap2\n      sub\n      swap1\n      revert\n    tag_58:\n        /* \"contracts/OwnedUpgradeabilityProxy.sol\":6023:6027  0x40 */\n      0x40\n        /* \"contracts/OwnedUpgradeabilityProxy.sol\":6017:6028  mload(0x40) */\n      mload\n        /* \"contracts/OwnedUpgradeabilityProxy.sol\":6063:6077  calldatasize() */\n      calldatasize\n        /* \"contracts/OwnedUpgradeabilityProxy.sol\":6060:6061  0 */\n      0x00\n        /* \"contracts/OwnedUpgradeabilityProxy.sol\":6055:6058  ptr */\n      dup3\n        /* \"contracts/OwnedUpgradeabilityProxy.sol\":6042:6078  calldatacopy(ptr, 0, calldatasize()) */\n      calldatacopy\n        /* \"contracts/OwnedUpgradeabilityProxy.sol\":6157:6158  0 */\n      0x00\n        /* \"contracts/OwnedUpgradeabilityProxy.sol\":6154:6155  0 */\n      dup1\n        /* \"contracts/OwnedUpgradeabilityProxy.sol\":6138:6152  calldatasize() */\n      calldatasize\n        /* \"contracts/OwnedUpgradeabilityProxy.sol\":6133:6136  ptr */\n      dup4\n        /* \"contracts/OwnedUpgradeabilityProxy.sol\":6126:6131  _impl */\n      dup6\n        /* \"contracts/OwnedUpgradeabilityProxy.sol\":6119:6124  gas() */\n      gas\n        /* \"contracts/OwnedUpgradeabilityProxy.sol\":6106:6159  delegatecall(gas(), _impl, ptr, calldatasize(), 0, 0) */\n      delegatecall\n        /* \"contracts/OwnedUpgradeabilityProxy.sol\":6185:6201  returndatasize() */\n      returndatasize\n        /* \"contracts/OwnedUpgradeabilityProxy.sol\":6238:6242  size */\n      dup1\n        /* \"contracts/OwnedUpgradeabilityProxy.sol\":6235:6236  0 */\n      0x00\n        /* \"contracts/OwnedUpgradeabilityProxy.sol\":6230:6233  ptr */\n      dup5\n        /* \"contracts/OwnedUpgradeabilityProxy.sol\":6215:6243  returndatacopy(ptr, 0, size) */\n      returndatacopy\n        /* \"contracts/OwnedUpgradeabilityProxy.sol\":6266:6272  result */\n      dup2\n        /* \"contracts/OwnedUpgradeabilityProxy.sol\":6291:6292  0 */\n      0x00\n        /* \"contracts/OwnedUpgradeabilityProxy.sol\":6286:6314  case 0 { revert(ptr, size) } */\n      dup2\n      eq\n      tag_62\n      jumpi\n        /* \"contracts/OwnedUpgradeabilityProxy.sol\":6350:6354  size */\n      dup2\n        /* \"contracts/OwnedUpgradeabilityProxy.sol\":6345:6348  ptr */\n      dup5\n        /* \"contracts/OwnedUpgradeabilityProxy.sol\":6338:6355  return(ptr, size) */\n      return\n        /* \"contracts/OwnedUpgradeabilityProxy.sol\":6286:6314  case 0 { revert(ptr, size) } */\n    tag_62:\n        /* \"contracts/OwnedUpgradeabilityProxy.sol\":6307:6311  size */\n      dup2\n        /* \"contracts/OwnedUpgradeabilityProxy.sol\":6302:6305  ptr */\n      dup5\n        /* \"contracts/OwnedUpgradeabilityProxy.sol\":6295:6312  revert(ptr, size) */\n      revert\n        /* \"contracts/OwnedUpgradeabilityProxy.sol\":2187:2370  function proxyOwner() public view returns (address owner) {... */\n    tag_20:\n        /* \"contracts/OwnedUpgradeabilityProxy.sol\":2230:2243  address owner */\n      0x00\n        /* \"contracts/OwnedUpgradeabilityProxy.sol\":2256:2272  bytes32 position */\n      dup1\n        /* \"contracts/OwnedUpgradeabilityProxy.sol\":1244:1281  keccak256(\"com.thruster.proxy.owner\") */\n      0x4fd4576c802ecbb819507362929366748755d6888a7c7ba7b13777d369de6d64\n        /* \"contracts/OwnedUpgradeabilityProxy.sol\":2256:2293  bytes32 position = proxyOwnerPosition */\n      swap1\n      pop\n        /* \"contracts/OwnedUpgradeabilityProxy.sol\":2343:2351  position */\n      dup1\n        /* \"contracts/OwnedUpgradeabilityProxy.sol\":2337:2352  sload(position) */\n      sload\n        /* \"contracts/OwnedUpgradeabilityProxy.sol\":2328:2352  owner := sload(position) */\n      swap2\n      pop\n        /* \"contracts/OwnedUpgradeabilityProxy.sol\":2313:2363  {... */\n      pop\n        /* \"contracts/OwnedUpgradeabilityProxy.sol\":2187:2370  function proxyOwner() public view returns (address owner) {... */\n      swap1\n      jump\t// out\n        /* \"contracts/OwnedUpgradeabilityProxy.sol\":3277:3393  function upgradeTo(address newImplementation) public onlyProxyOwner {... */\n    tag_27:\n        /* \"contracts/OwnedUpgradeabilityProxy.sol\":6527:6539  proxyOwner() */\n      tag_65\n        /* \"contracts/OwnedUpgradeabilityProxy.sol\":6527:6537  proxyOwner */\n      tag_20\n        /* \"contracts/OwnedUpgradeabilityProxy.sol\":6527:6539  proxyOwner() */\n      jump\t// in\n    tag_65:\n        /* \"contracts/OwnedUpgradeabilityProxy.sol\":6513:6539  msg.sender == proxyOwner() */\n      0xffffffffffffffffffffffffffffffffffffffff\n      and\n        /* \"contracts/OwnedUpgradeabilityProxy.sol\":6513:6523  msg.sender */\n      caller\n        /* \"contracts/OwnedUpgradeabilityProxy.sol\":6513:6539  msg.sender == proxyOwner() */\n      0xffffffffffffffffffffffffffffffffffffffff\n      and\n      eq\n        /* \"contracts/OwnedUpgradeabilityProxy.sol\":6505:6579  require(msg.sender == proxyOwner(), 'OwnedUpgradeabilityProxy: FORBIDDEN') */\n      tag_66\n      jumpi\n      mload(0x40)\n      0x08c379a000000000000000000000000000000000000000000000000000000000\n      dup2\n      mstore\n      0x04\n      add\n      tag_67\n      swap1\n      tag_56\n      jump\t// in\n    tag_67:\n      mload(0x40)\n      dup1\n      swap2\n      sub\n      swap1\n      revert\n    tag_66:\n        /* \"contracts/OwnedUpgradeabilityProxy.sol\":3356:3385  _upgradeTo(newImplementation) */\n      tag_69\n        /* \"contracts/OwnedUpgradeabilityProxy.sol\":3367:3384  newImplementation */\n      dup2\n        /* \"contracts/OwnedUpgradeabilityProxy.sol\":3356:3366  _upgradeTo */\n      tag_70\n        /* \"contracts/OwnedUpgradeabilityProxy.sol\":3356:3385  _upgradeTo(newImplementation) */\n      jump\t// in\n    tag_69:\n        /* \"contracts/OwnedUpgradeabilityProxy.sol\":3277:3393  function upgradeTo(address newImplementation) public onlyProxyOwner {... */\n      pop\n      jump\t// out\n        /* \"contracts/OwnedUpgradeabilityProxy.sol\":3885:4172  function upgradeToAndCall(address newImplementation, bytes memory data) payable public onlyProxyOwner {... */\n    tag_31:\n        /* \"contracts/OwnedUpgradeabilityProxy.sol\":6527:6539  proxyOwner() */\n      tag_72\n        /* \"contracts/OwnedUpgradeabilityProxy.sol\":6527:6537  proxyOwner */\n      tag_20\n        /* \"contracts/OwnedUpgradeabilityProxy.sol\":6527:6539  proxyOwner() */\n      jump\t// in\n    tag_72:\n        /* \"contracts/OwnedUpgradeabilityProxy.sol\":6513:6539  msg.sender == proxyOwner() */\n      0xffffffffffffffffffffffffffffffffffffffff\n      and\n        /* \"contracts/OwnedUpgradeabilityProxy.sol\":6513:6523  msg.sender */\n      caller\n        /* \"contracts/OwnedUpgradeabilityProxy.sol\":6513:6539  msg.sender == proxyOwner() */\n      0xffffffffffffffffffffffffffffffffffffffff\n      and\n      eq\n        /* \"contracts/OwnedUpgradeabilityProxy.sol\":6505:6579  require(msg.sender == proxyOwner(), 'OwnedUpgradeabilityProxy: FORBIDDEN') */\n      tag_73\n      jumpi\n      mload(0x40)\n      0x08c379a000000000000000000000000000000000000000000000000000000000\n      dup2\n      mstore\n      0x04\n      add\n      tag_74\n      swap1\n      tag_56\n      jump\t// in\n    tag_74:\n      mload(0x40)\n      dup1\n      swap2\n      sub\n      swap1\n      revert\n    tag_73:\n        /* \"contracts/OwnedUpgradeabilityProxy.sol\":3998:4026  upgradeTo(newImplementation) */\n      tag_76\n        /* \"contracts/OwnedUpgradeabilityProxy.sol\":4008:4025  newImplementation */\n      dup3\n        /* \"contracts/OwnedUpgradeabilityProxy.sol\":3998:4007  upgradeTo */\n      tag_27\n        /* \"contracts/OwnedUpgradeabilityProxy.sol\":3998:4026  upgradeTo(newImplementation) */\n      jump\t// in\n    tag_76:\n        /* \"contracts/OwnedUpgradeabilityProxy.sol\":4038:4050  bool success */\n      0x00\n        /* \"contracts/OwnedUpgradeabilityProxy.sol\":4064:4068  this */\n      address\n        /* \"contracts/OwnedUpgradeabilityProxy.sol\":4056:4074  address(this).call */\n      0xffffffffffffffffffffffffffffffffffffffff\n      and\n        /* \"contracts/OwnedUpgradeabilityProxy.sol\":4083:4092  msg.value */\n      callvalue\n        /* \"contracts/OwnedUpgradeabilityProxy.sol\":4095:4099  data */\n      dup4\n        /* \"contracts/OwnedUpgradeabilityProxy.sol\":4056:4100  address(this).call{ value: msg.value }(data) */\n      mload(0x40)\n      tag_77\n      swap2\n      swap1\n      tag_78\n      jump\t// in\n    tag_77:\n      0x00\n      mload(0x40)\n      dup1\n      dup4\n      sub\n      dup2\n      dup6\n      dup8\n      gas\n      call\n      swap3\n      pop\n      pop\n      pop\n      returndatasize\n      dup1\n      0x00\n      dup2\n      eq\n      tag_81\n      jumpi\n      mload(0x40)\n      swap2\n      pop\n      and(add(returndatasize, 0x3f), not(0x1f))\n      dup3\n      add\n      0x40\n      mstore\n      returndatasize\n      dup3\n      mstore\n      returndatasize\n      0x00\n      0x20\n      dup5\n      add\n      returndatacopy\n      jump(tag_80)\n    tag_81:\n      0x60\n      swap2\n      pop\n    tag_80:\n      pop\n        /* \"contracts/OwnedUpgradeabilityProxy.sol\":4037:4100  (bool success, ) = address(this).call{ value: msg.value }(data) */\n      pop\n      swap1\n      pop\n        /* \"contracts/OwnedUpgradeabilityProxy.sol\":4119:4126  success */\n      dup1\n        /* \"contracts/OwnedUpgradeabilityProxy.sol\":4111:4164  require(success, \"OwnedUpgradeabilityProxy: INVALID\") */\n      tag_82\n      jumpi\n      mload(0x40)\n      0x08c379a000000000000000000000000000000000000000000000000000000000\n      dup2\n      mstore\n      0x04\n      add\n      tag_83\n      swap1\n      tag_60\n      jump\t// in\n    tag_83:\n      mload(0x40)\n      dup1\n      swap2\n      sub\n      swap1\n      revert\n    tag_82:\n        /* \"contracts/OwnedUpgradeabilityProxy.sol\":3987:4172  {... */\n      pop\n        /* \"contracts/OwnedUpgradeabilityProxy.sol\":3885:4172  function upgradeToAndCall(address newImplementation, bytes memory data) payable public onlyProxyOwner {... */\n      pop\n      pop\n      jump\t// out\n        /* \"contracts/OwnedUpgradeabilityProxy.sol\":4638:4827  function implementation() public view returns (address impl) {... */\n    tag_34:\n        /* \"contracts/OwnedUpgradeabilityProxy.sol\":4685:4697  address impl */\n      0x00\n        /* \"contracts/OwnedUpgradeabilityProxy.sol\":4710:4726  bytes32 position */\n      dup1\n        /* \"contracts/OwnedUpgradeabilityProxy.sol\":1091:1137  keccak256(\"com.thruster.proxy.implementation\") */\n      0x99e2d4e47134fbedfde07462ea57d05cbb32806c820da473f8165f58b3ca3a59\n        /* \"contracts/OwnedUpgradeabilityProxy.sol\":4710:4751  bytes32 position = implementationPosition */\n      swap1\n      pop\n        /* \"contracts/OwnedUpgradeabilityProxy.sol\":4800:4808  position */\n      dup1\n        /* \"contracts/OwnedUpgradeabilityProxy.sol\":4794:4809  sload(position) */\n      sload\n        /* \"contracts/OwnedUpgradeabilityProxy.sol\":4786:4809  impl := sload(position) */\n      swap2\n      pop\n        /* \"contracts/OwnedUpgradeabilityProxy.sol\":4771:4820  {... */\n      pop\n        /* \"contracts/OwnedUpgradeabilityProxy.sol\":4638:4827  function implementation() public view returns (address impl) {... */\n      swap1\n      jump\t// out\n        /* \"contracts/OwnedUpgradeabilityProxy.sol\":1871:2070  function setMaintenance(bool _maintenance) external onlyProxyOwner {... */\n    tag_40:\n        /* \"contracts/OwnedUpgradeabilityProxy.sol\":6527:6539  proxyOwner() */\n      tag_86\n        /* \"contracts/OwnedUpgradeabilityProxy.sol\":6527:6537  proxyOwner */\n      tag_20\n        /* \"contracts/OwnedUpgradeabilityProxy.sol\":6527:6539  proxyOwner() */\n      jump\t// in\n    tag_86:\n        /* \"contracts/OwnedUpgradeabilityProxy.sol\":6513:6539  msg.sender == proxyOwner() */\n      0xffffffffffffffffffffffffffffffffffffffff\n      and\n        /* \"contracts/OwnedUpgradeabilityProxy.sol\":6513:6523  msg.sender */\n      caller\n        /* \"contracts/OwnedUpgradeabilityProxy.sol\":6513:6539  msg.sender == proxyOwner() */\n      0xffffffffffffffffffffffffffffffffffffffff\n      and\n      eq\n        /* \"contracts/OwnedUpgradeabilityProxy.sol\":6505:6579  require(msg.sender == proxyOwner(), 'OwnedUpgradeabilityProxy: FORBIDDEN') */\n      tag_87\n      jumpi\n      mload(0x40)\n      0x08c379a000000000000000000000000000000000000000000000000000000000\n      dup2\n      mstore\n      0x04\n      add\n      tag_88\n      swap1\n      tag_56\n      jump\t// in\n    tag_88:\n      mload(0x40)\n      dup1\n      swap2\n      sub\n      swap1\n      revert\n    tag_87:\n        /* \"contracts/OwnedUpgradeabilityProxy.sol\":1949:1965  bytes32 position */\n      0x00\n        /* \"contracts/OwnedUpgradeabilityProxy.sol\":921:964  keccak256(\"com.thruster.proxy.maintenance\") */\n      0x0ed25f2d8dcc032f1568d58009e17f2c5d190d94b1b76c2d082df0da5a6b78b7\n        /* \"contracts/OwnedUpgradeabilityProxy.sol\":1949:1987  bytes32 position = maintenancePosition */\n      swap1\n      pop\n        /* \"contracts/OwnedUpgradeabilityProxy.sol\":2039:2051  _maintenance */\n      dup2\n        /* \"contracts/OwnedUpgradeabilityProxy.sol\":2029:2037  position */\n      dup2\n        /* \"contracts/OwnedUpgradeabilityProxy.sol\":2022:2052  sstore(position, _maintenance) */\n      sstore\n        /* \"contracts/OwnedUpgradeabilityProxy.sol\":2007:2063  {... */\n      pop\n        /* \"contracts/OwnedUpgradeabilityProxy.sol\":1871:2070  function setMaintenance(bool _maintenance) external onlyProxyOwner {... */\n      pop\n      jump\t// out\n        /* \"contracts/OwnedUpgradeabilityProxy.sol\":1601:1797  function maintenance() public view returns (bool _maintenance) {... */\n    tag_43:\n        /* \"contracts/OwnedUpgradeabilityProxy.sol\":1645:1662  bool _maintenance */\n      0x00\n        /* \"contracts/OwnedUpgradeabilityProxy.sol\":1675:1691  bytes32 position */\n      dup1\n        /* \"contracts/OwnedUpgradeabilityProxy.sol\":921:964  keccak256(\"com.thruster.proxy.maintenance\") */\n      0x0ed25f2d8dcc032f1568d58009e17f2c5d190d94b1b76c2d082df0da5a6b78b7\n        /* \"contracts/OwnedUpgradeabilityProxy.sol\":1675:1713  bytes32 position = maintenancePosition */\n      swap1\n      pop\n        /* \"contracts/OwnedUpgradeabilityProxy.sol\":1770:1778  position */\n      dup1\n        /* \"contracts/OwnedUpgradeabilityProxy.sol\":1764:1779  sload(position) */\n      sload\n        /* \"contracts/OwnedUpgradeabilityProxy.sol\":1748:1779  _maintenance := sload(position) */\n      swap2\n      pop\n        /* \"contracts/OwnedUpgradeabilityProxy.sol\":1733:1790  {... */\n      pop\n        /* \"contracts/OwnedUpgradeabilityProxy.sol\":1601:1797  function maintenance() public view returns (bool _maintenance) {... */\n      swap1\n      jump\t// out\n        /* \"contracts/OwnedUpgradeabilityProxy.sol\":2812:3079  function transferProxyOwnership(address newOwner) public onlyProxyOwner {... */\n    tag_49:\n        /* \"contracts/OwnedUpgradeabilityProxy.sol\":6527:6539  proxyOwner() */\n      tag_92\n        /* \"contracts/OwnedUpgradeabilityProxy.sol\":6527:6537  proxyOwner */\n      tag_20\n        /* \"contracts/OwnedUpgradeabilityProxy.sol\":6527:6539  proxyOwner() */\n      jump\t// in\n    tag_92:\n        /* \"contracts/OwnedUpgradeabilityProxy.sol\":6513:6539  msg.sender == proxyOwner() */\n      0xffffffffffffffffffffffffffffffffffffffff\n      and\n        /* \"contracts/OwnedUpgradeabilityProxy.sol\":6513:6523  msg.sender */\n      caller\n        /* \"contracts/OwnedUpgradeabilityProxy.sol\":6513:6539  msg.sender == proxyOwner() */\n      0xffffffffffffffffffffffffffffffffffffffff\n      and\n      eq\n        /* \"contracts/OwnedUpgradeabilityProxy.sol\":6505:6579  require(msg.sender == proxyOwner(), 'OwnedUpgradeabilityProxy: FORBIDDEN') */\n      tag_93\n      jumpi\n      mload(0x40)\n      0x08c379a000000000000000000000000000000000000000000000000000000000\n      dup2\n      mstore\n      0x04\n      add\n      tag_94\n      swap1\n      tag_56\n      jump\t// in\n    tag_94:\n      mload(0x40)\n      dup1\n      swap2\n      sub\n      swap1\n      revert\n    tag_93:\n        /* \"contracts/OwnedUpgradeabilityProxy.sol\":2923:2924  0 */\n      0x00\n        /* \"contracts/OwnedUpgradeabilityProxy.sol\":2903:2925  newOwner != address(0) */\n      0xffffffffffffffffffffffffffffffffffffffff\n      and\n        /* \"contracts/OwnedUpgradeabilityProxy.sol\":2903:2911  newOwner */\n      dup2\n        /* \"contracts/OwnedUpgradeabilityProxy.sol\":2903:2925  newOwner != address(0) */\n      0xffffffffffffffffffffffffffffffffffffffff\n      and\n      sub\n        /* \"contracts/OwnedUpgradeabilityProxy.sol\":2895:2963  require(newOwner != address(0), 'OwnedUpgradeabilityProxy: INVALID') */\n      tag_96\n      jumpi\n      mload(0x40)\n      0x08c379a000000000000000000000000000000000000000000000000000000000\n      dup2\n      mstore\n      0x04\n      add\n      tag_97\n      swap1\n      tag_60\n      jump\t// in\n    tag_97:\n      mload(0x40)\n      dup1\n      swap2\n      sub\n      swap1\n      revert\n    tag_96:\n        /* \"contracts/OwnedUpgradeabilityProxy.sol\":2979:3028  ProxyOwnershipTransferred(proxyOwner(), newOwner) */\n      0x5a3e66efaa1e445ebd894728a69d6959842ea1e97bd79b892797106e270efcd9\n        /* \"contracts/OwnedUpgradeabilityProxy.sol\":3005:3017  proxyOwner() */\n      tag_98\n        /* \"contracts/OwnedUpgradeabilityProxy.sol\":3005:3015  proxyOwner */\n      tag_20\n        /* \"contracts/OwnedUpgradeabilityProxy.sol\":3005:3017  proxyOwner() */\n      jump\t// in\n    tag_98:\n        /* \"contracts/OwnedUpgradeabilityProxy.sol\":3019:3027  newOwner */\n      dup3\n        /* \"contracts/OwnedUpgradeabilityProxy.sol\":2979:3028  ProxyOwnershipTransferred(proxyOwner(), newOwner) */\n      mload(0x40)\n      tag_99\n      swap3\n      swap2\n      swap1\n      tag_100\n      jump\t// in\n    tag_99:\n      mload(0x40)\n      dup1\n      swap2\n      sub\n      swap1\n      log1\n        /* \"contracts/OwnedUpgradeabilityProxy.sol\":3039:3071  setUpgradeabilityOwner(newOwner) */\n      tag_101\n        /* \"contracts/OwnedUpgradeabilityProxy.sol\":3062:3070  newOwner */\n      dup2\n        /* \"contracts/OwnedUpgradeabilityProxy.sol\":3039:3061  setUpgradeabilityOwner */\n      tag_102\n        /* \"contracts/OwnedUpgradeabilityProxy.sol\":3039:3071  setUpgradeabilityOwner(newOwner) */\n      jump\t// in\n    tag_101:\n        /* \"contracts/OwnedUpgradeabilityProxy.sol\":2812:3079  function transferProxyOwnership(address newOwner) public onlyProxyOwner {... */\n      pop\n      jump\t// out\n        /* \"contracts/OwnedUpgradeabilityProxy.sol\":5372:5684  function _upgradeTo(address newImplementation) internal {... */\n    tag_70:\n        /* \"contracts/OwnedUpgradeabilityProxy.sol\":5439:5468  address currentImplementation */\n      0x00\n        /* \"contracts/OwnedUpgradeabilityProxy.sol\":5471:5487  implementation() */\n      tag_104\n        /* \"contracts/OwnedUpgradeabilityProxy.sol\":5471:5485  implementation */\n      tag_34\n        /* \"contracts/OwnedUpgradeabilityProxy.sol\":5471:5487  implementation() */\n      jump\t// in\n    tag_104:\n        /* \"contracts/OwnedUpgradeabilityProxy.sol\":5439:5487  address currentImplementation = implementation() */\n      swap1\n      pop\n        /* \"contracts/OwnedUpgradeabilityProxy.sol\":5531:5548  newImplementation */\n      dup2\n        /* \"contracts/OwnedUpgradeabilityProxy.sol\":5506:5548  currentImplementation != newImplementation */\n      0xffffffffffffffffffffffffffffffffffffffff\n      and\n        /* \"contracts/OwnedUpgradeabilityProxy.sol\":5506:5527  currentImplementation */\n      dup2\n        /* \"contracts/OwnedUpgradeabilityProxy.sol\":5506:5548  currentImplementation != newImplementation */\n      0xffffffffffffffffffffffffffffffffffffffff\n      and\n      sub\n        /* \"contracts/OwnedUpgradeabilityProxy.sol\":5498:5586  require(currentImplementation != newImplementation, 'OwnedUpgradeabilityProxy: INVALID') */\n      tag_105\n      jumpi\n      mload(0x40)\n      0x08c379a000000000000000000000000000000000000000000000000000000000\n      dup2\n      mstore\n      0x04\n      add\n      tag_106\n      swap1\n      tag_60\n      jump\t// in\n    tag_106:\n      mload(0x40)\n      dup1\n      swap2\n      sub\n      swap1\n      revert\n    tag_105:\n        /* \"contracts/OwnedUpgradeabilityProxy.sol\":5597:5633  setImplementation(newImplementation) */\n      tag_107\n        /* \"contracts/OwnedUpgradeabilityProxy.sol\":5615:5632  newImplementation */\n      dup3\n        /* \"contracts/OwnedUpgradeabilityProxy.sol\":5597:5614  setImplementation */\n      tag_108\n        /* \"contracts/OwnedUpgradeabilityProxy.sol\":5597:5633  setImplementation(newImplementation) */\n      jump\t// in\n    tag_107:\n        /* \"contracts/OwnedUpgradeabilityProxy.sol\":5658:5675  newImplementation */\n      dup2\n        /* \"contracts/OwnedUpgradeabilityProxy.sol\":5649:5676  Upgraded(newImplementation) */\n      0xffffffffffffffffffffffffffffffffffffffff\n      and\n      0xbc7cd75a20ee27fd9adebab32041f755214dbc6bffa90cc0225b39da2e5c2d3b\n      mload(0x40)\n      mload(0x40)\n      dup1\n      swap2\n      sub\n      swap1\n      log2\n        /* \"contracts/OwnedUpgradeabilityProxy.sol\":5428:5684  {... */\n      pop\n        /* \"contracts/OwnedUpgradeabilityProxy.sol\":5372:5684  function _upgradeTo(address newImplementation) internal {... */\n      pop\n      jump\t// out\n        /* \"contracts/OwnedUpgradeabilityProxy.sol\":2439:2635  function setUpgradeabilityOwner(address newProxyOwner) internal {... */\n    tag_102:\n        /* \"contracts/OwnedUpgradeabilityProxy.sol\":2514:2530  bytes32 position */\n      0x00\n        /* \"contracts/OwnedUpgradeabilityProxy.sol\":1244:1281  keccak256(\"com.thruster.proxy.owner\") */\n      0x4fd4576c802ecbb819507362929366748755d6888a7c7ba7b13777d369de6d64\n        /* \"contracts/OwnedUpgradeabilityProxy.sol\":2514:2551  bytes32 position = proxyOwnerPosition */\n      swap1\n      pop\n        /* \"contracts/OwnedUpgradeabilityProxy.sol\":2603:2616  newProxyOwner */\n      dup2\n        /* \"contracts/OwnedUpgradeabilityProxy.sol\":2593:2601  position */\n      dup2\n        /* \"contracts/OwnedUpgradeabilityProxy.sol\":2586:2617  sstore(position, newProxyOwner) */\n      sstore\n        /* \"contracts/OwnedUpgradeabilityProxy.sol\":2571:2628  {... */\n      pop\n        /* \"contracts/OwnedUpgradeabilityProxy.sol\":2439:2635  function setUpgradeabilityOwner(address newProxyOwner) internal {... */\n      pop\n      jump\t// out\n        /* \"contracts/OwnedUpgradeabilityProxy.sol\":5000:5203  function setImplementation(address newImplementation) internal {... */\n    tag_108:\n        /* \"contracts/OwnedUpgradeabilityProxy.sol\":5074:5090  bytes32 position */\n      0x00\n        /* \"contracts/OwnedUpgradeabilityProxy.sol\":1091:1137  keccak256(\"com.thruster.proxy.implementation\") */\n      0x99e2d4e47134fbedfde07462ea57d05cbb32806c820da473f8165f58b3ca3a59\n        /* \"contracts/OwnedUpgradeabilityProxy.sol\":5074:5115  bytes32 position = implementationPosition */\n      swap1\n      pop\n        /* \"contracts/OwnedUpgradeabilityProxy.sol\":5167:5184  newImplementation */\n      dup2\n        /* \"contracts/OwnedUpgradeabilityProxy.sol\":5157:5165  position */\n      dup2\n        /* \"contracts/OwnedUpgradeabilityProxy.sol\":5150:5185  sstore(position, newImplementation) */\n      sstore\n        /* \"contracts/OwnedUpgradeabilityProxy.sol\":5135:5196  {... */\n      pop\n        /* \"contracts/OwnedUpgradeabilityProxy.sol\":5000:5203  function setImplementation(address newImplementation) internal {... */\n      pop\n      jump\t// out\n        /* \"#utility.yul\":7:133   */\n    tag_111:\n        /* \"#utility.yul\":44:51   */\n      0x00\n        /* \"#utility.yul\":84:126   */\n      0xffffffffffffffffffffffffffffffffffffffff\n        /* \"#utility.yul\":77:82   */\n      dup3\n        /* \"#utility.yul\":73:127   */\n      and\n        /* \"#utility.yul\":62:127   */\n      swap1\n      pop\n        /* \"#utility.yul\":7:133   */\n      swap2\n      swap1\n      pop\n      jump\t// out\n        /* \"#utility.yul\":139:235   */\n    tag_112:\n        /* \"#utility.yul\":176:183   */\n      0x00\n        /* \"#utility.yul\":205:229   */\n      tag_145\n        /* \"#utility.yul\":223:228   */\n      dup3\n        /* \"#utility.yul\":205:229   */\n      tag_111\n      jump\t// in\n    tag_145:\n        /* \"#utility.yul\":194:229   */\n      swap1\n      pop\n        /* \"#utility.yul\":139:235   */\n      swap2\n      swap1\n      pop\n      jump\t// out\n        /* \"#utility.yul\":241:359   */\n    tag_113:\n        /* \"#utility.yul\":328:352   */\n      tag_147\n        /* \"#utility.yul\":346:351   */\n      dup2\n        /* \"#utility.yul\":328:352   */\n      tag_112\n      jump\t// in\n    tag_147:\n        /* \"#utility.yul\":323:326   */\n      dup3\n        /* \"#utility.yul\":316:353   */\n      mstore\n        /* \"#utility.yul\":241:359   */\n      pop\n      pop\n      jump\t// out\n        /* \"#utility.yul\":365:587   */\n    tag_22:\n        /* \"#utility.yul\":458:462   */\n      0x00\n        /* \"#utility.yul\":496:498   */\n      0x20\n        /* \"#utility.yul\":485:494   */\n      dup3\n        /* \"#utility.yul\":481:499   */\n      add\n        /* \"#utility.yul\":473:499   */\n      swap1\n      pop\n        /* \"#utility.yul\":509:580   */\n      tag_149\n        /* \"#utility.yul\":577:578   */\n      0x00\n        /* \"#utility.yul\":566:575   */\n      dup4\n        /* \"#utility.yul\":562:579   */\n      add\n        /* \"#utility.yul\":553:559   */\n      dup5\n        /* \"#utility.yul\":509:580   */\n      tag_113\n      jump\t// in\n    tag_149:\n        /* \"#utility.yul\":365:587   */\n      swap3\n      swap2\n      pop\n      pop\n      jump\t// out\n        /* \"#utility.yul\":593:668   */\n    tag_114:\n        /* \"#utility.yul\":626:632   */\n      0x00\n        /* \"#utility.yul\":659:661   */\n      0x40\n        /* \"#utility.yul\":653:662   */\n      mload\n        /* \"#utility.yul\":643:662   */\n      swap1\n      pop\n        /* \"#utility.yul\":593:668   */\n      swap1\n      jump\t// out\n        /* \"#utility.yul\":674:791   */\n    tag_115:\n        /* \"#utility.yul\":783:784   */\n      0x00\n        /* \"#utility.yul\":780:781   */\n      dup1\n        /* \"#utility.yul\":773:785   */\n      revert\n        /* \"#utility.yul\":797:914   */\n    tag_116:\n        /* \"#utility.yul\":906:907   */\n      0x00\n        /* \"#utility.yul\":903:904   */\n      dup1\n        /* \"#utility.yul\":896:908   */\n      revert\n        /* \"#utility.yul\":920:1042   */\n    tag_117:\n        /* \"#utility.yul\":993:1017   */\n      tag_154\n        /* \"#utility.yul\":1011:1016   */\n      dup2\n        /* \"#utility.yul\":993:1017   */\n      tag_112\n      jump\t// in\n    tag_154:\n        /* \"#utility.yul\":986:991   */\n      dup2\n        /* \"#utility.yul\":983:1018   */\n      eq\n        /* \"#utility.yul\":973:1036   */\n      tag_155\n      jumpi\n        /* \"#utility.yul\":1032:1033   */\n      0x00\n        /* \"#utility.yul\":1029:1030   */\n      dup1\n        /* \"#utility.yul\":1022:1034   */\n      revert\n        /* \"#utility.yul\":973:1036   */\n    tag_155:\n        /* \"#utility.yul\":920:1042   */\n      pop\n      jump\t// out\n        /* \"#utility.yul\":1048:1187   */\n    tag_118:\n        /* \"#utility.yul\":1094:1099   */\n      0x00\n        /* \"#utility.yul\":1132:1138   */\n      dup2\n        /* \"#utility.yul\":1119:1139   */\n      calldataload\n        /* \"#utility.yul\":1110:1139   */\n      swap1\n      pop\n        /* \"#utility.yul\":1148:1181   */\n      tag_157\n        /* \"#utility.yul\":1175:1180   */\n      dup2\n        /* \"#utility.yul\":1148:1181   */\n      tag_117\n      jump\t// in\n    tag_157:\n        /* \"#utility.yul\":1048:1187   */\n      swap3\n      swap2\n      pop\n      pop\n      jump\t// out\n        /* \"#utility.yul\":1193:1522   */\n    tag_26:\n        /* \"#utility.yul\":1252:1258   */\n      0x00\n        /* \"#utility.yul\":1301:1303   */\n      0x20\n        /* \"#utility.yul\":1289:1298   */\n      dup3\n        /* \"#utility.yul\":1280:1287   */\n      dup5\n        /* \"#utility.yul\":1276:1299   */\n      sub\n        /* \"#utility.yul\":1272:1304   */\n      slt\n        /* \"#utility.yul\":1269:1388   */\n      iszero\n      tag_159\n      jumpi\n        /* \"#utility.yul\":1307:1386   */\n      tag_160\n      tag_115\n      jump\t// in\n    tag_160:\n        /* \"#utility.yul\":1269:1388   */\n    tag_159:\n        /* \"#utility.yul\":1427:1428   */\n      0x00\n        /* \"#utility.yul\":1452:1505   */\n      tag_161\n        /* \"#utility.yul\":1497:1504   */\n      dup5\n        /* \"#utility.yul\":1488:1494   */\n      dup3\n        /* \"#utility.yul\":1477:1486   */\n      dup6\n        /* \"#utility.yul\":1473:1495   */\n      add\n        /* \"#utility.yul\":1452:1505   */\n      tag_118\n      jump\t// in\n    tag_161:\n        /* \"#utility.yul\":1442:1505   */\n      swap2\n      pop\n        /* \"#utility.yul\":1398:1515   */\n      pop\n        /* \"#utility.yul\":1193:1522   */\n      swap3\n      swap2\n      pop\n      pop\n      jump\t// out\n        /* \"#utility.yul\":1528:1645   */\n    tag_119:\n        /* \"#utility.yul\":1637:1638   */\n      0x00\n        /* \"#utility.yul\":1634:1635   */\n      dup1\n        /* \"#utility.yul\":1627:1639   */\n      revert\n        /* \"#utility.yul\":1651:1768   */\n    tag_120:\n        /* \"#utility.yul\":1760:1761   */\n      0x00\n        /* \"#utility.yul\":1757:1758   */\n      dup1\n        /* \"#utility.yul\":1750:1762   */\n      revert\n        /* \"#utility.yul\":1774:1876   */\n    tag_121:\n        /* \"#utility.yul\":1815:1821   */\n      0x00\n        /* \"#utility.yul\":1866:1868   */\n      0x1f\n        /* \"#utility.yul\":1862:1869   */\n      not\n        /* \"#utility.yul\":1857:1859   */\n      0x1f\n        /* \"#utility.yul\":1850:1855   */\n      dup4\n        /* \"#utility.yul\":1846:1860   */\n      add\n        /* \"#utility.yul\":1842:1870   */\n      and\n        /* \"#utility.yul\":1832:1870   */\n      swap1\n      pop\n        /* \"#utility.yul\":1774:1876   */\n      swap2\n      swap1\n      pop\n      jump\t// out\n        /* \"#utility.yul\":1882:2062   */\n    tag_122:\n        /* \"#utility.yul\":1930:2007   */\n      0x4e487b7100000000000000000000000000000000000000000000000000000000\n        /* \"#utility.yul\":1927:1928   */\n      0x00\n        /* \"#utility.yul\":1920:2008   */\n      mstore\n        /* \"#utility.yul\":2027:2031   */\n      0x41\n        /* \"#utility.yul\":2024:2025   */\n      0x04\n        /* \"#utility.yul\":2017:2032   */\n      mstore\n        /* \"#utility.yul\":2051:2055   */\n      0x24\n        /* \"#utility.yul\":2048:2049   */\n      0x00\n        /* \"#utility.yul\":2041:2056   */\n      revert\n        /* \"#utility.yul\":2068:2349   */\n    tag_123:\n        /* \"#utility.yul\":2151:2178   */\n      tag_167\n        /* \"#utility.yul\":2173:2177   */\n      dup3\n        /* \"#utility.yul\":2151:2178   */\n      tag_121\n      jump\t// in\n    tag_167:\n        /* \"#utility.yul\":2143:2149   */\n      dup2\n        /* \"#utility.yul\":2139:2179   */\n      add\n        /* \"#utility.yul\":2281:2287   */\n      dup2\n        /* \"#utility.yul\":2269:2279   */\n      dup2\n        /* \"#utility.yul\":2266:2288   */\n      lt\n        /* \"#utility.yul\":2245:2263   */\n      0xffffffffffffffff\n        /* \"#utility.yul\":2233:2243   */\n      dup3\n        /* \"#utility.yul\":2230:2264   */\n      gt\n        /* \"#utility.yul\":2227:2289   */\n      or\n        /* \"#utility.yul\":2224:2312   */\n      iszero\n      tag_168\n      jumpi\n        /* \"#utility.yul\":2292:2310   */\n      tag_169\n      tag_122\n      jump\t// in\n    tag_169:\n        /* \"#utility.yul\":2224:2312   */\n    tag_168:\n        /* \"#utility.yul\":2332:2342   */\n      dup1\n        /* \"#utility.yul\":2328:2330   */\n      0x40\n        /* \"#utility.yul\":2321:2343   */\n      mstore\n        /* \"#utility.yul\":2111:2349   */\n      pop\n        /* \"#utility.yul\":2068:2349   */\n      pop\n      pop\n      jump\t// out\n        /* \"#utility.yul\":2355:2484   */\n    tag_124:\n        /* \"#utility.yul\":2389:2395   */\n      0x00\n        /* \"#utility.yul\":2416:2436   */\n      tag_171\n      tag_114\n      jump\t// in\n    tag_171:\n        /* \"#utility.yul\":2406:2436   */\n      swap1\n      pop\n        /* \"#utility.yul\":2445:2478   */\n      tag_172\n        /* \"#utility.yul\":2473:2477   */\n      dup3\n        /* \"#utility.yul\":2465:2471   */\n      dup3\n        /* \"#utility.yul\":2445:2478   */\n      tag_123\n      jump\t// in\n    tag_172:\n        /* \"#utility.yul\":2355:2484   */\n      swap2\n      swap1\n      pop\n      jump\t// out\n        /* \"#utility.yul\":2490:2797   */\n    tag_125:\n        /* \"#utility.yul\":2551:2555   */\n      0x00\n        /* \"#utility.yul\":2641:2659   */\n      0xffffffffffffffff\n        /* \"#utility.yul\":2633:2639   */\n      dup3\n        /* \"#utility.yul\":2630:2660   */\n      gt\n        /* \"#utility.yul\":2627:2683   */\n      iszero\n      tag_174\n      jumpi\n        /* \"#utility.yul\":2663:2681   */\n      tag_175\n      tag_122\n      jump\t// in\n    tag_175:\n        /* \"#utility.yul\":2627:2683   */\n    tag_174:\n        /* \"#utility.yul\":2701:2730   */\n      tag_176\n        /* \"#utility.yul\":2723:2729   */\n      dup3\n        /* \"#utility.yul\":2701:2730   */\n      tag_121\n      jump\t// in\n    tag_176:\n        /* \"#utility.yul\":2693:2730   */\n      swap1\n      pop\n        /* \"#utility.yul\":2785:2789   */\n      0x20\n        /* \"#utility.yul\":2779:2783   */\n      dup2\n        /* \"#utility.yul\":2775:2790   */\n      add\n        /* \"#utility.yul\":2767:2790   */\n      swap1\n      pop\n        /* \"#utility.yul\":2490:2797   */\n      swap2\n      swap1\n      pop\n      jump\t// out\n        /* \"#utility.yul\":2803:2951   */\n    tag_126:\n        /* \"#utility.yul\":2901:2907   */\n      dup3\n        /* \"#utility.yul\":2896:2899   */\n      dup2\n        /* \"#utility.yul\":2891:2894   */\n      dup4\n        /* \"#utility.yul\":2878:2908   */\n      calldatacopy\n        /* \"#utility.yul\":2942:2943   */\n      0x00\n        /* \"#utility.yul\":2933:2939   */\n      dup4\n        /* \"#utility.yul\":2928:2931   */\n      dup4\n        /* \"#utility.yul\":2924:2940   */\n      add\n        /* \"#utility.yul\":2917:2944   */\n      mstore\n        /* \"#utility.yul\":2803:2951   */\n      pop\n      pop\n      pop\n      jump\t// out\n        /* \"#utility.yul\":2957:3380   */\n    tag_127:\n        /* \"#utility.yul\":3034:3039   */\n      0x00\n        /* \"#utility.yul\":3059:3124   */\n      tag_179\n        /* \"#utility.yul\":3075:3123   */\n      tag_180\n        /* \"#utility.yul\":3116:3122   */\n      dup5\n        /* \"#utility.yul\":3075:3123   */\n      tag_125\n      jump\t// in\n    tag_180:\n        /* \"#utility.yul\":3059:3124   */\n      tag_124\n      jump\t// in\n    tag_179:\n        /* \"#utility.yul\":3050:3124   */\n      swap1\n      pop\n        /* \"#utility.yul\":3147:3153   */\n      dup3\n        /* \"#utility.yul\":3140:3145   */\n      dup2\n        /* \"#utility.yul\":3133:3154   */\n      mstore\n        /* \"#utility.yul\":3185:3189   */\n      0x20\n        /* \"#utility.yul\":3178:3183   */\n      dup2\n        /* \"#utility.yul\":3174:3190   */\n      add\n        /* \"#utility.yul\":3223:3226   */\n      dup5\n        /* \"#utility.yul\":3214:3220   */\n      dup5\n        /* \"#utility.yul\":3209:3212   */\n      dup5\n        /* \"#utility.yul\":3205:3221   */\n      add\n        /* \"#utility.yul\":3202:3227   */\n      gt\n        /* \"#utility.yul\":3199:3311   */\n      iszero\n      tag_181\n      jumpi\n        /* \"#utility.yul\":3230:3309   */\n      tag_182\n      tag_120\n      jump\t// in\n    tag_182:\n        /* \"#utility.yul\":3199:3311   */\n    tag_181:\n        /* \"#utility.yul\":3320:3374   */\n      tag_183\n        /* \"#utility.yul\":3367:3373   */\n      dup5\n        /* \"#utility.yul\":3362:3365   */\n      dup3\n        /* \"#utility.yul\":3357:3360   */\n      dup6\n        /* \"#utility.yul\":3320:3374   */\n      tag_126\n      jump\t// in\n    tag_183:\n        /* \"#utility.yul\":3040:3380   */\n      pop\n        /* \"#utility.yul\":2957:3380   */\n      swap4\n      swap3\n      pop\n      pop\n      pop\n      jump\t// out\n        /* \"#utility.yul\":3399:3737   */\n    tag_128:\n        /* \"#utility.yul\":3454:3459   */\n      0x00\n        /* \"#utility.yul\":3503:3506   */\n      dup3\n        /* \"#utility.yul\":3496:3500   */\n      0x1f\n        /* \"#utility.yul\":3488:3494   */\n      dup4\n        /* \"#utility.yul\":3484:3501   */\n      add\n        /* \"#utility.yul\":3480:3507   */\n      slt\n        /* \"#utility.yul\":3470:3592   */\n      tag_185\n      jumpi\n        /* \"#utility.yul\":3511:3590   */\n      tag_186\n      tag_119\n      jump\t// in\n    tag_186:\n        /* \"#utility.yul\":3470:3592   */\n    tag_185:\n        /* \"#utility.yul\":3628:3634   */\n      dup2\n        /* \"#utility.yul\":3615:3635   */\n      calldataload\n        /* \"#utility.yul\":3653:3731   */\n      tag_187\n        /* \"#utility.yul\":3727:3730   */\n      dup5\n        /* \"#utility.yul\":3719:3725   */\n      dup3\n        /* \"#utility.yul\":3712:3716   */\n      0x20\n        /* \"#utility.yul\":3704:3710   */\n      dup7\n        /* \"#utility.yul\":3700:3717   */\n      add\n        /* \"#utility.yul\":3653:3731   */\n      tag_127\n      jump\t// in\n    tag_187:\n        /* \"#utility.yul\":3644:3731   */\n      swap2\n      pop\n        /* \"#utility.yul\":3460:3737   */\n      pop\n        /* \"#utility.yul\":3399:3737   */\n      swap3\n      swap2\n      pop\n      pop\n      jump\t// out\n        /* \"#utility.yul\":3743:4395   */\n    tag_30:\n        /* \"#utility.yul\":3820:3826   */\n      0x00\n        /* \"#utility.yul\":3828:3834   */\n      dup1\n        /* \"#utility.yul\":3877:3879   */\n      0x40\n        /* \"#utility.yul\":3865:3874   */\n      dup4\n        /* \"#utility.yul\":3856:3863   */\n      dup6\n        /* \"#utility.yul\":3852:3875   */\n      sub\n        /* \"#utility.yul\":3848:3880   */\n      slt\n        /* \"#utility.yul\":3845:3964   */\n      iszero\n      tag_189\n      jumpi\n        /* \"#utility.yul\":3883:3962   */\n      tag_190\n      tag_115\n      jump\t// in\n    tag_190:\n        /* \"#utility.yul\":3845:3964   */\n    tag_189:\n        /* \"#utility.yul\":4003:4004   */\n      0x00\n        /* \"#utility.yul\":4028:4081   */\n      tag_191\n        /* \"#utility.yul\":4073:4080   */\n      dup6\n        /* \"#utility.yul\":4064:4070   */\n      dup3\n        /* \"#utility.yul\":4053:4062   */\n      dup7\n        /* \"#utility.yul\":4049:4071   */\n      add\n        /* \"#utility.yul\":4028:4081   */\n      tag_118\n      jump\t// in\n    tag_191:\n        /* \"#utility.yul\":4018:4081   */\n      swap3\n      pop\n        /* \"#utility.yul\":3974:4091   */\n      pop\n        /* \"#utility.yul\":4158:4160   */\n      0x20\n        /* \"#utility.yul\":4147:4156   */\n      dup4\n        /* \"#utility.yul\":4143:4161   */\n      add\n        /* \"#utility.yul\":4130:4162   */\n      calldataload\n        /* \"#utility.yul\":4189:4207   */\n      0xffffffffffffffff\n        /* \"#utility.yul\":4181:4187   */\n      dup2\n        /* \"#utility.yul\":4178:4208   */\n      gt\n        /* \"#utility.yul\":4175:4292   */\n      iszero\n      tag_192\n      jumpi\n        /* \"#utility.yul\":4211:4290   */\n      tag_193\n      tag_116\n      jump\t// in\n    tag_193:\n        /* \"#utility.yul\":4175:4292   */\n    tag_192:\n        /* \"#utility.yul\":4316:4378   */\n      tag_194\n        /* \"#utility.yul\":4370:4377   */\n      dup6\n        /* \"#utility.yul\":4361:4367   */\n      dup3\n        /* \"#utility.yul\":4350:4359   */\n      dup7\n        /* \"#utility.yul\":4346:4368   */\n      add\n        /* \"#utility.yul\":4316:4378   */\n      tag_128\n      jump\t// in\n    tag_194:\n        /* \"#utility.yul\":4306:4378   */\n      swap2\n      pop\n        /* \"#utility.yul\":4101:4388   */\n      pop\n        /* \"#utility.yul\":3743:4395   */\n      swap3\n      pop\n      swap3\n      swap1\n      pop\n      jump\t// out\n        /* \"#utility.yul\":4401:4491   */\n    tag_129:\n        /* \"#utility.yul\":4435:4442   */\n      0x00\n        /* \"#utility.yul\":4478:4483   */\n      dup2\n        /* \"#utility.yul\":4471:4484   */\n      iszero\n        /* \"#utility.yul\":4464:4485   */\n      iszero\n        /* \"#utility.yul\":4453:4485   */\n      swap1\n      pop\n        /* \"#utility.yul\":4401:4491   */\n      swap2\n      swap1\n      pop\n      jump\t// out\n        /* \"#utility.yul\":4497:4613   */\n    tag_130:\n        /* \"#utility.yul\":4567:4588   */\n      tag_197\n        /* \"#utility.yul\":4582:4587   */\n      dup2\n        /* \"#utility.yul\":4567:4588   */\n      tag_129\n      jump\t// in\n    tag_197:\n        /* \"#utility.yul\":4560:4565   */\n      dup2\n        /* \"#utility.yul\":4557:4589   */\n      eq\n        /* \"#utility.yul\":4547:4607   */\n      tag_198\n      jumpi\n        /* \"#utility.yul\":4603:4604   */\n      0x00\n        /* \"#utility.yul\":4600:4601   */\n      dup1\n        /* \"#utility.yul\":4593:4605   */\n      revert\n        /* \"#utility.yul\":4547:4607   */\n    tag_198:\n        /* \"#utility.yul\":4497:4613   */\n      pop\n      jump\t// out\n        /* \"#utility.yul\":4619:4752   */\n    tag_131:\n        /* \"#utility.yul\":4662:4667   */\n      0x00\n        /* \"#utility.yul\":4700:4706   */\n      dup2\n        /* \"#utility.yul\":4687:4707   */\n      calldataload\n        /* \"#utility.yul\":4678:4707   */\n      swap1\n      pop\n        /* \"#utility.yul\":4716:4746   */\n      tag_200\n        /* \"#utility.yul\":4740:4745   */\n      dup2\n        /* \"#utility.yul\":4716:4746   */\n      tag_130\n      jump\t// in\n    tag_200:\n        /* \"#utility.yul\":4619:4752   */\n      swap3\n      swap2\n      pop\n      pop\n      jump\t// out\n        /* \"#utility.yul\":4758:5081   */\n    tag_39:\n        /* \"#utility.yul\":4814:4820   */\n      0x00\n        /* \"#utility.yul\":4863:4865   */\n      0x20\n        /* \"#utility.yul\":4851:4860   */\n      dup3\n        /* \"#utility.yul\":4842:4849   */\n      dup5\n        /* \"#utility.yul\":4838:4861   */\n      sub\n        /* \"#utility.yul\":4834:4866   */\n      slt\n        /* \"#utility.yul\":4831:4950   */\n      iszero\n      tag_202\n      jumpi\n        /* \"#utility.yul\":4869:4948   */\n      tag_203\n      tag_115\n      jump\t// in\n    tag_203:\n        /* \"#utility.yul\":4831:4950   */\n    tag_202:\n        /* \"#utility.yul\":4989:4990   */\n      0x00\n        /* \"#utility.yul\":5014:5064   */\n      tag_204\n        /* \"#utility.yul\":5056:5063   */\n      dup5\n        /* \"#utility.yul\":5047:5053   */\n      dup3\n        /* \"#utility.yul\":5036:5045   */\n      dup6\n        /* \"#utility.yul\":5032:5054   */\n      add\n        /* \"#utility.yul\":5014:5064   */\n      tag_131\n      jump\t// in\n    tag_204:\n        /* \"#utility.yul\":5004:5064   */\n      swap2\n      pop\n        /* \"#utility.yul\":4960:5074   */\n      pop\n        /* \"#utility.yul\":4758:5081   */\n      swap3\n      swap2\n      pop\n      pop\n      jump\t// out\n        /* \"#utility.yul\":5087:5196   */\n    tag_132:\n        /* \"#utility.yul\":5168:5189   */\n      tag_206\n        /* \"#utility.yul\":5183:5188   */\n      dup2\n        /* \"#utility.yul\":5168:5189   */\n      tag_129\n      jump\t// in\n    tag_206:\n        /* \"#utility.yul\":5163:5166   */\n      dup3\n        /* \"#utility.yul\":5156:5190   */\n      mstore\n        /* \"#utility.yul\":5087:5196   */\n      pop\n      pop\n      jump\t// out\n        /* \"#utility.yul\":5202:5412   */\n    tag_45:\n        /* \"#utility.yul\":5289:5293   */\n      0x00\n        /* \"#utility.yul\":5327:5329   */\n      0x20\n        /* \"#utility.yul\":5316:5325   */\n      dup3\n        /* \"#utility.yul\":5312:5330   */\n      add\n        /* \"#utility.yul\":5304:5330   */\n      swap1\n      pop\n        /* \"#utility.yul\":5340:5405   */\n      tag_208\n        /* \"#utility.yul\":5402:5403   */\n      0x00\n        /* \"#utility.yul\":5391:5400   */\n      dup4\n        /* \"#utility.yul\":5387:5404   */\n      add\n        /* \"#utility.yul\":5378:5384   */\n      dup5\n        /* \"#utility.yul\":5340:5405   */\n      tag_132\n      jump\t// in\n    tag_208:\n        /* \"#utility.yul\":5202:5412   */\n      swap3\n      swap2\n      pop\n      pop\n      jump\t// out\n        /* \"#utility.yul\":5418:5587   */\n    tag_133:\n        /* \"#utility.yul\":5502:5513   */\n      0x00\n        /* \"#utility.yul\":5536:5542   */\n      dup3\n        /* \"#utility.yul\":5531:5534   */\n      dup3\n        /* \"#utility.yul\":5524:5543   */\n      mstore\n        /* \"#utility.yul\":5576:5580   */\n      0x20\n        /* \"#utility.yul\":5571:5574   */\n      dup3\n        /* \"#utility.yul\":5567:5581   */\n      add\n        /* \"#utility.yul\":5552:5581   */\n      swap1\n      pop\n        /* \"#utility.yul\":5418:5587   */\n      swap3\n      swap2\n      pop\n      pop\n      jump\t// out\n        /* \"#utility.yul\":5593:5815   */\n    tag_134:\n        /* \"#utility.yul\":5733:5767   */\n      0x4f776e6564557067726164656162696c69747950726f78793a20464f52424944\n        /* \"#utility.yul\":5729:5730   */\n      0x00\n        /* \"#utility.yul\":5721:5727   */\n      dup3\n        /* \"#utility.yul\":5717:5731   */\n      add\n        /* \"#utility.yul\":5710:5768   */\n      mstore\n        /* \"#utility.yul\":5802:5807   */\n      0x44454e0000000000000000000000000000000000000000000000000000000000\n        /* \"#utility.yul\":5797:5799   */\n      0x20\n        /* \"#utility.yul\":5789:5795   */\n      dup3\n        /* \"#utility.yul\":5785:5800   */\n      add\n        /* \"#utility.yul\":5778:5808   */\n      mstore\n        /* \"#utility.yul\":5593:5815   */\n      pop\n      jump\t// out\n        /* \"#utility.yul\":5821:6187   */\n    tag_135:\n        /* \"#utility.yul\":5963:5966   */\n      0x00\n        /* \"#utility.yul\":5984:6051   */\n      tag_212\n        /* \"#utility.yul\":6048:6050   */\n      0x23\n        /* \"#utility.yul\":6043:6046   */\n      dup4\n        /* \"#utility.yul\":5984:6051   */\n      tag_133\n      jump\t// in\n    tag_212:\n        /* \"#utility.yul\":5977:6051   */\n      swap2\n      pop\n        /* \"#utility.yul\":6060:6153   */\n      tag_213\n        /* \"#utility.yul\":6149:6152   */\n      dup3\n        /* \"#utility.yul\":6060:6153   */\n      tag_134\n      jump\t// in\n    tag_213:\n        /* \"#utility.yul\":6178:6180   */\n      0x40\n        /* \"#utility.yul\":6173:6176   */\n      dup3\n        /* \"#utility.yul\":6169:6181   */\n      add\n        /* \"#utility.yul\":6162:6181   */\n      swap1\n      pop\n        /* \"#utility.yul\":5821:6187   */\n      swap2\n      swap1\n      pop\n      jump\t// out\n        /* \"#utility.yul\":6193:6612   */\n    tag_56:\n        /* \"#utility.yul\":6359:6363   */\n      0x00\n        /* \"#utility.yul\":6397:6399   */\n      0x20\n        /* \"#utility.yul\":6386:6395   */\n      dup3\n        /* \"#utility.yul\":6382:6400   */\n      add\n        /* \"#utility.yul\":6374:6400   */\n      swap1\n      pop\n        /* \"#utility.yul\":6446:6455   */\n      dup2\n        /* \"#utility.yul\":6440:6444   */\n      dup2\n        /* \"#utility.yul\":6436:6456   */\n      sub\n        /* \"#utility.yul\":6432:6433   */\n      0x00\n        /* \"#utility.yul\":6421:6430   */\n      dup4\n        /* \"#utility.yul\":6417:6434   */\n      add\n        /* \"#utility.yul\":6410:6457   */\n      mstore\n        /* \"#utility.yul\":6474:6605   */\n      tag_215\n        /* \"#utility.yul\":6600:6604   */\n      dup2\n        /* \"#utility.yul\":6474:6605   */\n      tag_135\n      jump\t// in\n    tag_215:\n        /* \"#utility.yul\":6466:6605   */\n      swap1\n      pop\n        /* \"#utility.yul\":6193:6612   */\n      swap2\n      swap1\n      pop\n      jump\t// out\n        /* \"#utility.yul\":6618:6838   */\n    tag_136:\n        /* \"#utility.yul\":6758:6792   */\n      0x4f776e6564557067726164656162696c69747950726f78793a20494e56414c49\n        /* \"#utility.yul\":6754:6755   */\n      0x00\n        /* \"#utility.yul\":6746:6752   */\n      dup3\n        /* \"#utility.yul\":6742:6756   */\n      add\n        /* \"#utility.yul\":6735:6793   */\n      mstore\n        /* \"#utility.yul\":6827:6830   */\n      0x4400000000000000000000000000000000000000000000000000000000000000\n        /* \"#utility.yul\":6822:6824   */\n      0x20\n        /* \"#utility.yul\":6814:6820   */\n      dup3\n        /* \"#utility.yul\":6810:6825   */\n      add\n        /* \"#utility.yul\":6803:6831   */\n      mstore\n        /* \"#utility.yul\":6618:6838   */\n      pop\n      jump\t// out\n        /* \"#utility.yul\":6844:7210   */\n    tag_137:\n        /* \"#utility.yul\":6986:6989   */\n      0x00\n        /* \"#utility.yul\":7007:7074   */\n      tag_218\n        /* \"#utility.yul\":7071:7073   */\n      0x21\n        /* \"#utility.yul\":7066:7069   */\n      dup4\n        /* \"#utility.yul\":7007:7074   */\n      tag_133\n      jump\t// in\n    tag_218:\n        /* \"#utility.yul\":7000:7074   */\n      swap2\n      pop\n        /* \"#utility.yul\":7083:7176   */\n      tag_219\n        /* \"#utility.yul\":7172:7175   */\n      dup3\n        /* \"#utility.yul\":7083:7176   */\n      tag_136\n      jump\t// in\n    tag_219:\n        /* \"#utility.yul\":7201:7203   */\n      0x40\n        /* \"#utility.yul\":7196:7199   */\n      dup3\n        /* \"#utility.yul\":7192:7204   */\n      add\n        /* \"#utility.yul\":7185:7204   */\n      swap1\n      pop\n        /* \"#utility.yul\":6844:7210   */\n      swap2\n      swap1\n      pop\n      jump\t// out\n        /* \"#utility.yul\":7216:7635   */\n    tag_60:\n        /* \"#utility.yul\":7382:7386   */\n      0x00\n        /* \"#utility.yul\":7420:7422   */\n      0x20\n        /* \"#utility.yul\":7409:7418   */\n      dup3\n        /* \"#utility.yul\":7405:7423   */\n      add\n        /* \"#utility.yul\":7397:7423   */\n      swap1\n      pop\n        /* \"#utility.yul\":7469:7478   */\n      dup2\n        /* \"#utility.yul\":7463:7467   */\n      dup2\n        /* \"#utility.yul\":7459:7479   */\n      sub\n        /* \"#utility.yul\":7455:7456   */\n      0x00\n        /* \"#utility.yul\":7444:7453   */\n      dup4\n        /* \"#utility.yul\":7440:7457   */\n      add\n        /* \"#utility.yul\":7433:7480   */\n      mstore\n        /* \"#utility.yul\":7497:7628   */\n      tag_221\n        /* \"#utility.yul\":7623:7627   */\n      dup2\n        /* \"#utility.yul\":7497:7628   */\n      tag_137\n      jump\t// in\n    tag_221:\n        /* \"#utility.yul\":7489:7628   */\n      swap1\n      pop\n        /* \"#utility.yul\":7216:7635   */\n      swap2\n      swap1\n      pop\n      jump\t// out\n        /* \"#utility.yul\":7641:7739   */\n    tag_138:\n        /* \"#utility.yul\":7692:7698   */\n      0x00\n        /* \"#utility.yul\":7726:7731   */\n      dup2\n        /* \"#utility.yul\":7720:7732   */\n      mload\n        /* \"#utility.yul\":7710:7732   */\n      swap1\n      pop\n        /* \"#utility.yul\":7641:7739   */\n      swap2\n      swap1\n      pop\n      jump\t// out\n        /* \"#utility.yul\":7745:7892   */\n    tag_139:\n        /* \"#utility.yul\":7846:7857   */\n      0x00\n        /* \"#utility.yul\":7883:7886   */\n      dup2\n        /* \"#utility.yul\":7868:7886   */\n      swap1\n      pop\n        /* \"#utility.yul\":7745:7892   */\n      swap3\n      swap2\n      pop\n      pop\n      jump\t// out\n        /* \"#utility.yul\":7898:8037   */\n    tag_140:\n        /* \"#utility.yul\":7987:7993   */\n      dup3\n        /* \"#utility.yul\":7982:7985   */\n      dup2\n        /* \"#utility.yul\":7977:7980   */\n      dup4\n        /* \"#utility.yul\":7971:7994   */\n      mcopy\n        /* \"#utility.yul\":8028:8029   */\n      0x00\n        /* \"#utility.yul\":8019:8025   */\n      dup4\n        /* \"#utility.yul\":8014:8017   */\n      dup4\n        /* \"#utility.yul\":8010:8026   */\n      add\n        /* \"#utility.yul\":8003:8030   */\n      mstore\n        /* \"#utility.yul\":7898:8037   */\n      pop\n      pop\n      pop\n      jump\t// out\n        /* \"#utility.yul\":8043:8429   */\n    tag_141:\n        /* \"#utility.yul\":8147:8150   */\n      0x00\n        /* \"#utility.yul\":8175:8213   */\n      tag_226\n        /* \"#utility.yul\":8207:8212   */\n      dup3\n        /* \"#utility.yul\":8175:8213   */\n      tag_138\n      jump\t// in\n    tag_226:\n        /* \"#utility.yul\":8229:8317   */\n      tag_227\n        /* \"#utility.yul\":8310:8316   */\n      dup2\n        /* \"#utility.yul\":8305:8308   */\n      dup6\n        /* \"#utility.yul\":8229:8317   */\n      tag_139\n      jump\t// in\n    tag_227:\n        /* \"#utility.yul\":8222:8317   */\n      swap4\n      pop\n        /* \"#utility.yul\":8326:8391   */\n      tag_228\n        /* \"#utility.yul\":8384:8390   */\n      dup2\n        /* \"#utility.yul\":8379:8382   */\n      dup6\n        /* \"#utility.yul\":8372:8376   */\n      0x20\n        /* \"#utility.yul\":8365:8370   */\n      dup7\n        /* \"#utility.yul\":8361:8377   */\n      add\n        /* \"#utility.yul\":8326:8391   */\n      tag_140\n      jump\t// in\n    tag_228:\n        /* \"#utility.yul\":8416:8422   */\n      dup1\n        /* \"#utility.yul\":8411:8414   */\n      dup5\n        /* \"#utility.yul\":8407:8423   */\n      add\n        /* \"#utility.yul\":8400:8423   */\n      swap2\n      pop\n        /* \"#utility.yul\":8151:8429   */\n      pop\n        /* \"#utility.yul\":8043:8429   */\n      swap3\n      swap2\n      pop\n      pop\n      jump\t// out\n        /* \"#utility.yul\":8435:8706   */\n    tag_78:\n        /* \"#utility.yul\":8565:8568   */\n      0x00\n        /* \"#utility.yul\":8587:8680   */\n      tag_230\n        /* \"#utility.yul\":8676:8679   */\n      dup3\n        /* \"#utility.yul\":8667:8673   */\n      dup5\n        /* \"#utility.yul\":8587:8680   */\n      tag_141\n      jump\t// in\n    tag_230:\n        /* \"#utility.yul\":8580:8680   */\n      swap2\n      pop\n        /* \"#utility.yul\":8697:8700   */\n      dup2\n        /* \"#utility.yul\":8690:8700   */\n      swap1\n      pop\n        /* \"#utility.yul\":8435:8706   */\n      swap3\n      swap2\n      pop\n      pop\n      jump\t// out\n        /* \"#utility.yul\":8712:9044   */\n    tag_100:\n        /* \"#utility.yul\":8833:8837   */\n      0x00\n        /* \"#utility.yul\":8871:8873   */\n      0x40\n        /* \"#utility.yul\":8860:8869   */\n      dup3\n        /* \"#utility.yul\":8856:8874   */\n      add\n        /* \"#utility.yul\":8848:8874   */\n      swap1\n      pop\n        /* \"#utility.yul\":8884:8955   */\n      tag_232\n        /* \"#utility.yul\":8952:8953   */\n      0x00\n        /* \"#utility.yul\":8941:8950   */\n      dup4\n        /* \"#utility.yul\":8937:8954   */\n      add\n        /* \"#utility.yul\":8928:8934   */\n      dup6\n        /* \"#utility.yul\":8884:8955   */\n      tag_113\n      jump\t// in\n    tag_232:\n        /* \"#utility.yul\":8965:9037   */\n      tag_233\n        /* \"#utility.yul\":9033:9035   */\n      0x20\n        /* \"#utility.yul\":9022:9031   */\n      dup4\n        /* \"#utility.yul\":9018:9036   */\n      add\n        /* \"#utility.yul\":9009:9015   */\n      dup5\n        /* \"#utility.yul\":8965:9037   */\n      tag_113\n      jump\t// in\n    tag_233:\n        /* \"#utility.yul\":8712:9044   */\n      swap4\n      swap3\n      pop\n      pop\n      pop\n      jump\t// out\n\n    auxdata: 0xa26469706673582212205fd38521ce40b798facf76c594ec1ff36d0b8b6914d3190fe1cff6bf8acddd8b64736f6c634300081a0033\n}\n",
				"bytecode": {
					"linkReferences": {},
					"object": "6080604052348015600e575f80fd5b50601c33602060201b60201c565b604b565b5f7f4fd4576c802ecbb819507362929366748755d6888a7c7ba7b13777d369de6d6490508181555050565b610cad806100585f395ff3fe608060405260043610610073575f3560e01c80635c60da1b1161004d5780635c60da1b146100fa578063612f2f37146101245780636c376cc51461014c578063f1739cae1461017657610082565b8063025313a21461008c5780633659cfe6146100b65780634f1ef286146100de57610082565b366100825761008061019e565b005b61008a61019e565b005b348015610097575f80fd5b506100a06102bd565b6040516100ad919061081f565b60405180910390f35b3480156100c1575f80fd5b506100dc60048036038101906100d79190610873565b6102ea565b005b6100f860048036038101906100f391906109da565b61036b565b005b348015610105575f80fd5b5061010e610498565b60405161011b919061081f565b60405180910390f35b34801561012f575f80fd5b5061014a60048036038101906101459190610a69565b6104c5565b005b348015610157575f80fd5b50610160610565565b60405161016d9190610aa3565b60405180910390f35b348015610181575f80fd5b5061019c60048036038101906101979190610873565b610592565b005b6101a6610565565b15610221576101b36102bd565b73ffffffffffffffffffffffffffffffffffffffff163373ffffffffffffffffffffffffffffffffffffffff1614610220576040517f08c379a000000000000000000000000000000000000000000000000000000000815260040161021790610b3c565b60405180910390fd5b5b5f61022a610498565b90505f73ffffffffffffffffffffffffffffffffffffffff168173ffffffffffffffffffffffffffffffffffffffff160361029a576040517f08c379a000000000000000000000000000000000000000000000000000000000815260040161029190610bca565b60405180910390fd5b604051365f82375f803683855af43d805f843e815f81146102b9578184f35b8184fd5b5f807f4fd4576c802ecbb819507362929366748755d6888a7c7ba7b13777d369de6d649050805491505090565b6102f26102bd565b73ffffffffffffffffffffffffffffffffffffffff163373ffffffffffffffffffffffffffffffffffffffff161461035f576040517f08c379a000000000000000000000000000000000000000000000000000000000815260040161035690610b3c565b60405180910390fd5b610368816106c1565b50565b6103736102bd565b73ffffffffffffffffffffffffffffffffffffffff163373ffffffffffffffffffffffffffffffffffffffff16146103e0576040517f08c379a00000000000000000000000000000000000000000000000000000000081526004016103d790610b3c565b60405180910390fd5b6103e9826102ea565b5f3073ffffffffffffffffffffffffffffffffffffffff1634836040516104109190610c3a565b5f6040518083038185875af1925050503d805f811461044a576040519150601f19603f3d011682016040523d82523d5f602084013e61044f565b606091505b5050905080610493576040517f08c379a000000000000000000000000000000000000000000000000000000000815260040161048a90610bca565b60405180910390fd5b505050565b5f807f99e2d4e47134fbedfde07462ea57d05cbb32806c820da473f8165f58b3ca3a599050805491505090565b6104cd6102bd565b73ffffffffffffffffffffffffffffffffffffffff163373ffffffffffffffffffffffffffffffffffffffff161461053a576040517f08c379a000000000000000000000000000000000000000000000000000000000815260040161053190610b3c565b60405180910390fd5b5f7f0ed25f2d8dcc032f1568d58009e17f2c5d190d94b1b76c2d082df0da5a6b78b790508181555050565b5f807f0ed25f2d8dcc032f1568d58009e17f2c5d190d94b1b76c2d082df0da5a6b78b79050805491505090565b61059a6102bd565b73ffffffffffffffffffffffffffffffffffffffff163373ffffffffffffffffffffffffffffffffffffffff1614610607576040517f08c379a00000000000000000000000000000000000000000000000000000000081526004016105fe90610b3c565b60405180910390fd5b5f73ffffffffffffffffffffffffffffffffffffffff168173ffffffffffffffffffffffffffffffffffffffff1603610675576040517f08c379a000000000000000000000000000000000000000000000000000000000815260040161066c90610bca565b60405180910390fd5b7f5a3e66efaa1e445ebd894728a69d6959842ea1e97bd79b892797106e270efcd961069e6102bd565b826040516106ad929190610c50565b60405180910390a16106be8161078a565b50565b5f6106ca610498565b90508173ffffffffffffffffffffffffffffffffffffffff168173ffffffffffffffffffffffffffffffffffffffff160361073a576040517f08c379a000000000000000000000000000000000000000000000000000000000815260040161073190610bca565b60405180910390fd5b610743826107b5565b8173ffffffffffffffffffffffffffffffffffffffff167fbc7cd75a20ee27fd9adebab32041f755214dbc6bffa90cc0225b39da2e5c2d3b60405160405180910390a25050565b5f7f4fd4576c802ecbb819507362929366748755d6888a7c7ba7b13777d369de6d6490508181555050565b5f7f99e2d4e47134fbedfde07462ea57d05cbb32806c820da473f8165f58b3ca3a5990508181555050565b5f73ffffffffffffffffffffffffffffffffffffffff82169050919050565b5f610809826107e0565b9050919050565b610819816107ff565b82525050565b5f6020820190506108325f830184610810565b92915050565b5f604051905090565b5f80fd5b5f80fd5b610852816107ff565b811461085c575f80fd5b50565b5f8135905061086d81610849565b92915050565b5f6020828403121561088857610887610841565b5b5f6108958482850161085f565b91505092915050565b5f80fd5b5f80fd5b5f601f19601f8301169050919050565b7f4e487b71000000000000000000000000000000000000000000000000000000005f52604160045260245ffd5b6108ec826108a6565b810181811067ffffffffffffffff8211171561090b5761090a6108b6565b5b80604052505050565b5f61091d610838565b905061092982826108e3565b919050565b5f67ffffffffffffffff821115610948576109476108b6565b5b610951826108a6565b9050602081019050919050565b828183375f83830152505050565b5f61097e6109798461092e565b610914565b90508281526020810184848401111561099a576109996108a2565b5b6109a584828561095e565b509392505050565b5f82601f8301126109c1576109c061089e565b5b81356109d184826020860161096c565b91505092915050565b5f80604083850312156109f0576109ef610841565b5b5f6109fd8582860161085f565b925050602083013567ffffffffffffffff811115610a1e57610a1d610845565b5b610a2a858286016109ad565b9150509250929050565b5f8115159050919050565b610a4881610a34565b8114610a52575f80fd5b50565b5f81359050610a6381610a3f565b92915050565b5f60208284031215610a7e57610a7d610841565b5b5f610a8b84828501610a55565b91505092915050565b610a9d81610a34565b82525050565b5f602082019050610ab65f830184610a94565b92915050565b5f82825260208201905092915050565b7f4f776e6564557067726164656162696c69747950726f78793a20464f524249445f8201527f44454e0000000000000000000000000000000000000000000000000000000000602082015250565b5f610b26602383610abc565b9150610b3182610acc565b604082019050919050565b5f6020820190508181035f830152610b5381610b1a565b9050919050565b7f4f776e6564557067726164656162696c69747950726f78793a20494e56414c495f8201527f4400000000000000000000000000000000000000000000000000000000000000602082015250565b5f610bb4602183610abc565b9150610bbf82610b5a565b604082019050919050565b5f6020820190508181035f830152610be181610ba8565b9050919050565b5f81519050919050565b5f81905092915050565b8281835e5f83830152505050565b5f610c1482610be8565b610c1e8185610bf2565b9350610c2e818560208601610bfc565b80840191505092915050565b5f610c458284610c0a565b915081905092915050565b5f604082019050610c635f830185610810565b610c706020830184610810565b939250505056fea26469706673582212205fd38521ce40b798facf76c594ec1ff36d0b8b6914d3190fe1cff6bf8acddd8b64736f6c634300081a0033",
					"opcodes": "PUSH1 0x80 PUSH1 0x40 MSTORE CALLVALUE DUP1 ISZERO PUSH1 0xE JUMPI PUSH0 DUP1 REVERT JUMPDEST POP PUSH1 0x1C CALLER PUSH1 0x20 PUSH1 0x20 SHL PUSH1 0x20 SHR JUMP JUMPDEST PUSH1 0x4B JUMP JUMPDEST PUSH0 PUSH32 0x4FD4576C802ECBB819507362929366748755D6888A7C7BA7B13777D369DE6D64 SWAP1 POP DUP2 DUP2 SSTORE POP POP JUMP JUMPDEST PUSH2 0xCAD DUP1 PUSH2 0x58 PUSH0 CODECOPY PUSH0 RETURN INVALID PUSH1 0x80 PUSH1 0x40 MSTORE PUSH1 0x4 CALLDATASIZE LT PUSH2 0x73 JUMPI PUSH0 CALLDATALOAD PUSH1 0xE0 SHR DUP1 PUSH4 0x5C60DA1B GT PUSH2 0x4D JUMPI DUP1 PUSH4 0x5C60DA1B EQ PUSH2 0xFA JUMPI DUP1 PUSH4 0x612F2F37 EQ PUSH2 0x124 JUMPI DUP1 PUSH4 0x6C376CC5 EQ PUSH2 0x14C JUMPI DUP1 PUSH4 0xF1739CAE EQ PUSH2 0x176 JUMPI PUSH2 0x82 JUMP JUMPDEST DUP1 PUSH4 0x25313A2 EQ PUSH2 0x8C JUMPI DUP1 PUSH4 0x3659CFE6 EQ PUSH2 0xB6 JUMPI DUP1 PUSH4 0x4F1EF286 EQ PUSH2 0xDE JUMPI PUSH2 0x82 JUMP JUMPDEST CALLDATASIZE PUSH2 0x82 JUMPI PUSH2 0x80 PUSH2 0x19E JUMP JUMPDEST STOP JUMPDEST PUSH2 0x8A PUSH2 0x19E JUMP JUMPDEST STOP JUMPDEST CALLVALUE DUP1 ISZERO PUSH2 0x97 JUMPI PUSH0 DUP1 REVERT JUMPDEST POP PUSH2 0xA0 PUSH2 0x2BD JUMP JUMPDEST PUSH1 0x40 MLOAD PUSH2 0xAD SWAP2 SWAP1 PUSH2 0x81F JUMP JUMPDEST PUSH1 0x40 MLOAD DUP1 SWAP2 SUB SWAP1 RETURN JUMPDEST CALLVALUE DUP1 ISZERO PUSH2 0xC1 JUMPI PUSH0 DUP1 REVERT JUMPDEST POP PUSH2 0xDC PUSH1 0x4 DUP1 CALLDATASIZE SUB DUP2 ADD SWAP1 PUSH2 0xD7 SWAP2 SWAP1 PUSH2 0x873 JUMP JUMPDEST PUSH2 0x2EA JUMP JUMPDEST STOP JUMPDEST PUSH2 0xF8 PUSH1 0x4 DUP1 CALLDATASIZE SUB DUP2 ADD SWAP1 PUSH2 0xF3 SWAP2 SWAP1 PUSH2 0x9DA JUMP JUMPDEST PUSH2 0x36B JUMP JUMPDEST STOP JUMPDEST CALLVALUE DUP1 ISZERO PUSH2 0x105 JUMPI PUSH0 DUP1 REVERT JUMPDEST POP PUSH2 0x10E PUSH2 0x498 JUMP JUMPDEST PUSH1 0x40 MLOAD PUSH2 0x11B SWAP2 SWAP1 PUSH2 0x81F JUMP JUMPDEST PUSH1 0x40 MLOAD DUP1 SWAP2 SUB SWAP1 RETURN JUMPDEST CALLVALUE DUP1 ISZERO PUSH2 0x12F JUMPI PUSH0 DUP1 REVERT JUMPDEST POP PUSH2 0x14A PUSH1 0x4 DUP1 CALLDATASIZE SUB DUP2 ADD SWAP1 PUSH2 0x145 SWAP2 SWAP1 PUSH2 0xA69 JUMP JUMPDEST PUSH2 0x4C5 JUMP JUMPDEST STOP JUMPDEST CALLVALUE DUP1 ISZERO PUSH2 0x157 JUMPI PUSH0 DUP1 REVERT JUMPDEST POP PUSH2 0x160 PUSH2 0x565 JUMP JUMPDEST PUSH1 0x40 MLOAD PUSH2 0x16D SWAP2 SWAP1 PUSH2 0xAA3 JUMP JUMPDEST PUSH1 0x40 MLOAD DUP1 SWAP2 SUB SWAP1 RETURN JUMPDEST CALLVALUE DUP1 ISZERO PUSH2 0x181 JUMPI PUSH0 DUP1 REVERT JUMPDEST POP PUSH2 0x19C PUSH1 0x4 DUP1 CALLDATASIZE SUB DUP2 ADD SWAP1 PUSH2 0x197 SWAP2 SWAP1 PUSH2 0x873 JUMP JUMPDEST PUSH2 0x592 JUMP JUMPDEST STOP JUMPDEST PUSH2 0x1A6 PUSH2 0x565 JUMP JUMPDEST ISZERO PUSH2 0x221 JUMPI PUSH2 0x1B3 PUSH2 0x2BD JUMP JUMPDEST PUSH20 0xFFFFFFFFFFFFFFFFFFFFFFFFFFFFFFFFFFFFFFFF AND CALLER PUSH20 0xFFFFFFFFFFFFFFFFFFFFFFFFFFFFFFFFFFFFFFFF AND EQ PUSH2 0x220 JUMPI PUSH1 0x40 MLOAD PUSH32 0x8C379A000000000000000000000000000000000000000000000000000000000 DUP2 MSTORE PUSH1 0x4 ADD PUSH2 0x217 SWAP1 PUSH2 0xB3C JUMP JUMPDEST PUSH1 0x40 MLOAD DUP1 SWAP2 SUB SWAP1 REVERT JUMPDEST JUMPDEST PUSH0 PUSH2 0x22A PUSH2 0x498 JUMP JUMPDEST SWAP1 POP PUSH0 PUSH20 0xFFFFFFFFFFFFFFFFFFFFFFFFFFFFFFFFFFFFFFFF AND DUP2 PUSH20 0xFFFFFFFFFFFFFFFFFFFFFFFFFFFFFFFFFFFFFFFF AND SUB PUSH2 0x29A JUMPI PUSH1 0x40 MLOAD PUSH32 0x8C379A000000000000000000000000000000000000000000000000000000000 DUP2 MSTORE PUSH1 0x4 ADD PUSH2 0x291 SWAP1 PUSH2 0xBCA JUMP JUMPDEST PUSH1 0x40 MLOAD DUP1 SWAP2 SUB SWAP1 REVERT JUMPDEST PUSH1 0x40 MLOAD CALLDATASIZE PUSH0 DUP3 CALLDATACOPY PUSH0 DUP1 CALLDATASIZE DUP4 DUP6 GAS DELEGATECALL RETURNDATASIZE DUP1 PUSH0 DUP5 RETURNDATACOPY DUP2 PUSH0 DUP2 EQ PUSH2 0x2B9 JUMPI DUP2 DUP5 RETURN JUMPDEST DUP2 DUP5 REVERT JUMPDEST PUSH0 DUP1 PUSH32 0x4FD4576C802ECBB819507362929366748755D6888A7C7BA7B13777D369DE6D64 SWAP1 POP DUP1 SLOAD SWAP2 POP POP SWAP1 JUMP JUMPDEST PUSH2 0x2F2 PUSH2 0x2BD JUMP JUMPDEST PUSH20 0xFFFFFFFFFFFFFFFFFFFFFFFFFFFFFFFFFFFFFFFF AND CALLER PUSH20 0xFFFFFFFFFFFFFFFFFFFFFFFFFFFFFFFFFFFFFFFF AND EQ PUSH2 0x35F JUMPI PUSH1 0x40 MLOAD PUSH32 0x8C379A000000000000000000000000000000000000000000000000000000000 DUP2 MSTORE PUSH1 0x4 ADD PUSH2 0x356 SWAP1 PUSH2 0xB3C JUMP JUMPDEST PUSH1 0x40 MLOAD DUP1 SWAP2 SUB SWAP1 REVERT JUMPDEST PUSH2 0x368 DUP2 PUSH2 0x6C1 JUMP JUMPDEST POP JUMP JUMPDEST PUSH2 0x373 PUSH2 0x2BD JUMP JUMPDEST PUSH20 0xFFFFFFFFFFFFFFFFFFFFFFFFFFFFFFFFFFFFFFFF AND CALLER PUSH20 0xFFFFFFFFFFFFFFFFFFFFFFFFFFFFFFFFFFFFFFFF AND EQ PUSH2 0x3E0 JUMPI PUSH1 0x40 MLOAD PUSH32 0x8C379A000000000000000000000000000000000000000000000000000000000 DUP2 MSTORE PUSH1 0x4 ADD PUSH2 0x3D7 SWAP1 PUSH2 0xB3C JUMP JUMPDEST PUSH1 0x40 MLOAD DUP1 SWAP2 SUB SWAP1 REVERT JUMPDEST PUSH2 0x3E9 DUP3 PUSH2 0x2EA JUMP JUMPDEST PUSH0 ADDRESS PUSH20 0xFFFFFFFFFFFFFFFFFFFFFFFFFFFFFFFFFFFFFFFF AND CALLVALUE DUP4 PUSH1 0x40 MLOAD PUSH2 0x410 SWAP2 SWAP1 PUSH2 0xC3A JUMP JUMPDEST PUSH0 PUSH1 0x40 MLOAD DUP1 DUP4 SUB DUP2 DUP6 DUP8 GAS CALL SWAP3 POP POP POP RETURNDATASIZE DUP1 PUSH0 DUP2 EQ PUSH2 0x44A JUMPI PUSH1 0x40 MLOAD SWAP2 POP PUSH1 0x1F NOT PUSH1 0x3F RETURNDATASIZE ADD AND DUP3 ADD PUSH1 0x40 MSTORE RETURNDATASIZE DUP3 MSTORE RETURNDATASIZE PUSH0 PUSH1 0x20 DUP5 ADD RETURNDATACOPY PUSH2 0x44F JUMP JUMPDEST PUSH1 0x60 SWAP2 POP JUMPDEST POP POP SWAP1 POP DUP1 PUSH2 0x493 JUMPI PUSH1 0x40 MLOAD PUSH32 0x8C379A000000000000000000000000000000000000000000000000000000000 DUP2 MSTORE PUSH1 0x4 ADD PUSH2 0x48A SWAP1 PUSH2 0xBCA JUMP JUMPDEST PUSH1 0x40 MLOAD DUP1 SWAP2 SUB SWAP1 REVERT JUMPDEST POP POP POP JUMP JUMPDEST PUSH0 DUP1 PUSH32 0x99E2D4E47134FBEDFDE07462EA57D05CBB32806C820DA473F8165F58B3CA3A59 SWAP1 POP DUP1 SLOAD SWAP2 POP POP SWAP1 JUMP JUMPDEST PUSH2 0x4CD PUSH2 0x2BD JUMP JUMPDEST PUSH20 0xFFFFFFFFFFFFFFFFFFFFFFFFFFFFFFFFFFFFFFFF AND CALLER PUSH20 0xFFFFFFFFFFFFFFFFFFFFFFFFFFFFFFFFFFFFFFFF AND EQ PUSH2 0x53A JUMPI PUSH1 0x40 MLOAD PUSH32 0x8C379A000000000000000000000000000000000000000000000000000000000 DUP2 MSTORE PUSH1 0x4 ADD PUSH2 0x531 SWAP1 PUSH2 0xB3C JUMP JUMPDEST PUSH1 0x40 MLOAD DUP1 SWAP2 SUB SWAP1 REVERT JUMPDEST PUSH0 PUSH32 0xED25F2D8DCC032F1568D58009E17F2C5D190D94B1B76C2D082DF0DA5A6B78B7 SWAP1 POP DUP2 DUP2 SSTORE POP POP JUMP JUMPDEST PUSH0 DUP1 PUSH32 0xED25F2D8DCC032F1568D58009E17F2C5D190D94B1B76C2D082DF0DA5A6B78B7 SWAP1 POP DUP1 SLOAD SWAP2 POP POP SWAP1 JUMP JUMPDEST PUSH2 0x59A PUSH2 0x2BD JUMP JUMPDEST PUSH20 0xFFFFFFFFFFFFFFFFFFFFFFFFFFFFFFFFFFFFFFFF AND CALLER PUSH20 0xFFFFFFFFFFFFFFFFFFFFFFFFFFFFFFFFFFFFFFFF AND EQ PUSH2 0x607 JUMPI PUSH1 0x40 MLOAD PUSH32 0x8C379A000000000000000000000000000000000000000000000000000000000 DUP2 MSTORE PUSH1 0x4 ADD PUSH2 0x5FE SWAP1 PUSH2 0xB3C JUMP JUMPDEST PUSH1 0x40 MLOAD DUP1 SWAP2 SUB SWAP1 REVERT JUMPDEST PUSH0 PUSH20 0xFFFFFFFFFFFFFFFFFFFFFFFFFFFFFFFFFFFFFFFF AND DUP2 PUSH20 0xFFFFFFFFFFFFFFFFFFFFFFFFFFFFFFFFFFFFFFFF AND SUB PUSH2 0x675 JUMPI PUSH1 0x40 MLOAD PUSH32 0x8C379A000000000000000000000000000000000000000000000000000000000 DUP2 MSTORE PUSH1 0x4 ADD PUSH2 0x66C SWAP1 PUSH2 0xBCA JUMP JUMPDEST PUSH1 0x40 MLOAD DUP1 SWAP2 SUB SWAP1 REVERT JUMPDEST PUSH32 0x5A3E66EFAA1E445EBD894728A69D6959842EA1E97BD79B892797106E270EFCD9 PUSH2 0x69E PUSH2 0x2BD JUMP JUMPDEST DUP3 PUSH1 0x40 MLOAD PUSH2 0x6AD SWAP3 SWAP2 SWAP1 PUSH2 0xC50 JUMP JUMPDEST PUSH1 0x40 MLOAD DUP1 SWAP2 SUB SWAP1 LOG1 PUSH2 0x6BE DUP2 PUSH2 0x78A JUMP JUMPDEST POP JUMP JUMPDEST PUSH0 PUSH2 0x6CA PUSH2 0x498 JUMP JUMPDEST SWAP1 POP DUP2 PUSH20 0xFFFFFFFFFFFFFFFFFFFFFFFFFFFFFFFFFFFFFFFF AND DUP2 PUSH20 0xFFFFFFFFFFFFFFFFFFFFFFFFFFFFFFFFFFFFFFFF AND SUB PUSH2 0x73A JUMPI PUSH1 0x40 MLOAD PUSH32 0x8C379A000000000000000000000000000000000000000000000000000000000 DUP2 MSTORE PUSH1 0x4 ADD PUSH2 0x731 SWAP1 PUSH2 0xBCA JUMP JUMPDEST PUSH1 0x40 MLOAD DUP1 SWAP2 SUB SWAP1 REVERT JUMPDEST PUSH2 0x743 DUP3 PUSH2 0x7B5 JUMP JUMPDEST DUP2 PUSH20 0xFFFFFFFFFFFFFFFFFFFFFFFFFFFFFFFFFFFFFFFF AND PUSH32 0xBC7CD75A20EE27FD9ADEBAB32041F755214DBC6BFFA90CC0225B39DA2E5C2D3B PUSH1 0x40 MLOAD PUSH1 0x40 MLOAD DUP1 SWAP2 SUB SWAP1 LOG2 POP POP JUMP JUMPDEST PUSH0 PUSH32 0x4FD4576C802ECBB819507362929366748755D6888A7C7BA7B13777D369DE6D64 SWAP1 POP DUP2 DUP2 SSTORE POP POP JUMP JUMPDEST PUSH0 PUSH32 0x99E2D4E47134FBEDFDE07462EA57D05CBB32806C820DA473F8165F58B3CA3A59 SWAP1 POP DUP2 DUP2 SSTORE POP POP JUMP JUMPDEST PUSH0 PUSH20 0xFFFFFFFFFFFFFFFFFFFFFFFFFFFFFFFFFFFFFFFF DUP3 AND SWAP1 POP SWAP2 SWAP1 POP JUMP JUMPDEST PUSH0 PUSH2 0x809 DUP3 PUSH2 0x7E0 JUMP JUMPDEST SWAP1 POP SWAP2 SWAP1 POP JUMP JUMPDEST PUSH2 0x819 DUP2 PUSH2 0x7FF JUMP JUMPDEST DUP3 MSTORE POP POP JUMP JUMPDEST PUSH0 PUSH1 0x20 DUP3 ADD SWAP1 POP PUSH2 0x832 PUSH0 DUP4 ADD DUP5 PUSH2 0x810 JUMP JUMPDEST SWAP3 SWAP2 POP POP JUMP JUMPDEST PUSH0 PUSH1 0x40 MLOAD SWAP1 POP SWAP1 JUMP JUMPDEST PUSH0 DUP1 REVERT JUMPDEST PUSH0 DUP1 REVERT JUMPDEST PUSH2 0x852 DUP2 PUSH2 0x7FF JUMP JUMPDEST DUP2 EQ PUSH2 0x85C JUMPI PUSH0 DUP1 REVERT JUMPDEST POP JUMP JUMPDEST PUSH0 DUP2 CALLDATALOAD SWAP1 POP PUSH2 0x86D DUP2 PUSH2 0x849 JUMP JUMPDEST SWAP3 SWAP2 POP POP JUMP JUMPDEST PUSH0 PUSH1 0x20 DUP3 DUP5 SUB SLT ISZERO PUSH2 0x888 JUMPI PUSH2 0x887 PUSH2 0x841 JUMP JUMPDEST JUMPDEST PUSH0 PUSH2 0x895 DUP5 DUP3 DUP6 ADD PUSH2 0x85F JUMP JUMPDEST SWAP2 POP POP SWAP3 SWAP2 POP POP JUMP JUMPDEST PUSH0 DUP1 REVERT JUMPDEST PUSH0 DUP1 REVERT JUMPDEST PUSH0 PUSH1 0x1F NOT PUSH1 0x1F DUP4 ADD AND SWAP1 POP SWAP2 SWAP1 POP JUMP JUMPDEST PUSH32 0x4E487B7100000000000000000000000000000000000000000000000000000000 PUSH0 MSTORE PUSH1 0x41 PUSH1 0x4 MSTORE PUSH1 0x24 PUSH0 REVERT JUMPDEST PUSH2 0x8EC DUP3 PUSH2 0x8A6 JUMP JUMPDEST DUP2 ADD DUP2 DUP2 LT PUSH8 0xFFFFFFFFFFFFFFFF DUP3 GT OR ISZERO PUSH2 0x90B JUMPI PUSH2 0x90A PUSH2 0x8B6 JUMP JUMPDEST JUMPDEST DUP1 PUSH1 0x40 MSTORE POP POP POP JUMP JUMPDEST PUSH0 PUSH2 0x91D PUSH2 0x838 JUMP JUMPDEST SWAP1 POP PUSH2 0x929 DUP3 DUP3 PUSH2 0x8E3 JUMP JUMPDEST SWAP2 SWAP1 POP JUMP JUMPDEST PUSH0 PUSH8 0xFFFFFFFFFFFFFFFF DUP3 GT ISZERO PUSH2 0x948 JUMPI PUSH2 0x947 PUSH2 0x8B6 JUMP JUMPDEST JUMPDEST PUSH2 0x951 DUP3 PUSH2 0x8A6 JUMP JUMPDEST SWAP1 POP PUSH1 0x20 DUP2 ADD SWAP1 POP SWAP2 SWAP1 POP JUMP JUMPDEST DUP3 DUP2 DUP4 CALLDATACOPY PUSH0 DUP4 DUP4 ADD MSTORE POP POP POP JUMP JUMPDEST PUSH0 PUSH2 0x97E PUSH2 0x979 DUP5 PUSH2 0x92E JUMP JUMPDEST PUSH2 0x914 JUMP JUMPDEST SWAP1 POP DUP3 DUP2 MSTORE PUSH1 0x20 DUP2 ADD DUP5 DUP5 DUP5 ADD GT ISZERO PUSH2 0x99A JUMPI PUSH2 0x999 PUSH2 0x8A2 JUMP JUMPDEST JUMPDEST PUSH2 0x9A5 DUP5 DUP3 DUP6 PUSH2 0x95E JUMP JUMPDEST POP SWAP4 SWAP3 POP POP POP JUMP JUMPDEST PUSH0 DUP3 PUSH1 0x1F DUP4 ADD SLT PUSH2 0x9C1 JUMPI PUSH2 0x9C0 PUSH2 0x89E JUMP JUMPDEST JUMPDEST DUP2 CALLDATALOAD PUSH2 0x9D1 DUP5 DUP3 PUSH1 0x20 DUP7 ADD PUSH2 0x96C JUMP JUMPDEST SWAP2 POP POP SWAP3 SWAP2 POP POP JUMP JUMPDEST PUSH0 DUP1 PUSH1 0x40 DUP4 DUP6 SUB SLT ISZERO PUSH2 0x9F0 JUMPI PUSH2 0x9EF PUSH2 0x841 JUMP JUMPDEST JUMPDEST PUSH0 PUSH2 0x9FD DUP6 DUP3 DUP7 ADD PUSH2 0x85F JUMP JUMPDEST SWAP3 POP POP PUSH1 0x20 DUP4 ADD CALLDATALOAD PUSH8 0xFFFFFFFFFFFFFFFF DUP2 GT ISZERO PUSH2 0xA1E JUMPI PUSH2 0xA1D PUSH2 0x845 JUMP JUMPDEST JUMPDEST PUSH2 0xA2A DUP6 DUP3 DUP7 ADD PUSH2 0x9AD JUMP JUMPDEST SWAP2 POP POP SWAP3 POP SWAP3 SWAP1 POP JUMP JUMPDEST PUSH0 DUP2 ISZERO ISZERO SWAP1 POP SWAP2 SWAP1 POP JUMP JUMPDEST PUSH2 0xA48 DUP2 PUSH2 0xA34 JUMP JUMPDEST DUP2 EQ PUSH2 0xA52 JUMPI PUSH0 DUP1 REVERT JUMPDEST POP JUMP JUMPDEST PUSH0 DUP2 CALLDATALOAD SWAP1 POP PUSH2 0xA63 DUP2 PUSH2 0xA3F JUMP JUMPDEST SWAP3 SWAP2 POP POP JUMP JUMPDEST PUSH0 PUSH1 0x20 DUP3 DUP5 SUB SLT ISZERO PUSH2 0xA7E JUMPI PUSH2 0xA7D PUSH2 0x841 JUMP JUMPDEST JUMPDEST PUSH0 PUSH2 0xA8B DUP5 DUP3 DUP6 ADD PUSH2 0xA55 JUMP JUMPDEST SWAP2 POP POP SWAP3 SWAP2 POP POP JUMP JUMPDEST PUSH2 0xA9D DUP2 PUSH2 0xA34 JUMP JUMPDEST DUP3 MSTORE POP POP JUMP JUMPDEST PUSH0 PUSH1 0x20 DUP3 ADD SWAP1 POP PUSH2 0xAB6 PUSH0 DUP4 ADD DUP5 PUSH2 0xA94 JUMP JUMPDEST SWAP3 SWAP2 POP POP JUMP JUMPDEST PUSH0 DUP3 DUP3 MSTORE PUSH1 0x20 DUP3 ADD SWAP1 POP SWAP3 SWAP2 POP POP JUMP JUMPDEST PUSH32 0x4F776E6564557067726164656162696C69747950726F78793A20464F52424944 PUSH0 DUP3 ADD MSTORE PUSH32 0x44454E0000000000000000000000000000000000000000000000000000000000 PUSH1 0x20 DUP3 ADD MSTORE POP JUMP JUMPDEST PUSH0 PUSH2 0xB26 PUSH1 0x23 DUP4 PUSH2 0xABC JUMP JUMPDEST SWAP2 POP PUSH2 0xB31 DUP3 PUSH2 0xACC JUMP JUMPDEST PUSH1 0x40 DUP3 ADD SWAP1 POP SWAP2 SWAP1 POP JUMP JUMPDEST PUSH0 PUSH1 0x20 DUP3 ADD SWAP1 POP DUP2 DUP2 SUB PUSH0 DUP4 ADD MSTORE PUSH2 0xB53 DUP2 PUSH2 0xB1A JUMP JUMPDEST SWAP1 POP SWAP2 SWAP1 POP JUMP JUMPDEST PUSH32 0x4F776E6564557067726164656162696C69747950726F78793A20494E56414C49 PUSH0 DUP3 ADD MSTORE PUSH32 0x4400000000000000000000000000000000000000000000000000000000000000 PUSH1 0x20 DUP3 ADD MSTORE POP JUMP JUMPDEST PUSH0 PUSH2 0xBB4 PUSH1 0x21 DUP4 PUSH2 0xABC JUMP JUMPDEST SWAP2 POP PUSH2 0xBBF DUP3 PUSH2 0xB5A JUMP JUMPDEST PUSH1 0x40 DUP3 ADD SWAP1 POP SWAP2 SWAP1 POP JUMP JUMPDEST PUSH0 PUSH1 0x20 DUP3 ADD SWAP1 POP DUP2 DUP2 SUB PUSH0 DUP4 ADD MSTORE PUSH2 0xBE1 DUP2 PUSH2 0xBA8 JUMP JUMPDEST SWAP1 POP SWAP2 SWAP1 POP JUMP JUMPDEST PUSH0 DUP2 MLOAD SWAP1 POP SWAP2 SWAP1 POP JUMP JUMPDEST PUSH0 DUP2 SWAP1 POP SWAP3 SWAP2 POP POP JUMP JUMPDEST DUP3 DUP2 DUP4 MCOPY PUSH0 DUP4 DUP4 ADD MSTORE POP POP POP JUMP JUMPDEST PUSH0 PUSH2 0xC14 DUP3 PUSH2 0xBE8 JUMP JUMPDEST PUSH2 0xC1E DUP2 DUP6 PUSH2 0xBF2 JUMP JUMPDEST SWAP4 POP PUSH2 0xC2E DUP2 DUP6 PUSH1 0x20 DUP7 ADD PUSH2 0xBFC JUMP JUMPDEST DUP1 DUP5 ADD SWAP2 POP POP SWAP3 SWAP2 POP POP JUMP JUMPDEST PUSH0 PUSH2 0xC45 DUP3 DUP5 PUSH2 0xC0A JUMP JUMPDEST SWAP2 POP DUP2 SWAP1 POP SWAP3 SWAP2 POP POP JUMP JUMPDEST PUSH0 PUSH1 0x40 DUP3 ADD SWAP1 POP PUSH2 0xC63 PUSH0 DUP4 ADD DUP6 PUSH2 0x810 JUMP JUMPDEST PUSH2 0xC70 PUSH1 0x20 DUP4 ADD DUP5 PUSH2 0x810 JUMP JUMPDEST SWAP4 SWAP3 POP POP POP JUMP INVALID LOG2 PUSH5 0x6970667358 0x22 SLT KECCAK256 PUSH0 0xD3 DUP6 0x21 0xCE BLOCKHASH 0xB7 SWAP9 STATICCALL 0xCF PUSH23 0xC594EC1FF36D0B8B6914D3190FE1CFF6BF8ACDDD8B6473 PUSH16 0x6C634300081A00330000000000000000 "
				},
				"gasEstimates": {
					"creation": {
						"codeDepositCost": "649000",
						"executionCost": "infinite",
						"totalCost": "infinite"
					},
					"external": {
						"": "infinite",
						"implementation()": "2493",
						"maintenance()": "2495",
						"proxyOwner()": "2494",
						"setMaintenance(bool)": "24728",
						"transferProxyOwnership(address)": "infinite",
						"upgradeTo(address)": "28184",
						"upgradeToAndCall(address,bytes)": "infinite"
					},
					"internal": {
						"_fallback()": "infinite",
						"_upgradeTo(address)": "infinite",
						"setImplementation(address)": "22129",
						"setUpgradeabilityOwner(address)": "22129"
					}
				},
				"methodIdentifiers": {
					"implementation()": "5c60da1b",
					"maintenance()": "6c376cc5",
					"proxyOwner()": "025313a2",
					"setMaintenance(bool)": "612f2f37",
					"transferProxyOwnership(address)": "f1739cae",
					"upgradeTo(address)": "3659cfe6",
					"upgradeToAndCall(address,bytes)": "4f1ef286"
				}
			},
			"storageLayout": {
				"storage": [],
				"types": null
			},
			"userdoc": {
				"kind": "user",
				"methods": {},
				"version": 1
			}
		}
	}
}