{
  "_format": "hh-sol-artifact-1",
  "contractName": "MyContract",
  "sourceName": "contracts/MyContract.sol",
  "abi": [
    {
      "inputs": [
        {
          "internalType": "address",
          "name": "_tokenA",
          "type": "address"
        }
      ],
      "stateMutability": "nonpayable",
      "type": "constructor"
    },
    {
      "inputs": [
        {
          "internalType": "address",
          "name": "addr",
          "type": "address"
        }
      ],
      "name": "getBalanceAddr",
      "outputs": [
        {
          "internalType": "uint256",
          "name": "",
          "type": "uint256"
        }
      ],
      "stateMutability": "view",
      "type": "function"
    },
    {
      "inputs": [
        {
          "internalType": "address",
          "name": "recipient",
          "type": "address"
        },
        {
          "internalType": "uint256",
          "name": "amount",
          "type": "uint256"
        }
      ],
      "name": "onlyOwnerCanTransferTokens",
      "outputs": [],
      "stateMutability": "nonpayable",
      "type": "function"
    },
    {
      "inputs": [],
      "name": "owner",
      "outputs": [
        {
          "internalType": "address",
          "name": "",
          "type": "address"
        }
      ],
      "stateMutability": "view",
      "type": "function"
    },
    {
      "inputs": [],
      "name": "tokenA",
      "outputs": [
        {
          "internalType": "contract IERC20",
          "name": "",
          "type": "address"
        }
      ],
      "stateMutability": "view",
      "type": "function"
    },
    {
      "inputs": [
        {
          "internalType": "uint256",
          "name": "amount",
          "type": "uint256"
        }
      ],
      "name": "transferTokens",
      "outputs": [],
      "stateMutability": "nonpayable",
      "type": "function"
    }
  ],
  "bytecode": "0x608060405234801561001057600080fd5b50604051610d0a380380610d0a8339818101604052810190610032919061011c565b336000806101000a81548173ffffffffffffffffffffffffffffffffffffffff021916908373ffffffffffffffffffffffffffffffffffffffff16021790555080600160006101000a81548173ffffffffffffffffffffffffffffffffffffffff021916908373ffffffffffffffffffffffffffffffffffffffff16021790555050610149565b600080fd5b600073ffffffffffffffffffffffffffffffffffffffff82169050919050565b60006100e9826100be565b9050919050565b6100f9816100de565b811461010457600080fd5b50565b600081519050610116816100f0565b92915050565b600060208284031215610132576101316100b9565b5b600061014084828501610107565b91505092915050565b610bb2806101586000396000f3fe608060405234801561001057600080fd5b50600436106100575760003560e01c80630fc63d101461005c5780632b91e60f1461007a5780638da5cb5b146100aa578063eb7e05ce146100c8578063fd9a4e61146100e4575b600080fd5b610064610100565b60405161007191906106e3565b60405180910390f35b610094600480360381019061008f9190610741565b610126565b6040516100a19190610787565b60405180910390f35b6100b26101cb565b6040516100bf91906107b1565b60405180910390f35b6100e260048036038101906100dd91906107f8565b6101ef565b005b6100fe60048036038101906100f99190610838565b610400565b005b600160009054906101000a900473ffffffffffffffffffffffffffffffffffffffff1681565b6000600160009054906101000a900473ffffffffffffffffffffffffffffffffffffffff1673ffffffffffffffffffffffffffffffffffffffff166370a08231836040518263ffffffff1660e01b815260040161018391906107b1565b602060405180830381865afa1580156101a0573d6000803e3d6000fd5b505050506040513d601f19601f820116820180604052508101906101c4919061087a565b9050919050565b60008054906101000a900473ffffffffffffffffffffffffffffffffffffffff1681565b3373ffffffffffffffffffffffffffffffffffffffff1660008054906101000a900473ffffffffffffffffffffffffffffffffffffffff1673ffffffffffffffffffffffffffffffffffffffff161461027d576040517f08c379a000000000000000000000000000000000000000000000000000000000815260040161027490610904565b60405180910390fd5b80600160009054906101000a900473ffffffffffffffffffffffffffffffffffffffff1673ffffffffffffffffffffffffffffffffffffffff166370a08231306040518263ffffffff1660e01b81526004016102d991906107b1565b602060405180830381865afa1580156102f6573d6000803e3d6000fd5b505050506040513d601f19601f8201168201806040525081019061031a919061087a565b101561035b576040517f08c379a000000000000000000000000000000000000000000000000000000000815260040161035290610970565b60405180910390fd5b600160009054906101000a900473ffffffffffffffffffffffffffffffffffffffff1673ffffffffffffffffffffffffffffffffffffffff1663a9059cbb83836040518363ffffffff1660e01b81526004016103b8929190610990565b6020604051808303816000875af11580156103d7573d6000803e3d6000fd5b505050506040513d601f19601f820116820180604052508101906103fb91906109f1565b505050565b80600160009054906101000a900473ffffffffffffffffffffffffffffffffffffffff1673ffffffffffffffffffffffffffffffffffffffff166370a08231336040518263ffffffff1660e01b815260040161045c91906107b1565b602060405180830381865afa158015610479573d6000803e3d6000fd5b505050506040513d601f19601f8201168201806040525081019061049d919061087a565b10156104de576040517f08c379a00000000000000000000000000000000000000000000000000000000081526004016104d590610a6a565b60405180910390fd5b80600160009054906101000a900473ffffffffffffffffffffffffffffffffffffffff1673ffffffffffffffffffffffffffffffffffffffff1663dd62ed3e33306040518363ffffffff1660e01b815260040161053c929190610a8a565b602060405180830381865afa158015610559573d6000803e3d6000fd5b505050506040513d601f19601f8201168201806040525081019061057d919061087a565b10156105be576040517f08c379a00000000000000000000000000000000000000000000000000000000081526004016105b590610b25565b60405180910390fd5b600160009054906101000a900473ffffffffffffffffffffffffffffffffffffffff1673ffffffffffffffffffffffffffffffffffffffff166323b872dd3330846040518463ffffffff1660e01b815260040161061d93929190610b45565b6020604051808303816000875af115801561063c573d6000803e3d6000fd5b505050506040513d601f19601f8201168201806040525081019061066091906109f1565b5050565b600073ffffffffffffffffffffffffffffffffffffffff82169050919050565b6000819050919050565b60006106a96106a461069f84610664565b610684565b610664565b9050919050565b60006106bb8261068e565b9050919050565b60006106cd826106b0565b9050919050565b6106dd816106c2565b82525050565b60006020820190506106f860008301846106d4565b92915050565b600080fd5b600061070e82610664565b9050919050565b61071e81610703565b811461072957600080fd5b50565b60008135905061073b81610715565b92915050565b600060208284031215610757576107566106fe565b5b60006107658482850161072c565b91505092915050565b6000819050919050565b6107818161076e565b82525050565b600060208201905061079c6000830184610778565b92915050565b6107ab81610703565b82525050565b60006020820190506107c660008301846107a2565b92915050565b6107d58161076e565b81146107e057600080fd5b50565b6000813590506107f2816107cc565b92915050565b6000806040838503121561080f5761080e6106fe565b5b600061081d8582860161072c565b925050602061082e858286016107e3565b9150509250929050565b60006020828403121561084e5761084d6106fe565b5b600061085c848285016107e3565b91505092915050565b600081519050610874816107cc565b92915050565b6000602082840312156108905761088f6106fe565b5b600061089e84828501610865565b91505092915050565b600082825260208201905092915050565b7f4e6f7420417574686f72697a6564000000000000000000000000000000000000600082015250565b60006108ee600e836108a7565b91506108f9826108b8565b602082019050919050565b6000602082019050818103600083015261091d816108e1565b9050919050565b7f796f7520646f206e6f74206861766520656e6f75676820616d6f756e74000000600082015250565b600061095a601d836108a7565b915061096582610924565b602082019050919050565b600060208201905081810360008301526109898161094d565b9050919050565b60006040820190506109a560008301856107a2565b6109b26020830184610778565b9392505050565b60008115159050919050565b6109ce816109b9565b81146109d957600080fd5b50565b6000815190506109eb816109c5565b92915050565b600060208284031215610a0757610a066106fe565b5b6000610a15848285016109dc565b91505092915050565b7f596f7520646f206e6f74206861766520656e6f75676820746f6b656e73000000600082015250565b6000610a54601d836108a7565b9150610a5f82610a1e565b602082019050919050565b60006020820190508181036000830152610a8381610a47565b9050919050565b6000604082019050610a9f60008301856107a2565b610aac60208301846107a2565b9392505050565b7f4e6f74206861766520656e6f75676820746f6b656e7320696e2074686520636f60008201527f6e74726163740000000000000000000000000000000000000000000000000000602082015250565b6000610b0f6026836108a7565b9150610b1a82610ab3565b604082019050919050565b60006020820190508181036000830152610b3e81610b02565b9050919050565b6000606082019050610b5a60008301866107a2565b610b6760208301856107a2565b610b746040830184610778565b94935050505056fea2646970667358221220f5c8b4742461c24741b786861f6059bbc898523aefe63f505f93f1d7fba4ba4864736f6c63430008180033",
  "linkReferences": {},
  "deployedLinkReferences": {}
}